S01E00004F62737461636C652D61766F6964616E63652D6361722E737265639F
S11300000C942A000C94E0080C9409090C9432090D
S11300100C9447000C949D0B0C94220B0C944700F9
S11300200C94F90A0C94D00A0C9447000C944F0ACF
S11300300C9447000C9447000C9447000C94470020
S11300400C9447000C9447000C9447000C94470010
S11300500C94470011241FBECFE5D8E0DEBFCDBF0E
S113006011E0A0E6B0E0E2E4FCE102C005900D92EC
S1130070A035B107D9F721E0A0E5B1E001C01D9298
S1130080A238B207E1F70E94E5050C941F0E0C9408
S113009000000F931F93809167008130C9F5809110
S11300A0510190915201A0915301B091540140919A
S11300B07101509172016091730170917401841700
S11300C09507A607B70760F40196A11DB11D80939B
S11300D0510190935201A0935301B093540118C05D
S11300E084179507A607B70799F4452B462B472B8A
S11300F079F0109251011092520110925301109212
S1130100540180917501811103C081E080937501D0
S11301101F910F91089586E591E00E9467038091F5
S113012056018233A1F40E94BA0464E080E00E9484
S1130130AC0488E690E00E9499040E94780586E564
S113014091E00E946703809156018133C1F70895BD
S113015044E650E060E070E08EE10E94BC090E9439
S1130160540560E080E00E94AC0481E790E00E94C6
S1130170990460E081E00E94AC0482E890E00E946F
S11301809904609180017091810180E090E00E9467
S1130190C40489E890E00E949904089544E650E07C
S11301A060E070E082E30E94BC090E94540560E0B4
S11301B080E00E94AC048DE890E00E94990460E025
S11301C081E00E94AC0482E890E00E94990460916E
S11301D080017091810180E090E00E94C40489E86C
S11301E090E00E949904089532C080E891E00E9452
S11301F0C1050E948B0044E650E060E070E08EE1AF
S11302000E94BC0960E080E00E94AC048EE990E0AA
S11302100E94990460E081E00E94AC0482E890E0CE
S11302200E949904609180017091810180E090E0C6
S11302300E94C40489E890E00E94990480915501C9
S113024080FD03C00E948A0502C00E949C05809123
S1130250750181110DC080918001909181014F97AA
S113026038F48091800190918101459708F0BDCFC9
S113027008952BC00E948B0080E891E00E94C10584
S113028044E650E060E070E08EE10E94BC090E9408
S1130290660560E080E00E94AC048FEA90E00E9472
S11302A0990460E081E00E94AC0482E890E00E943E
S11302B09904609180017091810180E090E00E9436
S11302C0C40489E890E00E9499048091800190918F
S11302D08101459778F2089544E650E060E070E0CB
S11302E080E00E94BC090E94780560E080E00E94E2
S11302F0AC0480EC90E00E94990460E081E00E94EC
S1130300AC0482E890E00E949904609180017091AD
S1130310810180E090E00E94C40489E890E00E949A
S113032099040895CF93DF931F92CDB7DEB7198256
S113033064E080E00E94AC0481ED90E00E949904A6
S113034060E081E00E94AC048AED90E00E94990490
S113035086E591E00E94670380915601813341F75D
S113036060E080E00E94AC048BEE90E00E9499046F
S113037060E081E00E94AC048CEF90E00E9499045C
S11303801092510110925201109253011092540193
S11303908AE592E6A2E0B0E0809371019093720145
S11303A0A0937301B093740181E08093670056C0F9
S11303B0BE016F5F7F4F8EE10E942E0389818130E1
S11303C079F4809155018F5F8093550106C0BE0179
S11303D06F5F7F4F8EE10E942E0389818130B9F3D4
S11303E08091550180FF04C080915501811119C08D
S11303F080915801811115C060E00E94AC048DE029
S113040091E00E94990460E081E00E94AC048BE1D9
S113041091E00E94990481E0809358011092570161
S11304201DC080915701811119C08091550180FF31
S113043015C060E080E00E94AC048DE091E00E9471
S1130440990460E081E00E94AC0481E291E00E94A2
S1130450990481E0809357011092580180917501AD
S1130460882309F4A5CF2FEF89E698E12150804035
S11304709040E1F700C0000081E08093600010929A
S11304807501109271011092720110927301109211
S1130490740110926700109251011092520110924F
S11304A05301109254010F90DF91CF9108950E944F
S11304B025050E94770478940E94AE090E944205A3
S11304C00E9477040E944D0362E08EE10E94EA05D7
S11304D00E94FB060E94BE050E948C0B89E490E0FA
S11304E00E94980B08950E949201B3C00E948B0051
S11304F080E891E00E94C105809180019091810182
S113050087349105B0F080917501811112C00E9469
S1130510A80081E0809367008AE592E6A2E0B0E05B
S11305208093710190937201A0937301B09374014D
S113053090C080917501813051F480918001909137
S113054081018734910518F00E94CE0082C0809109
S113055080019091810187349105F8F480918001A4
S1130560909181014F97C8F010927501109271011A
S11305701092720110927301109274011092510141
S1130580109252011092530110925401109267007C
S1130590109250010E94A8005CC08091800190914B
S11305A081014F9708F049C08091800190918101A9
S11305B0459708F442C00E946C0181E08093670073
S11305C01092510110925201109253011092540151
S11305D084E294EFA0E0B0E0809371019093720103
S11305E0A0937301B09374010E94F40010927501FA
S11305F010927101109272011092730110927401A1
S113060010926700809150018F5F80935001843075
S113061001F506C080E891E00E94C1050E946C01CA
S113062080918001909181014F9798F4809180018D
S113063090918101459770F70CC080918001909151
S11306408101459730F4109250010E946C010E9480
S1130650390180916000811149CF08950F931F9350
S1130660CF93DF931F92CDB7DEB78B011982BE0102
S11306706F5F7F4F0E94A007811105C08981F80137
S1130680808381E004C08981F801808380E00F9039
S1130690DF91CF911F910F91089561E088E10E944D
S11306A00B0761E089E10E940B0761E08AE10E9487
S11306B00B0761E084E00E940B0761E085E00E9483
S11306C00B0761E086E00E940B0780E00895CF925B
S11306D0DF92EF92FF920F931F93CF93DF938C01DE
S11306E0D0E039C0CD2ED12CF601EF59FF4F60E098
S11306F080810E940B07C0E024C0EC2EF12CF7018E
S1130700EC59FF4FB80180810E94A007F801808155
S1130710811116C0C601880F991F8C0D9D1D895D1E
S11307209E4FFC01EE0DFF1D8081F8018083F601D0
S1130730EF59FF4F61E080810E940B0780E00EC0FB
S1130740CF5FC330D0F2F601EF59FF4F61E08081F3
S11307500E940B07DF5FD33028F281E0DF91CF9155
S11307601F910F91FF90EF90DF90CF900895CF935A
S1130770C82F60E081E10E940B076C2F661F66277B
S1130780661F87E10E940B07C6FB662760F986E1B6
S11307900E940B07C5FB662760F985E10E940B07E1
S11307A0C4FB662760F984E10E940B0761E083E1E2
S11307B00E940B078FE99FE00197F1F700C000004A
S11307C060E083E10E940B078FE99FE00197F1F756
S11307D000C00000C3FB662760F987E10E940B0795
S11307E0C2FB662760F986E10E940B07C1FB6627FE
S11307F060F985E10E940B076C2F617084E10E940F
S11308000B0761E083E10E940B078FE99FE00197EA
S1130810F1F700C0000060E083E10E940B078FE95C
S11308209FE00197F1F700C00000CF910895CF93A6
S1130830C82F61E081E10E940B076C2F661F6627B9
S1130840661F87E10E940B07C6FB662760F986E1F5
S11308500E940B07C5FB662760F985E10E940B0720
S1130860C4FB662760F984E10E940B0761E083E121
S11308700E940B078FE99FE00197F1F700C0000089
S113088060E083E10E940B078FE99FE00197F1F795
S113089000C00000C3FB662760F987E10E940B07D4
S11308A0C2FB662760F986E10E940B07C1FB66273D
S11308B060F985E10E940B076C2F617084E10E944E
S11308C00B0761E083E10E940B078FE99FE001972A
S11308D0F1F700C0000060E083E10E940B078FE99C
S11308E09FE00197F1F700C00000CF9108952FEF2A
S11308F080E792E0215080409040E1F700C0000082
S113090082E00E94B70388E20E94B7038CE00E9451
S1130910B70381E00E94B7038FE99FE00197F1F7E5
S113092000C0000086E00E94B70308950E941704E7
S113093008950F931F93CF938C01C0E003C00E94CE
S11309409604CF5FF801EC0FF11D80818111F7CF80
S1130950CF911F910F910895811105C0862F806852
S11309600E94B7030895813021F480EC860F0E9421
S1130970B703089581E00E94B7038FE99FE00197D0
S1130980F1F700C000000895CF92DF92EF92FF923A
S11309901F93CF93DF93CDB7DEB72A970FB6F894A2
S11309A0DEBF0FBECDBF6B017C01611571058105F2
S11309B0910521F480E30E94960439C099235CF4E4
S11309C0F094E094D094C094C11CD11CE11CF11C9F
S11309D08DE20E94960410E015C0C701B6012AE01A
S11309E030E040E050E00E94CF0DE1E0F0E0EC0F99
S11309F0FD1FE10FF11D605D60831F5FC22ED32ECA
S1130A00E42EF52EC114D104E104F10431F70DC034
S1130A10E12FF0E0319781E090E08C0F9D1FE80F0B
S1130A20F91F80810E94960411501111F1CF2A966A
S1130A300FB6F894DEBF0FBECDBFDF91CF911F91EB
S1130A40FF90EF90DF90CF90089560E081E10E94E5
S1130A50EA0560E083E10E94EA0560E082E10E9429
S1130A60EA0560E084E10E94EA0560E085E10E9415
S1130A70EA0560E086E10E94EA0560E087E10E9401
S1130A80EA05089560E080E00E94EA0560E081E004
S1130A900E94EA0560E082E00E94EA0560E083E0EB
S1130AA00E94EA0580E0089560E080E00E940B0760
S1130AB061E081E00E940B0760E082E00E940B0786
S1130AC061E083E00E940B0780E0089561E080E02C
S1130AD00E940B0760E081E00E940B0761E082E066
S1130AE00E940B0760E083E00E940B0780E00895FA
S1130AF060E080E00E940B0760E081E00E940B0749
S1130B0060E082E00E940B0760E083E00E940B0734
S1130B1080E0089561E080E00E940B0760E081E0DE
S1130B200E940B0760E082E00E940B0761E083E013
S1130B300E940B0780E0089560E080E00E940B07AC
S1130B4061E081E00E940B0761E082E00E940B07F4
S1130B5060E083E00E940B0780E0089561E08BE091
S1130B600E940B078AE18A95F1F700C060E08BE0F0
S1130B700E940B0780E00E94510B08950E940D080B
S1130B8008950F931F93CF93DF9300D0CDB7DEB7B3
S1130B908C010E94AE05CE0101960E941E08298197
S1130BA03A81AFE9B6E40E94EE0D929582958F707A
S1130BB089279F708927F801918380830F900F9074
S1130BC0DF91CF911F910F9108950E9457020E94C7
S1130BD07302FDCF982F9695969596958770613000
S1130BE009F459C020F0623009F4A9C0FCC0913066
S1130BF0C9F028F0923049F19330D1F1F6C04AB3EC
S1130C0021E030E0B90102C0660F771F8A95E2F750
S1130C10CB01942F982B9ABB9BB3809589238BBBD4
S1130C2080E0089547B321E030E0B90102C0660FC7
S1130C30771F8A95E2F7CB01942F982B97BB98B333
S1130C408095892388BB80E0089544B321E030E097
S1130C50B90102C0660F771F8A95E2F7CB01942F82
S1130C60982B94BB95B38095892385BB80E0089528
S1130C7041B321E030E0B90102C0660F771F8A95C5
S1130C80E2F7CB01942F982B91BB92B380958923E3
S1130C9082BB80E008959130C9F028F0923049F188
S1130CA09330D1F1A4C04AB321E030E0B90102C0CD
S1130CB0660F771F8A95E2F7CB018095942F9823CE
S1130CC09ABB9BB389238BBB80E0089547B321E093
S1130CD030E0B90102C0660F771F8A95E2F7CB01B5
S1130CE08095942F982397BB98B3892388BB80E081
S1130CF0089544B321E030E0B90102C0660F771FC4
S1130D008A95E2F7CB018095942F982394BB95B3F1
S1130D10892385BB80E0089541B321E030E0B90127
S1130D2002C0660F771F8A95E2F7CB018095942F56
S1130D30982391BB92B3892382BB80E008959130BC
S1130D40C9F028F0923049F19330D1F152C04AB33E
S1130D5021E030E0B90102C0660F771F8A95E2F7FF
S1130D60CB01962F909594239ABB9BB3892B8BBB75
S1130D7080E0089547B321E030E0B90102C0660F76
S1130D80771F8A95E2F7CB01962F9095942397BB12
S1130D9098B3892B88BB80E0089544B321E030E008
S1130DA0B90102C0660F771F8A95E2F7CB01962F2F
S1130DB09095942394BB95B3892B85BB80E00895CB
S1130DC041B321E030E0B90102C0660F771F8A9574
S1130DD0E2F7CB01962F9095942391BB92B3892B84
S1130DE082BB80E0089581E0089581E0089581E068
S1130DF0089581E00895CF93C0E009C0EC2FF0E09E
S1130E00E05DFE4F60818C2F0E94EA05CF5FC03207
S1130E10A8F3CF910895982F9695969596958770F7
S1130E20662309F443C0613009F084C09130A1F015
S1130E3028F09230F9F0933059F17EC04BB321E0A1
S1130E4030E0B90102C0660F771F8A95E2F7CB0143
S1130E50842B8BBB80E0089548B321E030E0B901D6
S1130E6002C0660F771F8A95E2F7CB01842B88BBFB
S1130E7080E0089545B321E030E0B90102C0660F77
S1130E80771F8A95E2F7CB01842B85BB80E0089518
S1130E9042B321E030E0B90102C0660F771F8A95A2
S1130EA0E2F7CB01842B82BB80E008959130A9F056
S1130EB028F0923009F1933071F140C04BB321E036
S1130EC030E0B90102C0660F771F8A95E2F7CB01C3
S1130ED0809584238BBB80E0089548B321E030E003
S1130EE0B90102C0660F771F8A95E2F7CB0180959E
S1130EF0842388BB80E0089545B321E030E0B90144
S1130F0002C0660F771F8A95E2F7CB018095842390
S1130F1085BB80E0089542B321E030E0B90102C00E
S1130F20660F771F8A95E2F7CB018095842382BBF5
S1130F3080E0089583E0089581E0089581E00895B4
S1130F40982F96959695969587709130A1F028F0F4
S1130F509230F9F0933059F138C029B330E0A90147
S1130F6002C0559547958A95E2F7CA018170FB0145
S1130F70808380E0089526B330E0A90102C055952E
S1130F8047958A95E2F7CA018170FB01808380E06E
S1130F90089523B330E0A90102C0559547958A9579
S1130FA0E2F7CA018170FB01808380E0089520B3D9
S1130FB030E0A90102C0559547958A95E2F7CA0128
S1130FC08170FB01808380E0089581E00895809121
S1130FD0590190915A01892B79F48DE591E00E9491
S1130FE04B0B62E082E00E946B0881E090E09093FA
S1130FF05A018093590108958091590190915A01A1
S1131000019751F48BE591E00E944B0B82E090E054
S113101090935A0180935901089562E080E00E9400
S11310207C0A82E00E94590863E082E00E946B0817
S113103067EE77E082E00E94CB0808950F931F9338
S1131040CF93DF938C0163E082E00E946B0880E021
S11310500E94510B10925A011092590105C0219619
S113106082E08A95F1F700C08091590190915A016C
S1131070029720F4C83DE9E5DE0788F38091590121
S113108090915A01029779F480915B0190915C01EF
S113109020915D0130915E01821B930BF8019183D5
S11310A0808381E001C080E0DF91CF911F910F9197
S11310B00895813041F018F0823049F008958BB7DB
S11310C080648BBF08958BB780688BBF08958BB7FE
S11310D080628BBF0895813049F120F0823009F499
S11310E049C00895613069F028F0623089F06330B6
S11310F0B1F0089585B78E7F85BF85B78D7F85BF95
S1131100089585B7816085BF85B78D7F85BF0895B4
S113111085B78E7F85BF85B7826085BF089585B703
S1131120816085BF85B7826085BF0895613069F0AD
S113113028F0623089F06330B1F0089585B78B7F71
S113114085BF85B7877F85BF089585B7846085BFD0
S113115085B7877F85BF089585B78B7F85BF85B7A2
S1131160886085BF089585B7846085BF85B788602A
S113117085BF0895623019F0633029F008C084B740
S11311808F7B84BF089584B7806484BF089584B737
S11311908F7B84BF0895813049F018F0823059F074
S11311A008957093640160936301089570936201DC
S11311B06093610108957093600160935F010895E5
S11311C01F920F920FB60F9211242F933F934F93B8
S11311D05F936F937F938F939F93AF93BF93EF939B
S11311E0FF93E0916301F0916401309709F0099550
S11311F0FF91EF91BF91AF919F918F917F916F91EB
S11312005F914F913F912F910F900FBE0F901F90C0
S113121018951F920F920FB60F9211242F933F939C
S11312204F935F936F937F938F939F93AF93BF93EA
S1131230EF93FF93E0916101F0916201309709F01F
S11312400995FF91EF91BF91AF919F918F917F91FC
S11312506F915F914F913F912F910F900FBE0F901F
S11312601F9018951F920F920FB60F9211242F936F
S11312703F934F935F936F937F938F939F93AF931A
S1131280BF93EF93FF93E0915F01F091600130977A
S113129009F00995FF91EF91BF91AF919F918F91C3
S11312A07F916F915F914F913F912F910F900FBE5E
S11312B00F901F9018950F931F9386E082BF809123
S11312C0650190916601A0916701B0916801019652
S11312D0A11DB11D8093650190936601A0936701E0
S11312E0B09368010091690110916A0120916B012A
S11312F030916C01B901A8014F5F5F4F6F4F7F4F71
S113130084179507A607B70729F461E088E00E94CF
S11313100B0721C040916D0150916E0160916F01E6
S113132070917001400F511F621F731F4E5F5F4F1A
S11313306F4F7F4F84179507A607B70761F460E0E6
S113134088E00E940B0710926501109266011092CA
S11313506701109268011F910F91089560E088E081
S11313600E94EA0580E00E94260A0E94780A8BE522
S113137099E00E944A0A08958F929F92AF92BF9279
S1131380CF92DF92EF92FF92CF93C82FCB01BA0195
S11313900E94D40C9B01AC0160E070E080E89FE304
S11313A00E94330C20E034E244E759E40E94620DC9
S11313B04B015C016C2F70E080E090E00E94D60C41
S11313C0A50194010E94620D20E030E048EC52E453
S11313D00E94330C6B017C019B01AC01C501B4017B
S11313E00E94C60B4B015C0120E030E04AE753E465
S11313F0C701B6010E94330C0E94A50C60936D01D5
S113140070936E0180936F019093700120E030E03F
S11314104AE753E4C501B4010E94330C0E94A50CB1
S11314206093690170936A0180936B0190936C01DE
S113143061E088E00E940B07CF91FF90EF90DF906E
S1131440CF90BF90AF909F908F900895813069F0B6
S113145028F0823089F08330B1F0089583B78F7B10
S113146083BF83B7877F83BF089583B7806483BFB7
S113147083B7877F83BF089583B78F7B83BF83B789
S1131480886083BF089583B7806483BF83B788600F
S113149083BF089590937F0180937E0108951F92E6
S11314A00F920FB60F9211242F933F934F935F9394
S11314B06F937F938F939F93AF93BF93EF93FF9318
S11314C0E0917E01F0917F01309709F00995FF9139
S11314D0EF91BF91AF919F918F917F916F915F91A8
S11314E04F913F912F910F900FBE0F901F90189521
S11314F089B7816089BF0895823029F128F488234F
S113150041F0813099F045C0833051F18430A9F124
S113151040C08FB58E7F8FBD8FB58D7F8FBD8EB54B
S1131520877F8EBD8EB58F7E8EBD33C08FB58E7F87
S11315308FBD8FB58D7F8FBD8EB588608EBD8EB506
S113154080618EBD26C08FB58E7F8FBD8FB58D7F98
S11315508FBD8EB588608EBD8EB58F7E8EBD19C051
S11315608FB58E7F8FBD8FB582608FBD8EB588603D
S11315708EBD8EB580618EBD0CC08FB581608FBD70
S11315808FB582608FBD8EB588608EBD8EB580614B
S11315908EBD8EB5887F8EBD8EB5682B6EBD0895C9
S11315A01F920F920FB60F9211242F933F934F93D4
S11315B05F936F937F938F939F93AF93BF93EF93B7
S11315C0FF93E0917C01F0917D01309709F009953A
S11315D0FF91EF91BF91AF919F918F917F916F9107
S11315E05F914F913F912F910F900FBE0F901F90DD
S11315F018951F920F920FB60F9211242F933F93B9
S11316004F935F936F937F938F939F93AF93BF9306
S1131610EF93FF93E0917A01F0917B01309709F009
S11316200995FF91EF91BF91AF919F918F917F9118
S11316306F915F914F913F912F910F900FBE0F903B
S11316401F9018951F920F920FB60F9211242F938B
S11316503F934F935F936F937F938F939F93AF9336
S1131660BF93EF93FF93E0917801F0917901309764
S113167009F00995FF91EF91BF91AF919F918F91DF
S11316807F916F915F914F913F912F910F900FBE7A
S11316900F901F9018952CB53DB5FC013183208324
S11316A0089590E09DBD8CBD0895813069F028F0C7
S11316B0823089F08330B1F0089585B58F7B85BD84
S11316C085B5877F85BD089585B5806485BD85B55D
S11316D0877F85BD089585B58F7B85BD85B5886079
S11316E085BD089585B5806485BD85B5886085BD53
S11316F0089584BD84E00895883040F495B5987FBA
S113170095BD95B5892B85BD84E0089580E0089545
S113171089B7806489BF08950E94880B80E00E9485
S1131720550B80E00E94790B81E00E947C0B0895A8
S1131730909377018093760108951F920F920FB6CC
S11317400F9211242F933F934F935F936F937F9343
S11317508F939F93AF93BF93EF93FF93E0917601A1
S1131760F0917701309709F00995FF91EF91BF91BE
S1131770AF919F918F917F916F915F914F913F9125
S11317802F910F900FBE0F901F9018955058BB27A4
S1131790AA270E94DE0B0C94280D0E941A0D38F023
S11317A00E94210D20F039F49F3F19F426F40C9483
S11317B0170D0EF4E095E7FB0C94110DE92F0E9430
S11317C0390D58F3BA17620773078407950720F099
S11317D079F4A6F50C945B0D0EF4E0950B2EBA2F5C
S11317E0A02D0B01B90190010C01CA01A001112423
S11317F0FF27591B99F0593F50F4503E68F11A16CF
S1131800F040A22F232F342F4427585FF3CF46955F
S113181037952795A795F0405395C9F77EF41F1681
S1131820BA0B620B730B840BBAF09150A1F0FF0F4B
S1131830BB1F661F771F881FC2F70EC0BA0F621F37
S1131840731F841F48F4879577956795B795F79527
S11318509E3F08F0B0CF9395880F08F09927EE0FBC
S11318609795879508950E94470C0C94280D0E9423
S1131870210D58F00E941A0D40F029F45F3F29F021
S11318800C94110D51110C945C0D0C94170D0E94C5
S1131890390D68F39923B1F3552391F3951B550B37
S11318A0BB27AA2762177307840738F09F5F5F4F2F
S11318B0220F331F441FAA1FA9F335D00E2E3AF06E
S11318C0E0E832D091505040E695001CCAF72BD086
S11318D0FE2F29D0660F771F881FBB1F26173707D7
S11318E04807AB07B0E809F0BB0B802DBF01FF2709
S11318F093585F4F3AF09E3F510578F00C94110DC8
S11319000C945C0D5F3FE4F3983ED4F38695779591
S11319106795B795F7959F5FC9F7880F911D9695C1
S1131920879597F90895E1E0660F771F881FBB1F1D
S1131930621773078407BA0720F0621B730B840BCA
S1131940BA0BEE1F88F7E09508950E94410D88F0C8
S11319509F5798F0B92F9927B751B0F0E1F0660F6F
S1131960771F881F991F1AF0BA95C9F714C0B130B0
S113197091F00E945B0DB1E008950C945B0D672F0C
S1131980782F8827B85F39F0B93FCCF386957795DF
S11319906795B395D9F73EF49095809570956195C8
S11319A07F4F8F4F9F4F0895E89409C097FB3EF4F3
S11319B090958095709561957F4F8F4F9F4F992398
S11319C0A9F0F92F96E9BB279395F6958795779516
S11319D06795B795F111F8CFFAF4BB0F11F460FFD6
S11319E01BC06F5F7F4F8F4F9F4F16C0882311F02E
S11319F096E911C0772321F09EE8872F762F05C042
S1131A00662371F096E8862F70E060E02AF09A95DC
S1131A10660F771F881FDAF7880F9695879597F9D1
S1131A20089597F99F6780E870E060E008959FEF5C
S1131A3080EC089500240A94161617061806090661
S1131A40089500240A941216130614060506089530
S1131A50092E0394000C11F4882352F0BB0F40F4B8
S1131A60BF2B11F460FF04C06F5F7F4F8F4F9F4FF8
S1131A70089557FD9058440F551F59F05F3F71F07A
S1131A804795880F97FB991F61F09F3F79F08795E1
S1131A900895121613061406551FF2CF4695F1DF6A
S1131AA008C0161617061806991FF1CF86957105FA
S1131AB0610508940895E894BB2766277727CB012E
S1131AC097F908950E94750D0C94280D0E941A0D23
S1131AD038F00E94210D20F0952311F00C94110D83
S1131AE00C94170D11240C945C0D0E94390D70F3A5
S1131AF0959FC1F3950F50E0551F629FF001729FAF
S1131B00BB27F00DB11D639FAA27F00DB11DAA1FBD
S1131B10649F6627B00DA11D661F829F2227B00D0A
S1131B20A11D621F739FB00DA11D621F839FA00D95
S1131B30611D221F749F3327A00D611D231F849FE5
S1131B40600D211D822F762F6A2F11249F5750403C
S1131B509AF0F1F088234AF0EE0FFF1FBB1F661FB7
S1131B60771F881F91505040A9F79E3F510580F080
S1131B700C94110D0C945C0D5F3FE4F3983ED4F388
S1131B80869577956795B795F795E7959F5FC1F724
S1131B90FE2B880F911D9695879597F90895052E2C
S1131BA097FB1EF400940E94E60D57FD07D00E9497
S1131BB0FD0D07FC03D04EF40C94E60D50954095B2
S1131BC0309521953F4F4F4F5F4F089590958095E5
S1131BD0709561957F4F8F4F9F4F0895A29FB001DD
S1131BE0B39FC001A39F700D811D1124911DB29F4D
S1131BF0700D811D1124911D0895A1E21A2EAA1BB6
S1131C00BB1BFD010DC0AA1FBB1FEE1FFF1FA217A8
S1131C10B307E407F50720F0A21BB30BE40BF50BA5
S1131C20661F771F881F991F1A9469F7609570952E
S1131C30809590959B01AC01BD01CF010895F89466
S1051C40FFCFD0
S1131C420104050618191A0153544F5050454421F2
S1131C520053706565643A333025204469723A0949
S1131C624600446973742E3A0020436D0053706534
S1131C7265643A353025204469723A094600537046
S1131C826565643A333025204469723A0952005337
S1131C92706565643A333025204469723A0942001A
S1131CA253706565643A303025204469723A0953A9
S1131CB20057454C434F4D452100707265737320A4
S1131CC23120746F207374617274005365742044FC
S1131CD2656620526F7420202020200052696768B4
S1131CE274202020202020202020202000536574EE
S1131CF2204465662E20526F742E00526967687400
S1131D02004C656674200031323334353637383945
S1131D1200000000000000000000010000000000BC
S1131D2200000000000000000202020000000102A4
S9030000FC
