:100000000C942A000C94F0080C9419090C944209E1
:100010000C9447000C94AD0B0C94320B0C944700DD
:100020000C94090B0C94E00A0C9447000C945F0AA2
:100030000C9447000C9447000C9447000C94470024
:100040000C9447000C9447000C9447000C94470014
:100050000C94470011241FBECFE5D8E0DEBFCDBF12
:1000600011E0A0E6B0E0E2E6FCE102C005900D92EE
:10007000A032B107D9F721E0A0E2B1E001C01D92A2
:10008000A235B207E1F70E94F5050C942F0E0C94EF
:1000900000000F931F93809167008130C9F5809114
:1000A000210190912201A0912301B091240140915E
:1000B00041015091420160914301709144018417C4
:1000C0009507A607B70760F40196A11DB11D80939F
:1000D000210190932201A0932301B093240118C021
:1000E00084179507A607B70799F4452B462B472B8E
:1000F00079F01092210110922201109223011092A6
:10010000240180914501811103C081E08093450164
:100110001F910F91089586E291E00E9477038091EC
:1001200026018233A1F40E94CA0464E080E00E94A8
:10013000BC0488E690E00E94A9040E94880586E23B
:1001400091E00E947703809126018133C1F70895E1
:1001500044E650E060E070E08EE10E94CC090E942D
:10016000640560E080E00E94BC0481E790E00E94AA
:10017000A90460E081E00E94BC0482E890E00E9453
:10018000A904609150017091510180E090E00E94BB
:10019000D40489E890E00E94A904089544E650E060
:1001A00060E070E082E30E94CC090E94640560E098
:1001B00080E00E94BC048DE890E00E94A90460E009
:1001C00081E00E94BC0482E890E00E94A904609152
:1001D00050017091510180E090E00E94D40489E8C0
:1001E00090E00E94A904089532C080E591E00E9449
:1001F000D1050E948B0044E650E060E070E08EE1A3
:100200000E94CC0960E080E00E94BC048EE990E08E
:100210000E94A90460E081E00E94BC0482E890E0B2
:100220000E94A904609150017091510180E090E01A
:100230000E94D40489E890E00E94A90480912501DD
:1002400080FD03C00E949A0502C00E94AC05809107
:10025000450181110DC080915001909151014F973E
:1002600038F48091500190915101459708F0BDCF2D
:1002700008952BC00E948B0080E591E00E94D1057B
:1002800044E650E060E070E08EE10E94CC090E94FC
:10029000760560E080E00E94BC048FEA90E00E9456
:1002A000A90460E081E00E94BC0482E890E00E9422
:1002B000A904609150017091510180E090E00E948A
:1002C000D40489E890E00E94A904809150019091A3
:1002D0005101459778F2089544E650E060E070E0FF
:1002E00080E00E94CC090E94880560E080E00E94C6
:1002F000BC0480EC90E00E94A90460E081E00E94D0
:10030000BC0482E890E00E94A904609150017091C1
:10031000510180E090E00E94D40489E890E00E94BE
:10032000A9040895CF93DF931F92CDB7DEB719824A
:1003300086E291E00E947703809126018133C1F724
:1003400060E080E00E94BC0481ED90E00E94A9047E
:1003500060E081E00E94BC048DED90E00E94A90461
:100360001092210110922201109223011092240177
:100370008AE592E6A2E0B0E08093410190934201C9
:10038000A0934301B093440181E08093670056C07D
:10039000BE016F5F7F4F8EE10E943E0389818130F5
:1003A00079F4809125018F5F8093250106C0BE01FD
:1003B0006F5F7F4F8EE10E943E0389818130B9F3E8
:1003C0008091250180FF04C080912501811119C011
:1003D00080912801811115C060E00E94BC0483EE69
:1003E00090E00E94A90460E081E00E94BC048DEDD1
:1003F00090E00E94A90481E08093280110922701D7
:100400001DC080912701811119C08091250180FFB5
:1004100015C060E080E00E94BC0483EE90E00E9482
:10042000A90460E081E00E94BC0481EF90E00E949A
:10043000A90481E080932701109228018091450151
:10044000882309F4A5CF2FEF89E698E12150804059
:100450009040E1F700C0000081E0809360001092BE
:1004600045011092410110924201109243011092F5
:100470004401109267001092210110922201109203
:100480002301109224010F90DF91CF9108950E94D3
:1004900035050E94870478940E94BE090E94520587
:1004A0000E9487040E945D0362E08EE10E94FA05CB
:1004B0000E940B070E94CE050E949C0B89E490E0ED
:1004C0000E94A80B08950E949201D3C00E948B0045
:1004D00080E591E00E94D1058091500190915101F9
:1004E00087349105B0F080914501811112C00E94BE
:1004F000A80081E0809367008AE592E6A2E0B0E080
:100500008093410190934201A0934301B093440131
:10051000B0C080914501813051F48091500190919B
:1005200051018734910518F00E94CE00A2C080913D
:1005300050019091510187349105E8F48091500168
:10054000909151014F97B8F01092450110924101DE
:100550001092420110924301109244011092210125
:100560001092220110922301109224011092670030
:100570000E94A8007EC080915001909151014F9738
:1005800008F06DC08091500190915101459708F499
:1005900066C00E946C0181E0809367001092210187
:1005A00010922201109223011092240184E294EF10
:1005B000A0E0B0E08093410190934201A0934301F9
:1005C000B09344010E94F400109245011092410141
:1005D0001092420110924301109244011092670060
:1005E000809120018F5F80932001843009F041C009
:1005F00029C080E591E00E94D10544E650E060E02A
:1006000070E080E00E94CC090E94880560E080E0F4
:100610000E94BC0480EC90E00E94A90460E081E0AC
:100620000E94BC0482E890E00E94A90460915001FD
:100630007091510180E090E00E94D40489E890E03C
:100640000E94A90480915001909151014F9788F424
:100650008091500190915101459758F60AC08091C0
:10066000500190915101459720F40E946C010E9425
:10067000390180916000811129CF08950F931F9354
:10068000CF93DF931F92CDB7DEB78B011982BE01E6
:100690006F5F7F4F0E94B007811105C08981F8010B
:1006A000808381E004C08981F801808380E00F901D
:1006B000DF91CF911F910F91089561E088E10E9431
:1006C0001B0761E089E10E941B0761E08AE10E944B
:1006D0001B0761E084E00E941B0761E085E00E9447
:1006E0001B0761E086E00E941B0780E00895CF921F
:1006F000DF92EF92FF920F931F93CF93DF938C01C2
:10070000D0E039C0CD2ED12CF601EF59FF4F60E07B
:1007100080810E941B07C0E024C0EC2EF12CF70161
:10072000EC59FF4FB80180810E94B007F801808129
:10073000811116C0C601880F991F8C0D9D1D89500F
:100740009F4FFC01EE0DFF1D8081F8018083F601B3
:10075000EF59FF4F61E080810E941B0780E00EC0CF
:10076000CF5FC330D0F2F601EF59FF4F61E08081D7
:100770000E941B07DF5FD33028F281E0DF91CF9129
:100780001F910F91FF90EF90DF90CF900895CF933E
:10079000C82F60E081E10E941B076C2F661F66274F
:1007A000661F87E10E941B07C6FB662760F986E18A
:1007B0000E941B07C5FB662760F985E10E941B07A5
:1007C000C4FB662760F984E10E941B0761E083E1B6
:1007D0000E941B078FE99FE00197F1F700C000001E
:1007E00060E083E10E941B078FE99FE00197F1F72A
:1007F00000C00000C3FB662760F987E10E941B0769
:10080000C2FB662760F986E10E941B07C1FB6627D1
:1008100060F985E10E941B076C2F617084E10E94E2
:100820001B0761E083E10E941B078FE99FE00197AE
:10083000F1F700C0000060E083E10E941B078FE930
:100840009FE00197F1F700C00000CF910895CF938A
:10085000C82F61E081E10E941B076C2F661F66278D
:10086000661F87E10E941B07C6FB662760F986E1C9
:100870000E941B07C5FB662760F985E10E941B07E4
:10088000C4FB662760F984E10E941B0761E083E1F5
:100890000E941B078FE99FE00197F1F700C000005D
:1008A00060E083E10E941B078FE99FE00197F1F769
:1008B00000C00000C3FB662760F987E10E941B07A8
:1008C000C2FB662760F986E10E941B07C1FB662711
:1008D00060F985E10E941B076C2F617084E10E9422
:1008E0001B0761E083E10E941B078FE99FE00197EE
:1008F000F1F700C0000060E083E10E941B078FE970
:100900009FE00197F1F700C00000CF9108952FEF0D
:1009100080E792E0215080409040E1F700C0000065
:1009200082E00E94C70388E20E94C7038CE00E9415
:10093000C70381E00E94C7038FE99FE00197F1F7A9
:1009400000C0000086E00E94C70308950E942704AB
:1009500008950F931F93CF938C01C0E003C00E94B2
:10096000A604CF5FF801EC0FF11D80818111F7CF54
:10097000CF911F910F910895811105C0862F806836
:100980000E94C7030895813021F480EC860F0E94F5
:10099000C703089581E00E94C7038FE99FE0019794
:1009A000F1F700C000000895CF92DF92EF92FF921E
:1009B0001F93CF93DF93CDB7DEB72A970FB6F89486
:1009C000DEBF0FBECDBF6B017C01611571058105D6
:1009D000910521F480E30E94A60439C099235CF4B8
:1009E000F094E094D094C094C11CD11CE11CF11C83
:1009F0008DE20E94A60410E015C0C701B6012AE0EE
:100A000030E040E050E00E94DF0DE1E0F0E0EC0F6C
:100A1000FD1FE10FF11D605D60831F5FC22ED32EAD
:100A2000E42EF52EC114D104E104F10431F70DC018
:100A3000E12FF0E0319781E090E08C0F9D1FE80FEF
:100A4000F91F80810E94A60411501111F1CF2A963E
:100A50000FB6F894DEBF0FBECDBFDF91CF911F91CF
:100A6000FF90EF90DF90CF90089560E081E10E94C9
:100A7000FA0560E083E10E94FA0560E082E10E94ED
:100A8000FA0560E084E10E94FA0560E085E10E94D9
:100A9000FA0560E086E10E94FA0560E087E10E94C5
:100AA000FA05089560E080E00E94FA0560E081E0C8
:100AB0000E94FA0560E082E00E94FA0560E083E0AF
:100AC0000E94FA0580E0089560E080E00E941B0724
:100AD00061E081E00E941B0760E082E00E941B074A
:100AE00061E083E00E941B0780E0089561E080E000
:100AF0000E941B0760E081E00E941B0761E082E02A
:100B00000E941B0760E083E00E941B0780E00895BD
:100B100060E080E00E941B0760E081E00E941B070C
:100B200060E082E00E941B0760E083E00E941B07F8
:100B300080E0089561E080E00E941B0760E081E0B2
:100B40000E941B0760E082E00E941B0761E083E0D7
:100B50000E941B0780E0089560E080E00E941B0770
:100B600061E081E00E941B0761E082E00E941B07B8
:100B700060E083E00E941B0780E0089561E08BE065
:100B80000E941B078AE18A95F1F700C060E08BE0C4
:100B90000E941B0780E00E94610B08950E941D08BF
:100BA00008950F931F93CF93DF9300D0CDB7DEB797
:100BB0008C010E94BE05CE0101960E942E0829815B
:100BC0003A81AFE9B6E40E94FE0D929582958F704E
:100BD00089279F708927F801918380830F900F9058
:100BE000DF91CF911F910F9108950E9447020E94BB
:100BF0006302FDCF982F96959695969587706130F4
:100C000009F459C020F0623009F4A9C0FCC0913049
:100C1000C9F028F0923049F19330D1F1F6C04AB3CF
:100C200021E030E0B90102C0660F771F8A95E2F734
:100C3000CB01942F982B9ABB9BB3809589238BBBB8
:100C400080E0089547B321E030E0B90102C0660FAB
:100C5000771F8A95E2F7CB01942F982B97BB98B317
:100C60008095892388BB80E0089544B321E030E07B
:100C7000B90102C0660F771F8A95E2F7CB01942F66
:100C8000982B94BB95B38095892385BB80E008950C
:100C900041B321E030E0B90102C0660F771F8A95A9
:100CA000E2F7CB01942F982B91BB92B380958923C7
:100CB00082BB80E008959130C9F028F0923049F16C
:100CC0009330D1F1A4C04AB321E030E0B90102C0B1
:100CD000660F771F8A95E2F7CB018095942F9823B2
:100CE0009ABB9BB389238BBB80E0089547B321E077
:100CF00030E0B90102C0660F771F8A95E2F7CB0199
:100D00008095942F982397BB98B3892388BB80E064
:100D1000089544B321E030E0B90102C0660F771FA7
:100D20008A95E2F7CB018095942F982394BB95B3D5
:100D3000892385BB80E0089541B321E030E0B9010B
:100D400002C0660F771F8A95E2F7CB018095942F3A
:100D5000982391BB92B3892382BB80E008959130A0
:100D6000C9F028F0923049F19330D1F152C04AB322
:100D700021E030E0B90102C0660F771F8A95E2F7E3
:100D8000CB01962F909594239ABB9BB3892B8BBB59
:100D900080E0089547B321E030E0B90102C0660F5A
:100DA000771F8A95E2F7CB01962F9095942397BBF6
:100DB00098B3892B88BB80E0089544B321E030E0EC
:100DC000B90102C0660F771F8A95E2F7CB01962F13
:100DD0009095942394BB95B3892B85BB80E00895AF
:100DE00041B321E030E0B90102C0660F771F8A9558
:100DF000E2F7CB01962F9095942391BB92B3892B68
:100E000082BB80E0089581E0089581E0089581E04B
:100E1000089581E00895CF93C0E009C0EC2FF0E081
:100E2000E050FF4F60818C2F0E94FA05CF5FC032E7
:100E3000A8F3CF910895982F9695969596958770DB
:100E4000662309F443C0613009F084C09130A1F0F9
:100E500028F09230F9F0933059F17EC04BB321E085
:100E600030E0B90102C0660F771F8A95E2F7CB0127
:100E7000842B8BBB80E0089548B321E030E0B901BA
:100E800002C0660F771F8A95E2F7CB01842B88BBDF
:100E900080E0089545B321E030E0B90102C0660F5B
:100EA000771F8A95E2F7CB01842B85BB80E00895FC
:100EB00042B321E030E0B90102C0660F771F8A9586
:100EC000E2F7CB01842B82BB80E008959130A9F03A
:100ED00028F0923009F1933071F140C04BB321E01A
:100EE00030E0B90102C0660F771F8A95E2F7CB01A7
:100EF000809584238BBB80E0089548B321E030E0E7
:100F0000B90102C0660F771F8A95E2F7CB01809581
:100F1000842388BB80E0089545B321E030E0B90127
:100F200002C0660F771F8A95E2F7CB018095842374
:100F300085BB80E0089542B321E030E0B90102C0F2
:100F4000660F771F8A95E2F7CB018095842382BBD9
:100F500080E0089583E0089581E0089581E0089598
:100F6000982F96959695969587709130A1F028F0D8
:100F70009230F9F0933059F138C029B330E0A9012B
:100F800002C0559547958A95E2F7CA018170FB0129
:100F9000808380E0089526B330E0A90102C0559512
:100FA00047958A95E2F7CA018170FB01808380E052
:100FB000089523B330E0A90102C0559547958A955D
:100FC000E2F7CA018170FB01808380E0089520B3BD
:100FD00030E0A90102C0559547958A95E2F7CA010C
:100FE0008170FB01808380E0089581E00895809105
:100FF000290190912A01892B79F48DE291E00E94D8
:101000005B0B62E082E00E947B0881E090E09093BD
:101010002A018093290108958091290190912A0144
:10102000019751F48BE291E00E945B0B82E090E02B
:1010300090932A0180932901089562E080E00E9444
:101040008C0A82E00E94690863E082E00E947B08CB
:1010500067EF77E082E00E94DB0808950F931F930B
:10106000CF93DF938C0163E082E00E947B0880E0F5
:101070000E94610B10922A011092290105C021964D
:1010800082E08A95F1F700C08091290190912A01B0
:10109000029720F4C83DE9E5DE0788F38091290135
:1010A00090912A01029779F480912B0190912C0163
:1010B00020912D0130912E01821B930BF801918319
:1010C000808381E001C080E0DF91CF911F910F917B
:1010D0000895813041F018F0823049F008958BB7BF
:1010E00080648BBF08958BB780688BBF08958BB7E2
:1010F00080628BBF0895813049F120F0823009F47D
:1011000049C00895613069F028F0623089F0633099
:10111000B1F0089585B78E7F85BF85B78D7F85BF78
:10112000089585B7816085BF85B78D7F85BF089598
:1011300085B78E7F85BF85B7826085BF089585B7E7
:10114000816085BF85B7826085BF0895613069F091
:1011500028F0623089F06330B1F0089585B78B7F55
:1011600085BF85B7877F85BF089585B7846085BFB4
:1011700085B7877F85BF089585B78B7F85BF85B786
:10118000886085BF089585B7846085BF85B788600E
:1011900085BF0895623019F0633029F008C084B724
:1011A0008F7B84BF089584B7806484BF089584B71B
:1011B0008F7B84BF0895813049F018F0823059F058
:1011C0000895709334016093330108957093320150
:1011D0006093310108957093300160932F01089559
:1011E0001F920F920FB60F9211242F933F934F939C
:1011F0005F936F937F938F939F93AF93BF93EF937F
:10120000FF93E0913301F0913401309709F0099593
:10121000FF91EF91BF91AF919F918F917F916F91CE
:101220005F914F913F912F910F900FBE0F901F90A4
:1012300018951F920F920FB60F9211242F933F9380
:101240004F935F936F937F938F939F93AF93BF93CE
:10125000EF93FF93E0913101F0913201309709F063
:101260000995FF91EF91BF91AF919F918F917F91E0
:101270006F915F914F913F912F910F900FBE0F9003
:101280001F9018951F920F920FB60F9211242F9353
:101290003F934F935F936F937F938F939F93AF93FE
:1012A000BF93EF93FF93E0912F01F09130013097BE
:1012B00009F00995FF91EF91BF91AF919F918F91A7
:1012C0007F916F915F914F913F912F910F900FBE42
:1012D0000F901F9018950F931F9386E082BF809107
:1012E000350190913601A0913701B09138010196F6
:1012F000A11DB11D8093350190933601A093370154
:10130000B09338010091390110913A0120913B01CD
:1013100030913C01B901A8014F5F5F4F6F4F7F4F84
:1013200084179507A607B70729F461E088E00E94B3
:101330001B0721C040913D0150913E0160913F014A
:1013400070914001400F511F621F731F4E5F5F4F2E
:101350006F4F7F4F84179507A607B70761F460E0CA
:1013600088E00E941B0710923501109236011092FE
:101370003701109238011F910F91089560E088E0C5
:101380000E94FA0580E00E94360A0E94880A8BE6D5
:1013900099E00E945A0A08958F929F92AF92BF924D
:1013A000CF92DF92EF92FF92CF93C82FCB01BA0179
:1013B0000E94E40C9B01AC0160E070E080E89FE3D8
:1013C0000E94430C20E034E244E759E40E94720D8D
:1013D0004B015C016C2F70E080E090E00E94E60C15
:1013E000A50194010E94720D20E030E048EC52E427
:1013F0000E94430C6B017C019B01AC01C501B4014F
:101400000E94D60B4B015C0120E030E04AE753E438
:10141000C701B6010E94430C0E94B50C60933D01C8
:1014200070933E0180933F019093400120E030E0B3
:101430004AE753E4C501B4010E94430C0E94B50C75
:101440006093390170933A0180933B0190933C0182
:1014500061E088E00E941B07CF91FF90EF90DF9042
:10146000CF90BF90AF909F908F900895813069F09A
:1014700028F0823089F08330B1F0089583B78F7BF4
:1014800083BF83B7877F83BF089583B7806483BF9B
:1014900083B7877F83BF089583B78F7B83BF83B76D
:1014A000886083BF089583B7806483BF83B78860F3
:1014B00083BF089590934F0180934E0108951F922A
:1014C0000F920FB60F9211242F933F934F935F9378
:1014D0006F937F938F939F93AF93BF93EF93FF93FC
:1014E000E0914E01F0914F01309709F00995FF917D
:1014F000EF91BF91AF919F918F917F916F915F918C
:101500004F913F912F910F900FBE0F901F90189504
:1015100089B7816089BF0895823029F128F4882332
:1015200041F0813099F045C0833051F18430A9F108
:1015300040C08FB58E7F8FBD8FB58D7F8FBD8EB52F
:10154000877F8EBD8EB58F7E8EBD33C08FB58E7F6B
:101550008FBD8FB58D7F8FBD8EB588608EBD8EB5EA
:1015600080618EBD26C08FB58E7F8FBD8FB58D7F7C
:101570008FBD8EB588608EBD8EB58F7E8EBD19C035
:101580008FB58E7F8FBD8FB582608FBD8EB5886021
:101590008EBD8EB580618EBD0CC08FB581608FBD54
:1015A0008FB582608FBD8EB588608EBD8EB580612F
:1015B0008EBD8EB5887F8EBD8EB5682B6EBD0895AD
:1015C0001F920F920FB60F9211242F933F934F93B8
:1015D0005F936F937F938F939F93AF93BF93EF939B
:1015E000FF93E0914C01F0914D01309709F009957E
:1015F000FF91EF91BF91AF919F918F917F916F91EB
:101600005F914F913F912F910F900FBE0F901F90C0
:1016100018951F920F920FB60F9211242F933F939C
:101620004F935F936F937F938F939F93AF93BF93EA
:10163000EF93FF93E0914A01F0914B01309709F04D
:101640000995FF91EF91BF91AF919F918F917F91FC
:101650006F915F914F913F912F910F900FBE0F901F
:101660001F9018951F920F920FB60F9211242F936F
:101670003F934F935F936F937F938F939F93AF931A
:10168000BF93EF93FF93E0914801F09149013097A8
:1016900009F00995FF91EF91BF91AF919F918F91C3
:1016A0007F916F915F914F913F912F910F900FBE5E
:1016B0000F901F9018952CB53DB5FC013183208308
:1016C000089590E09DBD8CBD0895813069F028F0AB
:1016D000823089F08330B1F0089585B58F7B85BD68
:1016E00085B5877F85BD089585B5806485BD85B541
:1016F000877F85BD089585B58F7B85BD85B588605D
:1017000085BD089585B5806485BD85B5886085BD36
:10171000089584BD84E00895883040F495B5987F9D
:1017200095BD95B5892B85BD84E0089580E0089529
:1017300089B7806489BF08950E94980B80E00E9459
:10174000650B80E00E94890B81E00E948C0B08955C
:10175000909347018093460108951F920F920FB610
:101760000F9211242F933F934F935F936F937F9327
:101770008F939F93AF93BF93EF93FF93E0914601B5
:10178000F0914701309709F00995FF91EF91BF91D2
:10179000AF919F918F917F916F915F914F913F9109
:1017A0002F910F900FBE0F901F9018955058BB2788
:1017B000AA270E94EE0B0C94380D0E942A0D38F0D7
:1017C0000E94310D20F039F49F3F19F426F40C9457
:1017D000270D0EF4E095E7FB0C94210DE92F0E94F4
:1017E000490D58F3BA17620773078407950720F06D
:1017F00079F4A6F50C946B0D0EF4E0950B2EBA2F30
:10180000A02D0B01B90190010C01CA01A001112406
:10181000FF27591B99F0593F50F4503E68F11A16B2
:10182000F040A22F232F342F4427585FF3CF469543
:1018300037952795A795F0405395C9F77EF41F1665
:10184000BA0B620B730B840BBAF09150A1F0FF0F2F
:10185000BB1F661F771F881FC2F70EC0BA0F621F1B
:10186000731F841F48F4879577956795B795F7950B
:101870009E3F08F0B0CF9395880F08F09927EE0FA0
:101880009795879508950E94570C0C94380D0E94E7
:10189000310D58F00E942A0D40F029F45F3F29F0E5
:1018A0000C94210D51110C946C0D0C94270D0E9479
:1018B000490D68F39923B1F3552391F3951B550B0B
:1018C000BB27AA2762177307840738F09F5F5F4F13
:1018D000220F331F441FAA1FA9F335D00E2E3AF052
:1018E000E0E832D091505040E695001CCAF72BD06A
:1018F000FE2F29D0660F771F881FBB1F26173707BB
:101900004807AB07B0E809F0BB0B802DBF01FF27EC
:1019100093585F4F3AF09E3F510578F00C94210D9B
:101920000C946C0D5F3FE4F3983ED4F38695779565
:101930006795B795F7959F5FC9F7880F911D9695A5
:10194000879597F90895E1E0660F771F881FBB1F01
:10195000621773078407BA0720F0621B730B840BAE
:10196000BA0BEE1F88F7E09508950E94510D88F09C
:101970009F5798F0B92F9927B751B0F0E1F0660F53
:10198000771F881F991F1AF0BA95C9F714C0B13094
:1019900091F00E946B0DB1E008950C946B0D672FD0
:1019A000782F8827B85F39F0B93FCCF386957795C3
:1019B0006795B395D9F73EF49095809570956195AC
:1019C0007F4F8F4F9F4F0895E89409C097FB3EF4D7
:1019D00090958095709561957F4F8F4F9F4F99237C
:1019E000A9F0F92F96E9BB279395F69587957795FA
:1019F0006795B795F111F8CFFAF4BB0F11F460FFBA
:101A00001BC06F5F7F4F8F4F9F4F16C0882311F011
:101A100096E911C0772321F09EE8872F762F05C025
:101A2000662371F096E8862F70E060E02AF09A95C0
:101A3000660F771F881FDAF7880F9695879597F9B5
:101A4000089597F99F6780E870E060E008959FEF40
:101A500080EC089500240A94161617061806090645
:101A6000089500240A941216130614060506089514
:101A7000092E0394000C11F4882352F0BB0F40F49C
:101A8000BF2B11F460FF04C06F5F7F4F8F4F9F4FDC
:101A9000089557FD9058440F551F59F05F3F71F05E
:101AA0004795880F97FB991F61F09F3F79F08795C5
:101AB0000895121613061406551FF2CF4695F1DF4E
:101AC00008C0161617061806991FF1CF86957105DE
:101AD000610508940895E894BB2766277727CB0112
:101AE00097F908950E94850D0C94380D0E942A0DD7
:101AF00038F00E94310D20F0952311F00C94210D47
:101B00000C94270D11240C946C0D0E94490D70F358
:101B1000959FC1F3950F50E0551F629FF001729F92
:101B2000BB27F00DB11D639FAA27F00DB11DAA1FA1
:101B3000649F6627B00DA11D661F829F2227B00DEE
:101B4000A11D621F739FB00DA11D621F839FA00D79
:101B5000611D221F749F3327A00D611D231F849FC9
:101B6000600D211D822F762F6A2F11249F57504020
:101B70009AF0F1F088234AF0EE0FFF1FBB1F661F9B
:101B8000771F881F91505040A9F79E3F510580F064
:101B90000C94210D0C946C0D5F3FE4F3983ED4F34C
:101BA000869577956795B795F795E7959F5FC1F708
:101BB000FE2B880F911D9695879597F90895052E10
:101BC00097FB1EF400940E94F60D57FD07D00E946B
:101BD0000D0E07FC03D04EF40C94F60D5095409575
:101BE000309521953F4F4F4F5F4F089590958095C9
:101BF000709561957F4F8F4F9F4F0895A29FB001C1
:101C0000B39FC001A39F700D811D1124911DB29F30
:101C1000700D811D1124911D0895A1E21A2EAA1B99
:101C2000BB1BFD010DC0AA1FBB1FEE1FFF1FA2178C
:101C3000B307E407F50720F0A21BB30BE40BF50B89
:101C4000661F771F881F991F1A9469F76095709512
:101C5000809590959B01AC01BD01CF010895F8944A
:021C6000FFCFB4
:101C62000104050618191A0153544F5050454421D6
:101C72000053706565643A333025204469723A092D
:101C82004600446973742E3A0020436D0053706518
:101C920065643A353025204469723A09460053702A
:101CA2006565643A333025204469723A095200531B
:101CB200706565643A333025204469723A094200FE
:101CC20053706565643A303025204469723A09538D
:101CD200005365742044656620526F740052696730
:101CE200687400536574204465662E20526F742E0A
:101CF200004C65667420003132333435363738395A
:101D020000000000000000000000010000000000D0
:101D120000000000000000000202020000000102B8
:00000001FF
