S01E00004F62737461636C652D61766F6964616E63652D6361722E737265639F
S11300000C942A000C9479030C94A2030C94CB0353
S11300100C9447000C9447000C9483050C944700FF
S11300200C945A050C9431050C9447000C94040567
S11300300C9447000C9447000C9447000C94470020
S11300400C9447000C9447000C9447000C94470010
S11300500C94470011241FBECFE5D8E0DEBFCDBF0E
S113006010E0A0E6B0E0E0EFFFE002C005900D92E2
S1130070A036B107D9F720E0A0E6B0E001C01D9298
S1130080AA37B207E1F70E94CE010C94F6070C944C
S113009000000E94AD010E941C0178940E94C104DA
S11300A0089544E650E060E070E084E10E94470473
S11300B082E00E94F3040895CF93C82F60E081E0AA
S11300C00E94E4026C2F661F6627661F87E00E9469
S11300D0E402C6FB662760F986E00E94E402C5FBE1
S11300E0662760F985E00E94E402C4FB662760F994
S11300F084E00E94E40261E083E00E94E4028FE96C
S11301009FE00197F1F700C0000060E083E00E94E7
S1130110E4028FE99FE00197F1F700C00000C3FB00
S1130120662760F987E00E94E402C2FB662760F953
S113013086E00E94E402C1FB662760F985E00E9424
S1130140E4026C2F617084E00E94E40261E083E0C9
S11301500E94E4028FE99FE00197F1F700C00000DC
S113016060E083E00E94E4028FE99FE00197F1F7E9
S113017000C00000CF910895CF93C82F61E081E0C3
S11301800E94E4026C2F661F6627661F87E00E94A8
S1130190E402C6FB662760F986E00E94E402C5FB20
S11301A0662760F985E00E94E402C4FB662760F9D3
S11301B084E00E94E40261E083E00E94E4028FE9AB
S11301C09FE00197F1F700C0000060E083E00E9427
S11301D0E4028FE99FE00197F1F700C00000C3FB40
S11301E0662760F987E00E94E402C2FB662760F993
S11301F086E00E94E402C1FB662760F985E00E9464
S1130200E4026C2F617084E00E94E40261E083E008
S11302100E94E4028FE99FE00197F1F700C000001B
S113022060E083E00E94E4028FE99FE00197F1F728
S113023000C00000CF9108952FEF80E792E0215095
S113024080409040E1F700C0000082E00E945C0022
S113025088E20E945C008CE00E945C0081E00E94C5
S11302605C008FE99FE00197F1F700C0000086E091
S11302700E945C0008950E94BC000895811105C08D
S1130280862F80680E945C000895813021F480EC00
S1130290860F0E945C000895CF92DF92EF92FF9246
S11302A01F93CF93DF93CDB7DEB72A970FB6F89499
S11302B0DEBF0FBECDBF6B017C01611571058105E9
S11302C0910521F480E30E943B0139C099235CF439
S11302D0F094E094D094C094C11CD11CE11CF11C96
S11302E08DE20E943B0110E015C0C701B6012AE06F
S11302F030E040E050E00E94D707E1E0F0E0EC0F8E
S1130300FD1FE10FF11D605D60831F5FC22ED32EC0
S1130310E42EF52EC114D104E104F10431F70DC02B
S1130320E12FF0E0319781E090E08C0F9D1FE80F02
S1130330F91F80810E943B0111501111F1CF2A96BF
S11303400FB6F894DEBF0FBECDBFDF91CF911F91E2
S1130350FF90EF90DF90CF90089560E080E00E94DE
S1130360D30160E081E00E94D30160E082E00E945A
S1130370D30160E083E00E94D30160E084E00E9446
S1130380D30160E085E00E94D30160E086E00E9432
S1130390D30160E087E00E94D30108950E944900E0
S11303A00E945100FFCF982F969596959695877049
S11303B0613009F459C020F0623009F4A9C0FCC0CE
S11303C09130C9F028F0923049F19330D1F1F6C060
S11303D04AB321E030E0B90102C0660F771F8A9565
S11303E0E2F7CB01942F982B9ABB9BB3809589237A
S11303F08BBB80E0089547B321E030E0B90102C02F
S1130400660F771F8A95E2F7CB01942F982B97BB41
S113041098B38095892388BB80E0089544B321E094
S113042030E0B90102C0660F771F8A95E2F7CB016D
S1130430942F982B94BB95B38095892385BB80E03A
S1130440089541B321E030E0B90102C0660F771F7F
S11304508A95E2F7CB01942F982B91BB92B38095A8
S1130460892382BB80E008959130C9F028F092304E
S113047049F19330D1F1A4C04AB321E030E0B9018D
S113048002C0660F771F8A95E2F7CB018095942FFF
S113049098239ABB9BB389238BBB80E0089547B311
S11304A021E030E0B90102C0660F771F8A95E2F7B8
S11304B0CB018095942F982397BB98B3892388BB4D
S11304C080E0089544B321E030E0B90102C0660F32
S11304D0771F8A95E2F7CB018095942F982394BBDC
S11304E095B3892385BB80E0089541B321E030E0D2
S11304F0B90102C0660F771F8A95E2F7CB01809598
S1130500942F982391BB92B3892382BB80E00895F2
S11305109130C9F028F0923049F19330D1F152C0B2
S11305204AB321E030E0B90102C0660F771F8A9513
S1130530E2F7CB01962F909594239ABB9BB3892B1A
S11305408BBB80E0089547B321E030E0B90102C0DD
S1130550660F771F8A95E2F7CB01962F9095942327
S113056097BB98B3892B88BB80E0089544B321E0FE
S113057030E0B90102C0660F771F8A95E2F7CB011C
S1130580962F9095942394BB95B3892B85BB80E0DB
S1130590089541B321E030E0B90102C0660F771F2E
S11305A08A95E2F7CB01962F9095942391BB92B351
S11305B0892B82BB80E0089581E0089581E008954D
S11305C081E0089581E00895982F969596959695E3
S11305D08770662309F443C0613009F084C0913008
S11305E0A1F028F09230F9F0933059F17EC04BB36A
S11305F021E030E0B90102C0660F771F8A95E2F767
S1130600CB01842B8BBB80E0089548B321E030E01C
S1130610B90102C0660F771F8A95E2F7CB01842BDC
S113062088BB80E0089545B321E030E0B90102C001
S1130630660F771F8A95E2F7CB01842B85BB80E098
S1130640089542B321E030E0B90102C0660F771F7C
S11306508A95E2F7CB01842B82BB80E00895913028
S1130660A9F028F0923009F1933071F140C04BB3F6
S113067021E030E0B90102C0660F771F8A95E2F7E6
S1130680CB01809584238BBB80E0089548B321E09F
S113069030E0B90102C0660F771F8A95E2F7CB01FB
S11306A08095842388BB80E0089545B321E030E041
S11306B0B90102C0660F771F8A95E2F7CB018095D6
S11306C0842385BB80E0089542B321E030E0B90182
S11306D002C0660F771F8A95E2F7CB0180958423C9
S11306E082BB80E0089583E0089581E0089581E06D
S11306F008951F920F920FB60F9211242F933F93D8
S11307004F935F936F937F938F939F93AF93BF9315
S1130710EF93FF93E0916400F0916500309709F046
S11307200995FF91EF91BF91AF919F918F917F9127
S11307306F915F914F913F912F910F900FBE0F904A
S11307401F9018951F920F920FB60F9211242F939A
S11307503F934F935F936F937F938F939F93AF9345
S1130760BF93EF93FF93E0916200F09163003097A1
S113077009F00995FF91EF91BF91AF919F918F91EE
S11307807F916F915F914F913F912F910F900FBE89
S11307900F901F9018951F920F920FB60F9211246D
S11307A02F933F934F935F936F937F938F939F9375
S11307B0AF93BF93EF93FF93E0916000F0916100DA
S11307C0309709F00995FF91EF91BF91AF919F91F7
S11307D08F917F916F915F914F913F912F910F90E6
S11307E00FBE0F901F9018950F931F9386E082BF42
S11307F08091660090916700A0916800B0916900B3
S11308000196A11DB11D8093660090936700A0938B
S11308106800B093690000916A0010916B00209108
S11308206C0030916D00B901A8014F5F5F4F6F4FAD
S11308307F4F84179507A607B70729F461E088E07E
S11308400E94E40221C040916E0050916F006091BB
S1130850700070917100400F511F621F731F4E5F33
S11308605F4F6F4F7F4F84179507A607B70761F453
S113087060E088E00E94E402109266001092670033
S113088010926800109269001F910F9108958F9241
S11308909F92AF92BF92CF92DF92EF92FF92CF934B
S11308A0C82FCB01BA010E94BA069B01AC0160E0DB
S11308B070E080E89FE30E94190620E034E244E7F8
S11308C059E40E9448074B015C016C2F70E080E002
S11308D090E00E94BC06A50194010E94480720E014
S11308E030E048EC52E40E9419066B017C019B0144
S11308F0AC01C501B4010E94AC054B015C0120E0D0
S113090030E04AE753E4C701B6010E9419060E9489
S11309108B0660936E0070936F00809370009093C9
S113092071000E944C0120E030E04AE753E4C50125
S1130930B4010E9419060E948B0660936A007093AA
S11309406B0080936C0090936D0060E081E00E94E6
S11309503E0160916A0070916B0080916C009091EF
S11309606D000E944C0161E088E00E94E402CF9196
S1130970FF90EF90DF90CF90BF90AF909F908F90BB
S1130980089560E088E00E94D30180E00E94CF04D3
S11309900E942D0584EF93E00E94FF0408958130A6
S11309A069F028F0823089F08330B1F0089583B77C
S11309B08F7B83BF83B7877F83BF089583B78064AA
S11309C083BF83B7877F83BF089583B78F7B83BF3C
S11309D083B7886083BF089583B7806483BF83B778
S11309E0886083BF0895883040F493B7987F93BF9D
S11309F093B7892B83BF80E0089581E00895909395
S1130A0079008093780008951F920F920FB60F9289
S1130A1011242F933F934F935F936F937F938F93FF
S1130A209F93AF93BF93EF93FF93E0917800F0917E
S1130A307900309709F00995FF91EF91BF91AF913B
S1130A409F918F917F916F915F914F913F912F91E2
S1130A500F900FBE0F901F90189589B7816089BFC2
S1130A6008951F920F920FB60F9211242F933F9364
S1130A704F935F936F937F938F939F93AF93BF93A2
S1130A80EF93FF93E0917600F0917700309709F0AF
S1130A900995FF91EF91BF91AF919F918F917F91B4
S1130AA06F915F914F913F912F910F900FBE0F90D7
S1130AB01F9018951F920F920FB60F9211242F9327
S1130AC03F934F935F936F937F938F939F93AF93D2
S1130AD0BF93EF93FF93E0917400F091750030970A
S1130AE009F00995FF91EF91BF91AF919F918F917B
S1130AF07F916F915F914F913F912F910F900FBE16
S1130B000F901F9018951F920F920FB60F921124F9
S1130B102F933F934F935F936F937F938F939F9301
S1130B20AF93BF93EF93FF93E0917200F091730042
S1130B30309709F00995FF91EF91BF91AF919F9183
S1130B408F917F916F915F914F913F912F910F9072
S1130B500FBE0F901F9018955058BB27AA270E94CC
S1130B60C4050C940E070E94000738F00E94070782
S1130B7020F039F49F3F19F426F40C94FD060EF48A
S1130B80E095E7FB0C94F706E92F0E941F0758F342
S1130B90BA17620773078407950720F079F4A6F55E
S1130BA00C9441070EF4E0950B2EBA2FA02D0B01E7
S1130BB0B90190010C01CA01A0011124FF27591B9E
S1130BC099F0593F50F4503E68F11A16F040A22FA4
S1130BD0232F342F4427585FF3CF46953795279515
S1130BE0A795F0405395C9F77EF41F16BA0B620B14
S1130BF0730B840BBAF09150A1F0FF0FBB1F661F5B
S1130C00771F881FC2F70EC0BA0F621F731F841F9D
S1130C1048F4879577956795B795F7959E3F08F0C3
S1130C20B0CF9395880F08F09927EE0F9795879585
S1130C3008950E942D060C940E070E94070758F091
S1130C400E94000740F029F45F3F29F00C94F70656
S1130C5051110C9442070C94FD060E941F0768F37F
S1130C609923B1F3552391F3951B550BBB27AA2761
S1130C7062177307840738F09F5F5F4F220F331F9B
S1130C80441FAA1FA9F335D00E2E3AF0E0E832D063
S1130C9091505040E695001CCAF72BD0FE2F29D066
S1130CA0660F771F881FBB1F261737074807AB0738
S1130CB0B0E809F0BB0B802DBF01FF2793585F4FAD
S1130CC03AF09E3F510578F00C94F7060C944207D5
S1130CD05F3FE4F3983ED4F3869577956795B7958F
S1130CE0F7959F5FC9F7880F911D9695879597F99A
S1130CF00895E1E0660F771F881FBB1F6217730713
S1130D008407BA0720F0621B730B840BBA0BEE1F27
S1130D1088F7E09508950E94270788F09F5798F078
S1130D20B92F9927B751B0F0E1F0660F771F881FEC
S1130D30991F1AF0BA95C9F714C0B13091F00E9406
S1130D404107B1E008950C944107672F782F882755
S1130D50B85F39F0B93FCCF3869577956795B3952D
S1130D60D9F73EF490958095709561957F4F8F4F9C
S1130D709F4F0895E89409C097FB3EF490958095A1
S1130D80709561957F4F8F4F9F4F9923A9F0F92F4D
S1130D9096E9BB279395F695879577956795B795CB
S1130DA0F111F8CFFAF4BB0F11F460FF1BC06F5FB1
S1130DB07F4F8F4F9F4F16C0882311F096E911C0C3
S1130DC0772321F09EE8872F762F05C0662371F0E4
S1130DD096E8862F70E060E02AF09A95660F771FF8
S1130DE0881FDAF7880F9695879597F9089597F9EC
S1130DF09F6780E870E060E008959FEF80EC0895BD
S1130E0000240A94161617061806090608950024E5
S1130E100A9412161306140605060895092E03945F
S1130E20000C11F4882352F0BB0F40F4BF2B11F4D3
S1130E3060FF04C06F5F7F4F8F4F9F4F089557FD32
S1130E409058440F551F59F05F3F71F04795880F34
S1130E5097FB991F61F09F3F79F0879508951216CB
S1130E6013061406551FF2CF4695F1DF08C0161677
S1130E7017061806991FF1CF869571056105089428
S1130E800895E894BB2766277727CB0197F908953F
S1130E900E945B070C940E070E94000738F00E9422
S1130EA0070720F0952311F00C94F7060C94FD0627
S1130EB011240C9442070E941F0770F3959FC1F3FD
S1130EC0950F50E0551F629FF001729FBB27F00DF4
S1130ED0B11D639FAA27F00DB11DAA1F649F662749
S1130EE0B00DA11D661F829F2227B00DA11D621F98
S1130EF0739FB00DA11D621F839FA00D611D221F52
S1130F00749F3327A00D611D231F849F600D211D35
S1130F10822F762F6A2F11249F5750409AF0F1F0B8
S1130F2088234AF0EE0FFF1FBB1F661F771F881F21
S1130F3091505040A9F79E3F510580F00C94F7065C
S1130F400C9442075F3FE4F3983ED4F3869577957B
S1130F506795B795F795E7959F5FC1F7FE2B880FC7
S1130F60911D9695879597F90895A1E21A2EAA1BCB
S1130F70BB1BFD010DC0AA1FBB1FEE1FFF1FA21745
S1130F80B307E407F50720F0A21BB30BE40BF50B42
S1130F90661F771F881F991F1A9469F760957095CB
S1130FA0809590959B01AC01BD01CF010895052E5C
S1130FB097FB1EF400940E94EE0757FD07D00E9491
S1130FC0B50707FC03D04EF40C94EE0750954095FA
S1130FD0309521953F4F4F4F5F4F089590958095E1
S1130FE0709561957F4F8F4F9F4F0895F894FFCF71
S9030000FC
