S01E00004F62737461636C652D61766F6964616E63652D6361722E737265639F
S11300000C942A000C9470040C9499040C94C2046B
S11300100C9447000C94A3060C947A060C944700A5
S11300200C9451060C9428060C9447000C94FB0580
S11300300C9447000C9447000C9447000C94470020
S11300400C9447000C9447000C9447000C94470010
S11300500C94470011241FBECFE5D8E0DEBFCDBF0E
S113006010E0A0E6B0E0E4E9F2E102C005900D92F0
S1130070A037B107D9F720E0A0E7B0E001C01D9296
S1130080A539B207E1F70E947C020C9448090C944C
S113009000000E943B020E94A00178940E943E0549
S11300A00E9458020E94A0010E94760062E08EE144
S11300B00E948302089544E650E060E070E08AE51F
S11300C00E944C0582E00E94EA050E946A0208959B
S11300D084E990E00E9490000E94D0016091940015
S11300E070E080E090E00E94DA01089561E088E128
S11300F00E94940361E089E10E94940361E08AE133
S11301000E94940361E08BE10E94940361E08CE11E
S11301100E94940361E08DE10E94940380E00895BD
S1130120CF92DF92EF92FF920F931F93CF93DF93BF
S11301308C01D0E039C0CD2ED12CF601E05AFF4F0E
S113014060E080810E949403C0E024C0EC2EF12C76
S1130150F701ED59FF4FB80180810E942904F8018D
S11301608081811116C0C601880F991F8C0D9D1DB9
S11301708A599F4FFC01EE0DFF1D8081F801808399
S1130180F601E05AFF4F61E080810E94940380E011
S11301900EC0CF5FC330D0F2F601E05AFF4F61E0EA
S11301A080810E949403DF5FD33028F281E0DF91E5
S11301B0CF911F910F91FF90EF90DF90CF90089512
S11301C0CF93C82F60E081E10E9494036C2F661FD7
S11301D06627661F87E10E949403C6FB662760F9C1
S11301E086E10E949403C5FB662760F985E10E94BD
S11301F09403C4FB662760F984E10E94940361E0E0
S113020083E10E9494038FE99FE00197F1F700C016
S1130210000060E083E10E9494038FE99FE001976E
S1130220F1F700C00000C3FB662760F987E10E9474
S11302309403C2FB662760F986E10E949403C1FB24
S1130240662760F985E10E9494036C2F617084E154
S11302500E94940361E083E10E9494038FE99FE08C
S11302600197F1F700C0000060E083E10E9494036D
S11302708FE99FE00197F1F700C00000CF91089546
S1130280CF93C82F61E081E10E9494036C2F661F15
S11302906627661F87E10E949403C6FB662760F900
S11302A086E10E949403C5FB662760F985E10E94FC
S11302B09403C4FB662760F984E10E94940361E01F
S11302C083E10E9494038FE99FE00197F1F700C056
S11302D0000060E083E10E9494038FE99FE00197AE
S11302E0F1F700C00000C3FB662760F987E10E94B4
S11302F09403C2FB662760F986E10E949403C1FB64
S1130300662760F985E10E9494036C2F617084E193
S11303100E94940361E083E10E9494038FE99FE0CB
S11303200197F1F700C0000060E083E10E949403AC
S11303308FE99FE00197F1F700C00000CF91089585
S11303402FEF80E792E0215080409040E1F700C019
S1130350000082E00E94E00088E20E94E0008CE05D
S11303600E94E00081E00E94E0008FE99FE0019795
S1130370F1F700C0000086E00E94E00008950E94AA
S113038040010895811105C0862F80680E94E00015
S11303900895813021F480EC860F0E94E0000895D6
S11303A081E00E94E0008FE99FE00197F1F700C02F
S11303B000000895CF92DF92EF92FF921F93CF93A4
S11303C0DF93CDB7DEB72A970FB6F894DEBF0FBE22
S11303D0CDBF6B017C01611571058105910521F487
S11303E080E30E94BF0139C099235CF4F094E09447
S11303F0D094C094C11CD11CE11CF11C8DE20E945C
S1130400BF0110E015C0C701B6012AE030E040E0AA
S113041050E00E942909E1E0F0E0EC0FFD1FE10F3C
S1130420F11D605D60831F5FC22ED32EE42EF52E76
S1130430C114D104E104F10431F70DC0E12FF0E05F
S1130440319781E090E08C0F9D1FE80FF91F8081A8
S11304500E94BF0111501111F1CF2A960FB6F894E2
S1130460DEBF0FBECDBFDF91CF911F91FF90EF9004
S1130470DF90CF90089560E081E10E94830260E004
S113048083E10E94830260E082E10E94830260E0D3
S113049084E10E94830260E085E10E94830260E0BF
S11304A086E10E94830260E087E10E94830208954E
S11304B060E080E00E94830260E081E00E948302A9
S11304C060E082E00E94830260E083E00E94830295
S11304D080E0089560E080E00E94940361E081E0A0
S11304E00E94940360E082E00E94940361E083E050
S11304F00E94940380E008950E9449000E945B00DA
S11305000E946800FDCF982F9695969596958770D2
S1130510613009F459C020F0623009F4A9C0FCC06C
S11305209130C9F028F0923049F19330D1F1F6C0FE
S11305304AB321E030E0B90102C0660F771F8A9503
S1130540E2F7CB01942F982B9ABB9BB38095892318
S11305508BBB80E0089547B321E030E0B90102C0CD
S1130560660F771F8A95E2F7CB01942F982B97BBE0
S113057098B38095892388BB80E0089544B321E033
S113058030E0B90102C0660F771F8A95E2F7CB010C
S1130590942F982B94BB95B38095892385BB80E0D9
S11305A0089541B321E030E0B90102C0660F771F1E
S11305B08A95E2F7CB01942F982B91BB92B3809547
S11305C0892382BB80E008959130C9F028F09230ED
S11305D049F19330D1F1A4C04AB321E030E0B9012C
S11305E002C0660F771F8A95E2F7CB018095942F9E
S11305F098239ABB9BB389238BBB80E0089547B3B0
S113060021E030E0B90102C0660F771F8A95E2F756
S1130610CB018095942F982397BB98B3892388BBEB
S113062080E0089544B321E030E0B90102C0660FD0
S1130630771F8A95E2F7CB018095942F982394BB7A
S113064095B3892385BB80E0089541B321E030E070
S1130650B90102C0660F771F8A95E2F7CB01809536
S1130660942F982391BB92B3892382BB80E0089591
S11306709130C9F028F0923049F19330D1F152C051
S11306804AB321E030E0B90102C0660F771F8A95B2
S1130690E2F7CB01962F909594239ABB9BB3892BB9
S11306A08BBB80E0089547B321E030E0B90102C07C
S11306B0660F771F8A95E2F7CB01962F90959423C6
S11306C097BB98B3892B88BB80E0089544B321E09D
S11306D030E0B90102C0660F771F8A95E2F7CB01BB
S11306E0962F9095942394BB95B3892B85BB80E07A
S11306F0089541B321E030E0B90102C0660F771FCD
S11307008A95E2F7CB01962F9095942391BB92B3EF
S1130710892B82BB80E0089581E0089581E00895EB
S113072081E0089581E00895982F96959695969581
S11307308770662309F443C0613009F084C09130A6
S1130740A1F028F09230F9F0933059F17EC04BB308
S113075021E030E0B90102C0660F771F8A95E2F705
S1130760CB01842B8BBB80E0089548B321E030E0BB
S1130770B90102C0660F771F8A95E2F7CB01842B7B
S113078088BB80E0089545B321E030E0B90102C0A0
S1130790660F771F8A95E2F7CB01842B85BB80E037
S11307A0089542B321E030E0B90102C0660F771F1B
S11307B08A95E2F7CB01842B82BB80E008959130C7
S11307C0A9F028F0923009F1933071F140C04BB395
S11307D021E030E0B90102C0660F771F8A95E2F785
S11307E0CB01809584238BBB80E0089548B321E03E
S11307F030E0B90102C0660F771F8A95E2F7CB019A
S11308008095842388BB80E0089545B321E030E0DF
S1130810B90102C0660F771F8A95E2F7CB01809574
S1130820842385BB80E0089542B321E030E0B90120
S113083002C0660F771F8A95E2F7CB018095842367
S113084082BB80E0089583E0089581E0089581E00B
S11308500895982F96959695969587709130A1F066
S113086028F09230F9F0933059F138C029B330E0D0
S1130870A90102C0559547958A95E2F7CA0181708E
S1130880FB01808380E0089526B330E0A90102C013
S1130890559547958A95E2F7CA018170FB018083DB
S11308A080E0089523B330E0A90102C0559547952F
S11308B08A95E2F7CA018170FB01808380E0089584
S11308C020B330E0A90102C0559547958A95E2F717
S11308D0CA018170FB01808380E0089581E008955E
S11308E01F920F920FB60F9211242F933F934F93A1
S11308F05F936F937F938F939F93AF93BF93EF9384
S1130900FF93E0917400F0917500309709F0099518
S1130910FF91EF91BF91AF919F918F917F916F91D3
S11309205F914F913F912F910F900FBE0F901F90A9
S113093018951F920F920FB60F9211242F933F9385
S11309404F935F936F937F938F939F93AF93BF93D3
S1130950EF93FF93E0917200F0917300309709F0E8
S11309600995FF91EF91BF91AF919F918F917F91E5
S11309706F915F914F913F912F910F900FBE0F9008
S11309801F9018951F920F920FB60F9211242F9358
S11309903F934F935F936F937F938F939F93AF9303
S11309A0BF93EF93FF93E0917000F0917100309743
S11309B009F00995FF91EF91BF91AF919F918F91AC
S11309C07F916F915F914F913F912F910F900FBE47
S11309D00F901F9018950F931F9386E082BF80910C
S11309E0760090917700A0917800B09179000196FB
S11309F0A11DB11D8093760090937700A093780099
S1130A00B093790000917A0010917B0020917C00D2
S1130A1030917D00B901A8014F5F5F4F6F4F7F4F49
S1130A2084179507A607B70729F461E088E00E94B8
S1130A30940321C040917E0050917F00609180001A
S1130A4070918100400F511F621F731F4E5F5F4FF3
S1130A506F4F7F4F84179507A607B70761F460E0CF
S1130A6088E00E949403109276001092770010920E
S1130A707800109279001F910F91089560E088E04A
S1130A800E94830280E00E94C6050E9424068BEE29
S1130A9094E00E94F60508958F929F92AF92BF92C0
S1130AA0CF92DF92EF92FF92CF93C82FCB01BA017E
S1130AB00E940C089B01AC0160E070E080E89FE3B9
S1130AC00E946B0720E034E244E759E40E949A084C
S1130AD04B015C016C2F70E080E090E00E940E08F6
S1130AE0A50194010E949A0820E030E048EC52E409
S1130AF00E946B076B017C019B01AC01C501B40131
S1130B000E94FE064B015C0120E030E04AE753E41A
S1130B10C701B6010E946B070E94DD0760937E0047
S1130B2070937F0080938000909381000E94DA018B
S1130B3020E030E04AE753E4C501B4010E946B07AA
S1130B400E94DD0760937A0070937B0080937C00A1
S1130B5090937D0060E081E00E94C20160917A0080
S1130B6070917B0080917C0090917D000E94DA015D
S1130B7061E088E00E949403CF91FF90EF90DF90B2
S1130B80CF90BF90AF909F908F900895813069F07F
S1130B9028F0823089F08330B1F0089583B78F7BD9
S1130BA083BF83B7877F83BF089583B7806483BF80
S1130BB083B7877F83BF089583B78F7B83BF83B752
S1130BC0886083BF089583B7806483BF83B78860D8
S1130BD083BF0895883040F493B7987F93BF93B749
S1130BE0892B83BF84E0089580E008959093930057
S1130BF08093920008951F920F920FB60F921124C2
S1130C002F933F934F935F936F937F938F939F9310
S1130C10AF93BF93EF93FF93E0919200F091930011
S1130C20309709F00995FF91EF91BF91AF919F9192
S1130C308F917F916F915F914F913F912F910F9081
S1130C400FBE0F901F90189589B7816089BF0895D2
S1130C501F920F920FB60F9211242F933F934F932D
S1130C605F936F937F938F939F93AF93BF93EF9310
S1130C70FF93E0919000F0919100309709F009956D
S1130C80FF91EF91BF91AF919F918F917F916F9160
S1130C905F914F913F912F910F900FBE0F901F9036
S1130CA018951F920F920FB60F9211242F933F9312
S1130CB04F935F936F937F938F939F93AF93BF9360
S1130CC0EF93FF93E0918E00F0918F00309709F03D
S1130CD00995FF91EF91BF91AF919F918F917F9172
S1130CE06F915F914F913F912F910F900FBE0F9095
S1130CF01F9018951F920F920FB60F9211242F93E5
S1130D003F934F935F936F937F938F939F93AF938F
S1130D10BF93EF93FF93E0918C00F0918D00309797
S1130D2009F00995FF91EF91BF91AF919F918F9138
S1130D307F916F915F914F913F912F910F900FBED3
S1130D400F901F9018951F920F920FB60F921124B7
S1130D504F935F936F937F938F939F93AF93BF93BF
S1130D60809182008130E9F5809183009091840024
S1130D70A0918500B0918600409187005091880031
S1130D806091890070918A0084179507A607B707B8
S1130D9064F40196A11DB11D809383009093840097
S1130DA0A0938500B09386001CC084179507A607FE
S1130DB0B707B9F4452B462B472B99F010928300C3
S1130DC010928400109285001092860080918B000E
S1130DD0883020F48F5F80938B0003C081E0809380
S1130DE08B00BF91AF919F918F917F916F915F9194
S1130DF04F910F900FBE0F901F9018955058BB271E
S1130E00AA270E9416070C9460080E94520838F022
S1130E100E94590820F039F49F3F19F426F40C94E9
S1130E204F080EF4E095E7FB0C944908E92F0E9463
S1130E30710858F3BA17620773078407950720F0FF
S1130E4079F4A6F50C9493080EF4E0950B2EBA2FC2
S1130E50A02D0B01B90190010C01CA01A0011124BC
S1130E60FF27591B99F0593F50F4503E68F11A1668
S1130E70F040A22F232F342F4427585FF3CF4695F9
S1130E8037952795A795F0405395C9F77EF41F161B
S1130E90BA0B620B730B840BBAF09150A1F0FF0FE5
S1130EA0BB1F661F771F881FC2F70EC0BA0F621FD1
S1130EB0731F841F48F4879577956795B795F795C1
S1130EC09E3F08F0B0CF9395880F08F09927EE0F56
S1130ED09795879508950E947F070C9460080E9457
S1130EE0590858F00E94520840F029F45F3F29F055
S1130EF00C94490851110C9494080C944F080E94C6
S1130F00710868F39923B1F3552391F3951B550B9D
S1130F10BB27AA2762177307840738F09F5F5F4FC8
S1130F20220F331F441FAA1FA9F335D00E2E3AF007
S1130F30E0E832D091505040E695001CCAF72BD01F
S1130F40FE2F29D0660F771F881FBB1F2617370770
S1130F504807AB07B0E809F0BB0B802DBF01FF27A2
S1130F6093585F4F3AF09E3F510578F00C9449082E
S1130F700C9494085F3FE4F3983ED4F386957795F8
S1130F806795B795F7959F5FC9F7880F911D96955B
S1130F90879597F90895E1E0660F771F881FBB1FB7
S1130FA0621773078407BA0720F0621B730B840B64
S1130FB0BA0BEE1F88F7E09508950E94790888F02F
S1130FC09F5798F0B92F9927B751B0F0E1F0660F09
S1130FD0771F881F991F1AF0BA95C9F714C0B1304A
S1130FE091F00E949308B1E008950C949308672F40
S1130FF0782F8827B85F39F0B93FCCF38695779579
S11310006795B395D9F73EF4909580957095619561
S11310107F4F8F4F9F4F0895E89409C097FB3EF48C
S113102090958095709561957F4F8F4F9F4F992331
S1131030A9F0F92F96E9BB279395F69587957795AF
S11310406795B795F111F8CFFAF4BB0F11F460FF6F
S11310501BC06F5F7F4F8F4F9F4F16C0882311F0C7
S113106096E911C0772321F09EE8872F762F05C0DB
S1131070662371F096E8862F70E060E02AF09A9576
S1131080660F771F881FDAF7880F9695879597F96B
S1131090089597F99F6780E870E060E008959FEFF6
S11310A080EC089500240A941616170618060906FB
S11310B0089500240A9412161306140605060895CA
S11310C0092E0394000C11F4882352F0BB0F40F452
S11310D0BF2B11F460FF04C06F5F7F4F8F4F9F4F92
S11310E0089557FD9058440F551F59F05F3F71F014
S11310F04795880F97FB991F61F09F3F79F087957B
S11311000895121613061406551FF2CF4695F1DF03
S113111008C0161617061806991FF1CF8695710593
S1131120610508940895E894BB2766277727CB01C7
S113113097F908950E94AD080C9460080E94520823
S113114038F00E94590820F0952311F00C944908B6
S11311500C944F0811240C9494080E94710870F3A5
S1131160959FC1F3950F50E0551F629FF001729F48
S1131170BB27F00DB11D639FAA27F00DB11DAA1F57
S1131180649F6627B00DA11D661F829F2227B00DA4
S1131190A11D621F739FB00DA11D621F839FA00D2F
S11311A0611D221F749F3327A00D611D231F849F7F
S11311B0600D211D822F762F6A2F11249F575040D6
S11311C09AF0F1F088234AF0EE0FFF1FBB1F661F51
S11311D0771F881F91505040A9F79E3F510580F01A
S11311E00C9449080C9494085F3FE4F3983ED4F3BC
S11311F0869577956795B795F795E7959F5FC1F7BE
S1131200FE2B880F911D9695879597F90895A1E275
S11312101A2EAA1BBB1BFD010DC0AA1FBB1FEE1F6C
S1131220FF1FA217B307E407F50720F0A21BB30BB7
S1131230E40BF50B661F771F881F991F1A9469F733
S113124060957095809590959B01AC01BD01CF018F
S11312500895052E97FB1EF400940E94400957FD43
S113126007D00E94070907FC03D04EF40C944009F0
S113127050954095309521953F4F4F4F5F4F0895BE
S113128090958095709561957F4F8F4F9F4F0895EE
S1071290F894FFCFFC
S11312941B1C1D18191A31323334353637383900CA
S9030000FC
