S01E00004F62737461636C652D61766F6964616E63652D6361722E737265639F
S11300000C942A000C94F3060C941C070C944507DA
S11300100C9447000C94BC090C9441090C944700BF
S11300200C9418090C94EF080C9447000C946E0877
S11300300C9447000C9447000C9447000C94470020
S11300400C9447000C9447000C9447000C94470010
S11300500C94470011241FBECFE5D8E0DEBFCDBF0E
S113006010E0A0E6B0E0E0E8F8E102C005900D92EF
S1130070A43EB107D9F721E0A4EEB0E001C01D927F
S1130080A131B207E1F70E943F040C943E0C0C949A
S11300900000809162008130C9F580910D0190913A
S11300A00E01A0910F01B09110014091FC005091FC
S11300B0FD006091FE007091FF0084179507A6076C
S11300C0B70764F40196A11DB11D80930D019093AF
S11300D00E01A0930F01B0931001089584179507A2
S11300E0A607B70799F4452B462B472B79F01092B6
S11300F00D0110920E0110920F01109210018091C7
S11301000001811103C081E08093000108950E94E1
S1130110140344E650E060E070E08EE10E94CF07F3
S113012082E00E945D080E94AE0360E080E00E94CD
S1130130060383E690E00E94F30260E081E00E94FF
S1130140060384E790E00E94F30260910B01709132
S11301500C0180E090E00E941E038BE790E00E9477
S1130160F30208950E94140344E650E060E070E056
S113017082E30E94CF0782E00E945D080E94AE03E2
S113018060E080E00E9406038FE790E00E94F302A3
S113019060E081E00E94060384E790E00E94F3029D
S11301A060910B0170910C0180E090E00E941E03AD
S11301B08BE790E00E94F30208950E94140344E642
S11301C050E060E070E08EE10E94CF0782E00E9480
S11301D05D0860E080E00E94060380E990E00E94F0
S11301E0F30260E081E00E94060384E790E00E944D
S11301F0F30260910B0170910C0180E090E00E9489
S11302001E038BE790E00E94F3028091610080FD61
S113021003C00E94E40302C00E94F6032FEF8DE3A3
S113022099E4215080409040E1F700C00000089517
S11302302EC08BE091E00E941B040E94140344E64C
S113024050E060E070E08EE10E94CF0782E00E94FF
S11302505D080E94C00360E080E00E94060381EA1A
S113026090E00E94F30260E081E00E94060384E7CC
S113027090E00E94F30260910B0170910C0180E008
S113028090E00E941E038BE790E00E94F3028091AD
S11302900B0190910C01459760F208950E9414039C
S11302A044E650E060E070E080E00E94CF0782E026
S11302B00E945D080E94D20360E080E00E94060371
S11302C082EB90E00E94F30260E081E00E9406036A
S11302D084E790E00E94F30260910B0170910C019D
S11302E080E090E00E941E038BE790E00E94F302FE
S11302F008950E947F030E94D10278940E94C1074E
S11303000E949C030E94D1020E94F70162E08EE1E8
S11303100E9444040E9455050E9418040E94AB09DF
S113032089E490E00E94B70908955CC08BE091E0F5
S11303300E941B0480910B0190910C01873491055C
S1130340B0F080910001811112C00E94870081E009
S11303508093620080EA96E8A1E0B0E08093FC001C
S11303609093FD00A093FE00B093FF003BC08091EA
S11303700001813051F480910B0190910C0187347C
S1130380910518F00E94B2002DC080910B0190914C
S11303900C018734910558F480910B0190910C0164
S11303A04F9728F0109200010E9487001BC0809193
S11303B00B0190910C014F9758F480910B0190918F
S11303C00C01459728F00E944E010E94DD000AC0EE
S11303D080910B0190910C01459720F40E944E01ED
S11303E00E941801809160008111A0CF089561E0FE
S11303F088E10E94650561E089E10E94650561E08C
S11304008AE10E94650561E08BE10E94650561E077
S11304108CE10E94650561E08DE10E94650580E044
S11304200895CF93C82F60E081E10E9465056C2F89
S1130430661F6627661F87E10E946505C6FB66275F
S113044060F986E10E946505C5FB662760F985E1D0
S11304500E946505C4FB662760F984E10E94650576
S113046061E083E10E9465058FE99FE00197F1F760
S113047000C0000060E083E10E9465058FE99FE011
S11304800197F1F700C00000C3FB662760F987E11C
S11304900E946505C2FB662760F986E10E94650536
S11304A0C1FB662760F985E10E9465056C2F6170C8
S11304B084E10E94650561E083E10E9465058FE99E
S11304C09FE00197F1F700C0000060E083E10E9423
S11304D065058FE99FE00197F1F700C00000CF9117
S11304E00895CF93C82F61E081E10E9465056C2FC8
S11304F0661F6627661F87E10E946505C6FB66279F
S113050060F986E10E946505C5FB662760F985E10F
S11305100E946505C4FB662760F984E10E946505B5
S113052061E083E10E9465058FE99FE00197F1F79F
S113053000C0000060E083E10E9465058FE99FE050
S11305400197F1F700C00000C3FB662760F987E15B
S11305500E946505C2FB662760F986E10E94650575
S1130560C1FB662760F985E10E9465056C2F617007
S113057084E10E94650561E083E10E9465058FE9DD
S11305809FE00197F1F700C0000060E083E10E9462
S113059065058FE99FE00197F1F700C00000CF9156
S11305A008952FEF80E792E0215080409040E1F7DA
S11305B000C0000082E00E94110288E20E94110241
S11305C08CE00E94110281E00E9411028FE99FE0F9
S11305D00197F1F700C0000086E00E94110208951F
S11305E00E94710208950F931F93CF938C01C0E072
S11305F003C00E94F002CF5FF801EC0FF11D80816F
S11306008111F7CFCF911F910F910895811105C0EA
S1130610862F80680E9411020895813021F480ECB5
S1130620860F0E941102089581E00E9411028FE951
S11306309FE00197F1F700C000000895CF92DF9288
S1130640EF92FF921F93CF93DF93CDB7DEB72A9734
S11306500FB6F894DEBF0FBECDBF6B017C016115F0
S113066071058105910521F480E30E94F00239C0EF
S113067099235CF4F094E094D094C094C11CD11CF0
S1130680E11CF11C8DE20E94F00210E015C0C701CC
S1130690B6012AE030E040E050E00E94EE0BE1E0D9
S11306A0F0E0EC0FFD1FE10FF11D605D60831F5F43
S11306B0C22ED32EE42EF52EC114D104E104F1048C
S11306C031F70DC0E12FF0E0319781E090E08C0F1D
S11306D09D1FE80FF91F80810E94F0021150111133
S11306E0F1CF2A960FB6F894DEBF0FBECDBFDF91CF
S11306F0CF911F91FF90EF90DF90CF90089560E02D
S113070081E10E94440460E083E10E94440460E0CB
S113071082E10E94440460E084E10E94440460E0B9
S113072085E10E94440460E086E10E94440460E0A4
S113073087E10E944404089560E080E00E9444043C
S113074060E081E00E94440460E082E00E9444048E
S113075060E083E00E94440480E0089560E080E06B
S11307600E94650561E081E00E94650560E082E029
S11307700E94650561E083E00E94650580E00895BC
S113078061E080E00E94650560E081E00E9465050B
S113079061E082E00E94650560E083E00E946505F7
S11307A080E0089560E080E00E94650560E081E0FB
S11307B00E94650560E082E00E94650560E083E0D8
S11307C00E94650580E0089561E080E00E9465056F
S11307D060E081E00E94650560E082E00E946505BA
S11307E061E083E00E94650580E0089560E080E0B8
S11307F00E94650561E081E00E94650561E082E098
S11308000E94650560E083E00E94650580E008952C
S113081061E08BE00E9465058AE18A95F1F700C0EA
S113082060E08BE00E94650580E00E9470090895F5
S11308300E94200608950F931F93CF93DF9300D057
S1130840CDB7DEB78C010E940804CE0101960E9448
S1130850310629813A81AFE9B6E40E940D0C9295E4
S113086082958F7089279F708927F80191838083EF
S11308700F900F90DF91CF911F910F9108950E94D7
S113088079010E949501FDCF982F9695969596959E
S11308908770613009F459C020F0623009F4A9C0AE
S11308A0FCC09130C9F028F0923049F19330D1F175
S11308B0F6C04AB321E030E0B90102C0660F771FE9
S11308C08A95E2F7CB01942F982B9ABB9BB3809522
S11308D089238BBB80E0089547B321E030E0B90160
S11308E002C0660F771F8A95E2F7CB01942F982BED
S11308F097BB98B38095892388BB80E0089544B35F
S113090021E030E0B90102C0660F771F8A95E2F753
S1130910CB01942F982B94BB95B38095892385BBE9
S113092080E0089541B321E030E0B90102C0660FD0
S1130930771F8A95E2F7CB01942F982B91BB92B342
S11309408095892382BB80E008959130C9F028F016
S1130950923049F19330D1F1A4C04AB321E030E0A0
S1130960B90102C0660F771F8A95E2F7CB01809523
S1130970942F98239ABB9BB389238BBB80E0089563
S113098047B321E030E0B90102C0660F771F8A95B2
S1130990E2F7CB018095942F982397BB98B38923D2
S11309A088BB80E0089544B321E030E0B90102C07F
S11309B0660F771F8A95E2F7CB018095942F9823D1
S11309C094BB95B3892385BB80E0089541B321E0AE
S11309D030E0B90102C0660F771F8A95E2F7CB01B8
S11309E08095942F982391BB92B3892382BB80E096
S11309F008959130C9F028F0923049F19330D1F143
S1130A0052C04AB321E030E0B90102C0660F771F3B
S1130A108A95E2F7CB01962F909594239ABB9BB3CA
S1130A20892B8BBB80E0089547B321E030E0B90106
S1130A3002C0660F771F8A95E2F7CB01962F909537
S1130A40942397BB98B3892B88BB80E0089544B363
S1130A5021E030E0B90102C0660F771F8A95E2F702
S1130A60CB01962F9095942394BB95B3892B85BB8A
S1130A7080E0089541B321E030E0B90102C0660F7F
S1130A80771F8A95E2F7CB01962F9095942391BB1B
S1130A9092B3892B82BB80E0089581E0089581E0C0
S1130AA0089581E0089581E00895CF93C0E009C0DE
S1130AB0EC2FF0E0ED53FF4F60818C2F0E94440433
S1130AC0CF5FC032A8F3CF910895982F969596954D
S1130AD096958770662309F443C0613009F084C099
S1130AE09130A1F028F09230F9F0933059F17EC0A2
S1130AF04BB321E030E0B90102C0660F771F8A953D
S1130B00E2F7CB01842B8BBB80E0089548B321E04E
S1130B1030E0B90102C0660F771F8A95E2F7CB0176
S1130B20842B88BB80E0089545B321E030E0B9010F
S1130B3002C0660F771F8A95E2F7CB01842B85BB31
S1130B4080E0089542B321E030E0B90102C0660FAD
S1130B50771F8A95E2F7CB01842B82BB80E008954E
S1130B609130A9F028F0923009F1933071F140C02E
S1130B704BB321E030E0B90102C0660F771F8A95BC
S1130B80E2F7CB01809584238BBB80E0089548B3C2
S1130B9021E030E0B90102C0660F771F8A95E2F7C1
S1130BA0CB018095842388BB80E0089545B321E080
S1130BB030E0B90102C0660F771F8A95E2F7CB01D6
S1130BC08095842385BB80E0089542B321E030E022
S1130BD0B90102C0660F771F8A95E2F7CB018095B1
S1130BE0842382BB80E0089583E0089581E0089522
S1130BF081E008958091E4009091E500892B79F4D7
S1130C0088EE90E00E946A0962E082E00E947E061B
S1130C1081E090E09093E5008093E4000895809152
S1130C20E4009091E500019751F486EE90E00E9473
S1130C306A0982E090E09093E5008093E4000895CF
S1130C4062E080E00E949B0882E00E946C0663E000
S1130C5082E00E947E066AEF75E082E00E94DE0672
S1130C6008950F931F93CF93DF938C0163E082E089
S1130C700E947E0680E00E9470091092E5001092A6
S1130C80E40005C0219682E08A95F1F700C08091C6
S1130C90E4009091E500029720F4C83DE9E5DE0701
S1130CA088F38091E4009091E500029779F48091B3
S1130CB0E6009091E7002091E8003091E900821B62
S1130CC0930BF8019183808381E001C080E0DF9180
S1130CD0CF911F910F910895813041F018F0823027
S1130CE049F008958BB780648BBF08958BB78068F3
S1130CF08BBF08958BB780628BBF0895813049F113
S1130D0020F0823009F449C00895613069F028F078
S1130D10623089F06330B1F0089585B78E7F85BF66
S1130D2085B78D7F85BF089585B7816085BF85B7F9
S1130D308D7F85BF089585B78E7F85BF85B7826017
S1130D4085BF089585B7816085BF85B7826085BFFB
S1130D500895613069F028F0623089F06330B1F0B1
S1130D60089585B78B7F85BF85B7877F85BF089535
S1130D7085B7846085BF85B7877F85BF089585B7AC
S1130D808B7F85BF85B7886085BF089585B78460EC
S1130D9085BF85B7886085BF0895623019F06330D8
S1130DA029F008C084B78F7B84BF089584B780641A
S1130DB084BF089584B78F7B84BF0895813049F040
S1130DC018F0823059F008957093EF006093EE00AC
S1130DD008957093ED006093EC0008957093EB0018
S1130DE06093EA0008951F920F920FB60F92112498
S1130DF02F933F934F935F936F937F938F939F931F
S1130E00AF93BF93EF93FF93E091EE00F091EF0067
S1130E10309709F00995FF91EF91BF91AF919F91A0
S1130E208F917F916F915F914F913F912F910F908F
S1130E300FBE0F901F9018951F920F920FB60F922E
S1130E4011242F933F934F935F936F937F938F93CB
S1130E509F93AF93BF93EF93FF93E091EC00F091D6
S1130E60ED00309709F00995FF91EF91BF91AF9193
S1130E709F918F917F916F915F914F913F912F91AE
S1130E800F900FBE0F901F9018951F920F920FB6E0
S1130E900F9211242F933F934F935F936F937F93FC
S1130EA08F939F93AF93BF93EF93FF93E091EA00E7
S1130EB0F091EB00309709F00995FF91EF91BF9104
S1130EC0AF919F918F917F916F915F914F913F91DE
S1130ED02F910F900FBE0F901F9018950F931F9393
S1130EE086E082BF8091F0009091F100A091F20021
S1130EF0B091F3000196A11DB11D8093F000909371
S1130F00F100A093F200B093F3000091F40010916B
S1130F10F5002091F6003091F700B901A8014F5F68
S1130F205F4F6F4F7F4F84179507A607B70729F4C4
S1130F3061E088E00E94650521C04091F80050916D
S1130F40F9006091FA007091FB00400F511F621F7D
S1130F50731F4E5F5F4F6F4F7F4F84179507A60730
S1130F60B70761F460E088E00E9465051092F00024
S1130F701092F1001092F2001092F3001F910F9161
S1130F80089560E088E00E94440480E00E943908EB
S1130F900E9497088EE697E00E94690808958F9250
S1130FA09F92AF92BF92CF92DF92EF92FF92CF9334
S1130FB0C82FCB01BA010E94F30A9B01AC0160E087
S1130FC070E080E89FE30E94520A20E034E244E7A4
S1130FD059E40E94810B4B015C016C2F70E080E0AE
S1130FE090E00E94F50AA50194010E94810B20E083
S1130FF030E048EC52E40E94520A6B017C019B01F0
S1131000AC01C501B4010E94E5094B015C0120E07B
S113101030E04AE753E4C701B6010E94520A0E9435
S1131020C40A6093F8007093F9008093FA009093D7
S1131030FB0020E030E04AE753E4C501B4010E941C
S1131040520A0E94C40A6093F4007093F5008093DE
S1131050F6009093F70061E088E00E946505CF9167
S1131060FF90EF90DF90CF90BF90AF909F908F90C4
S11310700895813069F028F0823089F08330B1F02E
S1131080089583B78F7B83BF83B7877F83BF08951A
S113109083B7806483BF83B7877F83BF089583B793
S11310A08F7B83BF83B7886083BF089583B78064D1
S11310B083BF83B7886083BF0895883040F493B7B3
S11310C0987F93BF93B7892B83BF84E0089580E012
S11310D0089590930A018093090108951F920F9235
S11310E00FB60F9211242F933F934F935F936F93F7
S11310F07F938F939F93AF93BF93EF93FF93E0916D
S11311000901F0910A01309709F00995FF91EF91D7
S1131110BF91AF919F918F917F916F915F914F910B
S11311203F912F910F900FBE0F901F90189589B784
S1131130816089BF0895823029F128F4882341F021
S1131140813099F045C0833051F18430A9F140C019
S11311508FB58E7F8FBD8FB58D7F8FBD8EB5877F09
S11311608EBD8EB58F7E8EBD33C08FB58E7F8FBD05
S11311708FB58D7F8FBD8EB588608EBD8EB5806135
S11311808EBD26C08FB58E7F8FBD8FB58D7F8FBDF1
S11311908EB588608EBD8EB58F7E8EBD19C08FB51D
S11311A08E7F8FBD8FB582608FBD8EB588608EBDFA
S11311B08EB580618EBD0CC08FB581608FBD8FB53B
S11311C082608FBD8EB588608EBD8EB580618EBD08
S11311D08EB5887F8EBD8EB5682B6EBD08951F9227
S11311E00F920FB60F9211242F933F934F935F9357
S11311F06F937F938F939F93AF93BF93EF93FF93DB
S1131200E0910701F0910801309709F00995FF91E9
S1131210EF91BF91AF919F918F917F916F915F916A
S11312204F913F912F910F900FBE0F901F901895E3
S11312301F920F920FB60F9211242F933F934F9347
S11312405F936F937F938F939F93AF93BF93EF932A
S1131250FF93E0910501F0910601309709F009959B
S1131260FF91EF91BF91AF919F918F917F916F917A
S11312705F914F913F912F910F900FBE0F901F9050
S113128018951F920F920FB60F9211242F933F932C
S11312904F935F936F937F938F939F93AF93BF937A
S11312A0EF93FF93E0910301F0910401309709F06B
S11312B00995FF91EF91BF91AF919F918F917F918C
S11312C06F915F914F913F912F910F900FBE0F90AF
S11312D01F9018952CB53DB5FC01318320830895EA
S11312E090E09DBD8CBD0895813069F028F0823076
S11312F089F08330B1F0089585B58F7B85BD85B5C0
S1131300877F85BD089585B5806485BD85B5877F54
S113131085BD089585B58F7B85BD85B5886085BD00
S1131320089585B5806485BD85B5886085BD0895BB
S113133084BD84E00895883040F495B5987F95BDC8
S113134095B5892B85BD84E0089580E0089589B71B
S1131350806489BF08950E94A70980E00E947409EF
S113136080E00E94980981E00E949B09089590936F
S113137002018093010108951F920F920FB60F92FC
S113138011242F933F934F935F936F937F938F9386
S11313909F93AF93BF93EF93FF93E0910101F0917B
S11313A00201309709F00995FF91EF91BF91AF9138
S11313B09F918F917F916F915F914F913F912F9169
S11313C00F900FBE0F901F9018955058BB27AA2757
S11313D00E94FD090C94470B0E94390B38F00E94BF
S11313E0400B20F039F49F3F19F426F40C94360B8B
S11313F00EF4E095E7FB0C94300BE92F0E94580B98
S113140058F3BA17620773078407950720F079F435
S1131410A6F50C947A0B0EF4E0950B2EBA2FA02DA2
S11314200B01B90190010C01CA01A0011124FF278D
S1131430591B99F0593F50F4503E68F11A16F04088
S1131440A22F232F342F4427585FF3CF4695379587
S11314502795A795F0405395C9F77EF41F16BA0B4C
S1131460620B730B840BBAF09150A1F0FF0FBB1FFA
S1131470661F771F881FC2F70EC0BA0F621F731F43
S1131480841F48F4879577956795B795F7959E3FA0
S113149008F0B0CF9395880F08F09927EE0F979531
S11314A0879508950E94660A0C94470B0E94400B8E
S11314B058F00E94390B40F029F45F3F29F00C9456
S11314C0300B51110C947B0B0C94360B0E94580B6F
S11314D068F39923B1F3552391F3951B550BBB275F
S11314E0AA2762177307840738F09F5F5F4F220FA4
S11314F0331F441FAA1FA9F335D00E2E3AF0E0E89B
S113150032D091505040E695001CCAF72BD0FE2FE4
S113151029D0660F771F881FBB1F26173707480778
S1131520AB07B0E809F0BB0B802DBF01FF27935830
S11315305F4F3AF09E3F510578F00C94300B0C94B9
S11315407B0B5F3FE4F3983ED4F3869577956795DC
S1131550B795F7959F5FC9F7880F911D9695879565
S113156097F90895E1E0660F771F881FBB1F621784
S113157073078407BA0720F0621B730B840BBA0B42
S1131580EE1F88F7E09508950E94600B88F09F573E
S113159098F0B92F9927B751B0F0E1F0660F771F93
S11315A0881F991F1AF0BA95C9F714C0B13091F089
S11315B00E947A0BB1E008950C947A0B672F782F70
S11315C08827B85F39F0B93FCCF38695779567954E
S11315D0B395D9F73EF490958095709561957F4FBA
S11315E08F4F9F4F0895E89409C097FB3EF4909560
S11315F08095709561957F4F8F4F9F4F9923A9F0E8
S1131600F92F96E9BB279395F69587957795679576
S1131610B795F111F8CFFAF4BB0F11F460FF1BC0BA
S11316206F5F7F4F8F4F9F4F16C0882311F096E94D
S113163011C0772321F09EE8872F762F05C06623FB
S113164071F096E8862F70E060E02AF09A95660FB4
S1131650771F881FDAF7880F9695879597F908956D
S113166097F99F6780E870E060E008959FEF80EC51
S1131670089500240A9416161706180609060895F4
S113168000240A9412161306140605060895092E5A
S11316900394000C11F4882352F0BB0F40F4BF2BC9
S11316A011F460FF04C06F5F7F4F8F4F9F4F089509
S11316B057FD9058440F551F59F05F3F71F04795FF
S11316C0880F97FB991F61F09F3F79F087950895E4
S11316D0121613061406551FF2CF4695F1DF08C003
S11316E0161617061806991FF1CF86957105610520
S11316F008940895E894BB2766277727CB0197F9C8
S113170008950E94940B0C94470B0E94390B38F0F7
S11317100E94400B20F0952311F00C94300B0C9494
S1131720360B11240C947B0B0E94580B70F3959F7D
S1131730C1F3950F50E0551F629FF001729FBB27C4
S1131740F00DB11D639FAA27F00DB11DAA1F649F60
S11317506627B00DA11D661F829F2227B00DA11D13
S1131760621F739FB00DA11D621F839FA00D611D99
S1131770221F749F3327A00D611D231F849F600DBA
S1131780211D822F762F6A2F11249F5750409AF0E3
S1131790F1F088234AF0EE0FFF1FBB1F661F771F6F
S11317A0881F91505040A9F79E3F510580F00C943A
S11317B0300B0C947B0B5F3FE4F3983ED4F3869597
S11317C077956795B795F795E7959F5FC1F7FE2BDA
S11317D0880F911D9695879597F90895052E97FB87
S11317E01EF400940E94050C57FD07D00E941C0CA7
S11317F007FC03D04EF40C94050C5095409530959D
S113180021953F4F4F4F5F4F089590958095709568
S113181061957F4F8F4F9F4F0895A29FB001B39F53
S1131820C001A39F700D811D1124911DB29F700DE5
S1131830811D1124911D0895A1E21A2EAA1BBB1B20
S1131840FD010DC0AA1FBB1FEE1FFF1FA217B30788
S1131850E407F50720F0A21BB30BE40BF50B661F9E
S1131860771F881F991F1A9469F760957095809562
S113187090959B01AC01BD01CF010895F894FFCF71
S113188001040153706565643A333025204469725C
S11318903A094600446973742E3A0020436D00539C
S11318A0706565643A353025204469723A0946000A
S11318B053706565643A333025204469723A09529D
S11318C00053706565643A333025204469723A09DF
S11318D0420053706565643A303025204469723A99
S11318E00953000000000000000000000001000097
S11318F000000000000000000000000000020200E0
S107190000000200DD
S9030000FC
