S01E00004F62737461636C652D61766F6964616E63652D6361722E737265639F
S11300000C942A000C94BF030C94E8030C94110480
S11300100C9447000C94F2050C94C9050C94470009
S11300200C94A0050C9477050C9447000C944A0595
S11300300C9447000C9447000C9447000C94470020
S11300400C9447000C9447000C9447000C94470010
S11300500C94470011241FBECFE5D8E0DEBFCDBF0E
S113006010E0A0E6B0E0E2E3F1E102C005900D92F9
S1130070A036B107D9F720E0A0E6B0E001C01D9298
S1130080A438B207E1F70E9414020C9497080C9468
S113009000000E94D3010E94420178940E948D04C2
S11300A00E94F0010E9442010E94680062E08EE119
S11300B00E941902089544E650E060E070E08AE589
S11300C00E949B0482E00E9439050E940202089566
S11300D061E088E10E942A0361E089E10E942A0329
S11300E061E08AE10E942A0361E08BE10E942A0315
S11300F061E08CE10E942A0361E08DE10E942A0301
S113010080E00895CF93C82F60E081E10E942A0324
S11301106C2F661F6627661F87E10E942A03C6FBB1
S1130120662760F986E10E942A03C5FB662760F909
S113013085E10E942A03C4FB662760F984E10E94DA
S11301402A0361E083E10E942A038FE99FE001977B
S1130150F1F700C0000060E083E10E942A038FE908
S11301609FE00197F1F700C00000C3FB662760F928
S113017087E10E942A03C2FB662760F986E10E9498
S11301802A03C1FB662760F985E10E942A036C2FCC
S1130190617084E10E942A0361E083E10E942A03E2
S11301A08FE99FE00197F1F700C0000060E083E170
S11301B00E942A038FE99FE00197F1F700C0000035
S11301C0CF910895CF93C82F61E081E10E942A0363
S11301D06C2F661F6627661F87E10E942A03C6FBF1
S11301E0662760F986E10E942A03C5FB662760F949
S11301F085E10E942A03C4FB662760F984E10E941A
S11302002A0361E083E10E942A038FE99FE00197BA
S1130210F1F700C0000060E083E10E942A038FE947
S11302209FE00197F1F700C00000C3FB662760F967
S113023087E10E942A03C2FB662760F986E10E94D7
S11302402A03C1FB662760F985E10E942A036C2F0B
S1130250617084E10E942A0361E083E10E942A0321
S11302608FE99FE00197F1F700C0000060E083E1AF
S11302700E942A038FE99FE00197F1F700C0000074
S1130280CF9108952FEF80E792E021508040904075
S1130290E1F700C0000082E00E94820088E20E9430
S11302A082008CE00E94820081E00E9482008FE93B
S11302B09FE00197F1F700C0000086E00E948200F1
S11302C008950E94E2000895811105C0862F806878
S11302D00E9482000895813021F480EC860F0E94F0
S11302E082000895CF92DF92EF92FF921F93CF93F3
S11302F0DF93CDB7DEB72A970FB6F894DEBF0FBEF3
S1130300CDBF6B017C01611571058105910521F457
S113031080E30E94610139C099235CF4F094E09475
S1130320D094C094C11CD11CE11CF11C8DE20E942C
S1130330610110E015C0C701B6012AE030E040E0D9
S113034050E00E947808E1E0F0E0EC0FFD1FE10FBF
S1130350F11D605D60831F5FC22ED32EE42EF52E47
S1130360C114D104E104F10431F70DC0E12FF0E030
S1130370319781E090E08C0F9D1FE80FF91F808179
S11303800E94610111501111F1CF2A960FB6F89411
S1130390DEBF0FBECDBFDF91CF911F91FF90EF90D5
S11303A0DF90CF90089560E081E10E94190260E03F
S11303B083E10E94190260E082E10E94190260E078
S11303C084E10E94190260E085E10E94190260E064
S11303D086E10E94190260E087E10E9419020895F3
S11303E060E080E00E94190260E081E00E9419024E
S11303F060E082E00E94190260E083E00E9419023A
S113040080E0089560E080E00E942A0361E081E0DA
S11304100E942A0360E082E00E942A0361E083E0F4
S11304200E942A0380E008950E9449000E945B0014
S1130430FFCF982F9695969596958770613009F41D
S113044059C020F0623009F4A9C0FCC09130C9F051
S113045028F0923049F19330D1F1F6C04AB321E04B
S113046030E0B90102C0660F771F8A95E2F7CB012D
S1130470942F982B9ABB9BB3809589238BBB80E0E8
S1130480089547B321E030E0B90102C0660F771F39
S11304908A95E2F7CB01942F982B97BB98B380955C
S11304A0892388BB80E0089544B321E030E0B9019A
S11304B002C0660F771F8A95E2F7CB01942F982B21
S11304C094BB95B38095892385BB80E0089541B39F
S11304D021E030E0B90102C0660F771F8A95E2F788
S11304E0CB01942F982B91BB92B38095892382BB27
S11304F080E008959130C9F028F0923049F19330AA
S1130500D1F1A4C04AB321E030E0B90102C0660FC2
S1130510771F8A95E2F7CB018095942F98239ABB95
S11305209BB389238BBB80E0089547B321E030E07F
S1130530B90102C0660F771F8A95E2F7CB01809557
S1130540942F982397BB98B3892388BB80E00895A0
S113055044B321E030E0B90102C0660F771F8A95E9
S1130560E2F7CB018095942F982394BB95B389230C
S113057085BB80E0089541B321E030E0B90102C0B9
S1130580660F771F8A95E2F7CB018095942F982305
S113059091BB92B3892382BB80E008959130C9F066
S11305A028F0923049F19330D1F152C04AB321E09E
S11305B030E0B90102C0660F771F8A95E2F7CB01DC
S11305C0962F909594239ABB9BB3892B8BBB80E089
S11305D0089547B321E030E0B90102C0660F771FE8
S11305E08A95E2F7CB01962F9095942397BB98B305
S11305F0892B88BB80E0089544B321E030E0B90141
S113060002C0660F771F8A95E2F7CB01962F90956B
S1130610942394BB95B3892B85BB80E0089541B3A3
S113062021E030E0B90102C0660F771F8A95E2F736
S1130630CB01962F9095942391BB92B3892B82BBC7
S113064080E0089581E0089581E0089581E00895AF
S113065081E00895982F96959695969587706623D0
S113066009F443C0613009F084C09130A1F028F04E
S11306709230F9F0933059F17EC04BB321E030E071
S1130680B90102C0660F771F8A95E2F7CB01842B6C
S11306908BBB80E0089548B321E030E0B90102C08B
S11306A0660F771F8A95E2F7CB01842B88BB80E025
S11306B0089545B321E030E0B90102C0660F771F09
S11306C08A95E2F7CB01842B85BB80E0089542B381
S11306D021E030E0B90102C0660F771F8A95E2F786
S11306E0CB01842B82BB80E008959130A9F028F0DF
S11306F0923009F1933071F140C04BB321E030E006
S1130700B90102C0660F771F8A95E2F7CB01809585
S113071084238BBB80E0089548B321E030E0B90125
S113072002C0660F771F8A95E2F7CB018095842378
S113073088BB80E0089545B321E030E0B90102C0F0
S1130740660F771F8A95E2F7CB018095842385BBDA
S113075080E0089542B321E030E0B90102C0660FA1
S1130760771F8A95E2F7CB018095842382BB80E0D2
S1130770089583E0089581E0089581E008951F922B
S11307800F920FB60F9211242F933F934F935F93C1
S11307906F937F938F939F93AF93BF93EF93FF9345
S11307A0E0916400F0916500309709F00995FF919C
S11307B0EF91BF91AF919F918F917F916F915F91D5
S11307C04F913F912F910F900FBE0F901F9018954E
S11307D01F920F920FB60F9211242F933F934F93B2
S11307E05F936F937F938F939F93AF93BF93EF9395
S11307F0FF93E0916200F0916300309709F009954E
S1130800FF91EF91BF91AF919F918F917F916F91E4
S11308105F914F913F912F910F900FBE0F901F90BA
S113082018951F920F920FB60F9211242F933F9396
S11308304F935F936F937F938F939F93AF93BF93E4
S1130840EF93FF93E0916000F0916100309709F01D
S11308500995FF91EF91BF91AF919F918F917F91F6
S11308606F915F914F913F912F910F900FBE0F9019
S11308701F9018950F931F9386E082BF80916600A6
S113088090916700A0916800B09169000196A11D44
S1130890B11D8093660090936700A0936800B093A5
S11308A0690000916A0010916B0020916C003091F6
S11308B06D00B901A8014F5F5F4F6F4F7F4F8417E1
S11308C09507A607B70729F461E088E00E942A0388
S11308D021C040916E0050916F0060917000709142
S11308E07100400F511F621F731F4E5F5F4F6F4FA8
S11308F07F4F84179507A607B70761F460E088E087
S11309000E942A03109266001092670010926800F9
S1130910109269001F910F91089560E088E00E9491
S1130920190280E00E9415050E9473058AE394E091
S11309300E94450508958F929F92AF92BF92CF92E5
S1130940DF92EF92FF92CF93C82FCB01BA010E949E
S11309505B079B01AC0160E070E080E89FE30E94CC
S1130960BA0620E034E244E759E40E94E9074B0167
S11309705C016C2F70E080E090E00E945D07A501AF
S113098094010E94E90720E030E048EC52E40E9420
S1130990BA066B017C019B01AC01C501B4010E9444
S11309A04D064B015C0120E030E04AE753E4C70107
S11309B0B6010E94BA060E942C0760936E007093E1
S11309C06F0080937000909371000E94720120E088
S11309D030E04AE753E4C501B4010E94BA060E941C
S11309E02C0760936A0070936B0080936C00909363
S11309F06D0060E081E00E94640160916A00709182
S1130A006B0080916C0090916D000E94720161E016
S1130A1088E00E942A03CF91FF90EF90DF90CF905F
S1130A20BF90AF909F908F900895813069F028F027
S1130A30823089F08330B1F0089583B78F7B83BF10
S1130A4083B7877F83BF089583B7806483BF83B7E9
S1130A50877F83BF089583B78F7B83BF83B7886005
S1130A6083BF089583B7806483BF83B7886083BFDF
S1130A700895883040F493B7987F93BF93B7892B38
S1130A8083BF84E0089580E0089590938300809369
S1130A90820008951F920F920FB60F9211242F9384
S1130AA03F934F935F936F937F938F939F93AF93F2
S1130AB0BF93EF93FF93E0918200F091830030970E
S1130AC009F00995FF91EF91BF91AF919F918F919B
S1130AD07F916F915F914F913F912F910F900FBE36
S1130AE00F901F90189589B7816089BF08951F9250
S1130AF00F920FB60F9211242F933F934F935F934E
S1130B006F937F938F939F93AF93BF93EF93FF93D1
S1130B10E0918000F0918100309709F00995FF91F0
S1130B20EF91BF91AF919F918F917F916F915F9161
S1130B304F913F912F910F900FBE0F901F901895DA
S1130B401F920F920FB60F9211242F933F934F933E
S1130B505F936F937F938F939F93AF93BF93EF9321
S1130B60FF93E0917E00F0917F00309709F00995A2
S1130B70FF91EF91BF91AF919F918F917F916F9171
S1130B805F914F913F912F910F900FBE0F901F9047
S1130B9018951F920F920FB60F9211242F933F9323
S1130BA04F935F936F937F938F939F93AF93BF9371
S1130BB0EF93FF93E0917C00F0917D00309709F072
S1130BC00995FF91EF91BF91AF919F918F917F9183
S1130BD06F915F914F913F912F910F900FBE0F90A6
S1130BE01F9018951F920F920FB60F9211244F93D6
S1130BF05F936F937F938F939F93AF93BF938091F2
S1130C0072008130E9F58091730090917400A09195
S1130C107500B09176004091770050917800609112
S1130C20790070917A0084179507A607B70764F4D2
S1130C300196A11DB11D8093730090937400A0933D
S1130C407500B09376001CC084179507A607B707F4
S1130C50B9F4452B462B472B99F010927300109250
S1130C607400109275001092760080917B00883099
S1130C7020F48F5F80937B0003C081E080937B002E
S1130C80BF91AF919F918F917F916F915F914F91A0
S1130C900F900FBE0F901F9018955058BB27AA278E
S1130CA00E9465060C94AF070E94A10738F00E94C9
S1130CB0A80720F039F49F3F19F426F40C949E07FA
S1130CC00EF4E095E7FB0C949807E92F0E94C00707
S1130CD058F3BA17620773078407950720F079F46D
S1130CE0A6F50C94E2070EF4E0950B2EBA2FA02D76
S1130CF00B01B90190010C01CA01A0011124FF27C5
S1130D00591B99F0593F50F4503E68F11A16F040BF
S1130D10A22F232F342F4427585FF3CF46953795BE
S1130D202795A795F0405395C9F77EF41F16BA0B83
S1130D30620B730B840BBAF09150A1F0FF0FBB1F31
S1130D40661F771F881FC2F70EC0BA0F621F731F7A
S1130D50841F48F4879577956795B795F7959E3FD7
S1130D6008F0B0CF9395880F08F09927EE0F979568
S1130D70879508950E94CE060C94AF070E94A80799
S1130D8058F00E94A10740F029F45F3F29F00C9429
S1130D90980751110C94E3070C949E070E94C00716
S1130DA068F39923B1F3552391F3951B550BBB2796
S1130DB0AA2762177307840738F09F5F5F4F220FDB
S1130DC0331F441FAA1FA9F335D00E2E3AF0E0E8D2
S1130DD032D091505040E695001CCAF72BD0FE2F1C
S1130DE029D0660F771F881FBB1F261737074807B0
S1130DF0AB07B0E809F0BB0B802DBF01FF27935868
S1130E005F4F3AF09E3F510578F00C9498070C948C
S1130E10E3075F3FE4F3983ED4F3869577956795AF
S1130E20B795F7959F5FC9F7880F911D969587959C
S1130E3097F90895E1E0660F771F881FBB1F6217BB
S1130E4073078407BA0720F0621B730B840BBA0B79
S1130E50EE1F88F7E09508950E94C80788F09F5711
S1130E6098F0B92F9927B751B0F0E1F0660F771FCA
S1130E70881F991F1AF0BA95C9F714C0B13091F0C0
S1130E800E94E207B1E008950C94E207672F782FDF
S1130E908827B85F39F0B93FCCF386957795679585
S1130EA0B395D9F73EF490958095709561957F4FF1
S1130EB08F4F9F4F0895E89409C097FB3EF4909597
S1130EC08095709561957F4F8F4F9F4F9923A9F01F
S1130ED0F92F96E9BB279395F695879577956795AE
S1130EE0B795F111F8CFFAF4BB0F11F460FF1BC0F2
S1130EF06F5F7F4F8F4F9F4F16C0882311F096E985
S1130F0011C0772321F09EE8872F762F05C0662332
S1130F1071F096E8862F70E060E02AF09A95660FEB
S1130F20771F881FDAF7880F9695879597F90895A4
S1130F3097F99F6780E870E060E008959FEF80EC88
S1130F40089500240A94161617061806090608952B
S1130F5000240A9412161306140605060895092E91
S1130F600394000C11F4882352F0BB0F40F4BF2B00
S1130F7011F460FF04C06F5F7F4F8F4F9F4F089540
S1130F8057FD9058440F551F59F05F3F71F0479536
S1130F90880F97FB991F61F09F3F79F0879508951B
S1130FA0121613061406551FF2CF4695F1DF08C03A
S1130FB0161617061806991FF1CF86957105610557
S1130FC008940895E894BB2766277727CB0197F9FF
S1130FD008950E94FC070C94AF070E94A10738F003
S1130FE00E94A80720F0952311F00C9498070C9404
S1130FF09E0711240C94E3070E94C00770F3959F89
S1131000C1F3950F50E0551F629FF001729FBB27FB
S1131010F00DB11D639FAA27F00DB11DAA1F649F97
S11310206627B00DA11D661F829F2227B00DA11D4A
S1131030621F739FB00DA11D621F839FA00D611DD0
S1131040221F749F3327A00D611D231F849F600DF1
S1131050211D822F762F6A2F11249F5750409AF01A
S1131060F1F088234AF0EE0FFF1FBB1F661F771FA6
S1131070881F91505040A9F79E3F510580F00C9471
S113108098070C94E3075F3FE4F3983ED4F3869506
S113109077956795B795F795E7959F5FC1F7FE2B11
S11310A0880F911D9695879597F90895A1E21A2EB8
S11310B0AA1BBB1BFD010DC0AA1FBB1FEE1FFF1FF8
S11310C0A217B307E407F50720F0A21BB30BE40B48
S11310D0F50B661F771F881F991F1A9469F760958F
S11310E07095809590959B01AC01BD01CF01089549
S11310F0052E97FB1EF400940E948F0857FD07D01D
S11311000E94560807FC03D04EF40C948F085095A7
S11311104095309521953F4F4F4F5F4F08959095DF
S11311208095709561957F4F8F4F9F4F0895F894E8
S1051130FFCFEB
S9030000FC
