S01E00004F62737461636C652D61766F6964616E63652D6361722E737265639F
S11300000C942A000C9433080C945C080C94850816
S11300100C9447000C94FC0A0C94810A0C9447003D
S11300200C94580A0C942F0A0C9447000C94AE09B3
S11300300C9447000C9447000C9447000C94470020
S11300400C9447000C9447000C9447000C94470010
S11300500C94470011241FBECFE5D8E0DEBFCDBF0E
S113006011E0A0E6B0E0E0E0FBE102C005900D92F3
S1130070A831B107D9F721E0A8E1B1E001C01D9290
S1130080A534B207E1F70E9438050C947E0D0C9458
S11300900000809168008130C9F580914101909100
S11300A04201A0914301B09144014091300150912B
S11300B03101609132017091330184179507A607CD
S11300C0B70764F40196A11DB11D8093410190937B
S11300D04201A0934301B093440108958417950706
S11300E0A607B70799F4452B462B472B79F01092B6
S11300F041011092420110924301109244018091F7
S11301003401811103C081E08093340108950E9479
S11301100D0444E650E060E070E08EE10E940F09B7
S113012082E00E949D090E94A70460E080E00E9492
S1130130FF0389E690E00E94EC0360E081E00E9406
S1130140FF038AE790E00E94EC0360913F01709105
S1130150400180E090E00E94170481E890E00E9452
S1130160EC0308950E940D0444E650E060E070E062
S113017082E30E940F0982E00E949D090E94A70465
S113018060E080E00E94FF0385E890E00E94EC03B9
S113019060E081E00E94FF038AE790E00E94EC03A4
S11301A060913F017091400180E090E00E9417044B
S11301B081E890E00E94EC0308950E940D0444E657
S11301C050E060E070E08EE10E940F0982E00E943E
S11301D09D0960E080E00E94FF0386E990E00E94B0
S11301E0EC0360E081E00E94FF038AE790E00E9454
S11301F0EC0360913F017091400180E090E00E9427
S1130200170481E890E00E94EC038091610080FD76
S113021003C00E94DD0402C00E94EF042FEF8DE3AF
S113022099E4215080409040E1F700C00000089517
S11302302EC08FE391E00E9414050E940D0444E651
S113024050E060E070E08EE10E940F0982E00E94BD
S11302509D090E94B90460E080E00E94FF0387EAE0
S113026090E00E94EC0360E081E00E94FF038AE7D3
S113027090E00E94EC0360913F017091400180E0A6
S113028090E00E94170481E890E00E94EC038091C2
S11302903F0190914001459760F208950E940D043A
S11302A044E650E060E070E080E00E940F0982E0E4
S11302B00E949D090E94CB0460E080E00E94FF033D
S11302C088EB90E00E94EC0360E081E00E94FF0371
S11302D08AE790E00E94EC0360913F017091400135
S11302E080E090E00E94170481E890E00E94EC0313
S11302F02FEF89E698E1215080409040E1F700C05B
S1130300000008951F93CF93DF9300D0CDB7DEB7DD
S113031019821A82CE0101960E94BA028981813320
S1130320C9F789EC90E00E94EC0360E081E00E9450
S1130330FF0385ED90E00E94EC0380EA96E8A1E0DB
S1130340B0E08093300190933101A0933201B093D7
S1130350330181E08093680010E029C0BE016E5F24
S11303607F4F8EE10E9481028A83813009F41F5FEE
S113037010FD0FC00E940D048BED90E00E94EC0371
S113038060E081E00E94FF0385ED90E00E94EC03B1
S11303900EC00E940D048BED90E00E94EC0360E01F
S11303A081E00E94FF0389EE90E00E94EC038091BB
S11303B03401882399F22FEF83ED90E3215080409C
S11303C09040E1F700C0000081E08093600010924B
S11303D034011092300110923101109232011092C6
S11303E03301109268000F900F90DF91CF911F910D
S11303F008950E9478040E94CA0378940E94010917
S11304000E9495040E94CA030E94A00262E08EE149
S11304100E943D050E944E060E9411050E94EB0AAF
S113042089E490E00E94F70A08950E94820164C062
S11304308FE391E00E94140580913F019091400167
S113044087349105B0F080913401811112C00E946B
S1130450870081E08093680080EA96E8A1E0B0E03C
S11304608093300190933101A0933201B093330112
S113047043C080913401813051F480913F019091C7
S113048040018734910518F00E94B20035C0809174
S11304903F01909140018734910598F480913F0188
S11304A0909140014F9768F01092340110923001FE
S11304B01092310110923201109233010E94870090
S11304C01BC080913F01909140014F9758F4809157
S11304D03F0190914001459728F00E944E010E94EF
S11304E0DD000AC080913F0190914001459720F4BE
S11304F00E944E010E94180180916000811198CFE2
S113050008950F931F93CF93DF931F92CDB7DEB758
S11305108B011982BE016F5F7F4F0E94F306811128
S113052005C08981F801808381E004C08981F801D4
S1130530808380E00F90DF91CF911F910F910895F8
S113054061E088E10E945E0661E089E10E945E0646
S113055061E08AE10E945E0661E084E00E945E063A
S113056061E085E00E945E0661E086E00E945E062E
S113057080E00895CF92DF92EF92FF920F931F9342
S1130580CF93DF938C01D0E039C0CD2ED12CF6016E
S1130590EE59FF4F60E080810E945E06C0E024C0F7
S11305A0EC2EF12CF701EB59FF4FB80180810E942A
S11305B0F306F8018081811116C0C601880F991FC6
S11305C08C0D9D1D82519F4FFC01EE0DFF1D8081FE
S11305D0F8018083F601EE59FF4F61E080810E94AB
S11305E05E0680E00EC0CF5FC330D0F2F601EE5954
S11305F0FF4F61E080810E945E06DF5FD33028F206
S113060081E0DF91CF911F910F91FF90EF90DF90E8
S1130610CF900895CF93C82F60E081E10E945E06D9
S11306206C2F661F6627661F87E10E945E06C6FB65
S1130630662760F986E10E945E06C5FB662760F9BD
S113064085E10E945E06C4FB662760F984E10E948E
S11306505E0661E083E10E945E068FE99FE00197F8
S1130660F1F700C0000060E083E10E945E068FE9BC
S11306709FE00197F1F700C00000C3FB662760F913
S113068087E10E945E06C2FB662760F986E10E944C
S11306905E06C1FB662760F985E10E945E066C2F49
S11306A0617084E10E945E0661E083E10E945E065F
S11306B08FE99FE00197F1F700C0000060E083E15B
S11306C00E945E068FE99FE00197F1F700C00000E9
S11306D0CF910895CF93C82F61E081E10E945E0617
S11306E06C2F661F6627661F87E10E945E06C6FBA5
S11306F0662760F986E10E945E06C5FB662760F9FD
S113070085E10E945E06C4FB662760F984E10E94CD
S11307105E0661E083E10E945E068FE99FE0019737
S1130720F1F700C0000060E083E10E945E068FE9FB
S11307309FE00197F1F700C00000C3FB662760F952
S113074087E10E945E06C2FB662760F986E10E948B
S11307505E06C1FB662760F985E10E945E066C2F88
S1130760617084E10E945E0661E083E10E945E069E
S11307708FE99FE00197F1F700C0000060E083E19A
S11307800E945E068FE99FE00197F1F700C0000028
S1130790CF9108952FEF80E792E021508040904060
S11307A0E1F700C0000082E00E940A0388E20E9490
S11307B00A038CE00E940A0381E00E940A038FE985
S11307C09FE00197F1F700C0000086E00E940A0351
S11307D008950E946A0308950F931F93CF938C0189
S11307E0C0E003C00E94E903CF5FF801EC0FF11DE4
S11307F080818111F7CFCF911F910F9108958111BD
S113080005C0862F80680E940A030895813021F470
S113081080EC860F0E940A03089581E00E940A0377
S11308208FE99FE00197F1F700C000000895CF928F
S1130830DF92EF92FF921F93CF93DF93CDB7DEB792
S11308402A970FB6F894DEBF0FBECDBF6B017C01B3
S1130850611571058105910521F480E30E94E90386
S113086039C099235CF4F094E094D094C094C11CF2
S1130870D11CE11CF11C8DE20E94E90310E015C0BB
S1130880C701B6012AE030E040E050E00E942E0D9E
S1130890E1E0F0E0EC0FFD1FE10FF11D605D60830E
S11308A01F5FC22ED32EE42EF52EC114D104E10411
S11308B0F10431F70DC0E12FF0E0319781E090E0D1
S11308C08C0F9D1FE80FF91F80810E94E9031150CE
S11308D01111F1CF2A960FB6F894DEBF0FBECDBF2B
S11308E0DF91CF911F91FF90EF90DF90CF9008950B
S11308F060E081E10E943D0560E083E10E943D05E6
S113090060E082E10E943D0560E084E10E943D05D3
S113091060E085E10E943D0560E086E10E943D05BE
S113092060E087E10E943D05089560E080E00E9458
S11309303D0560E081E00E943D0560E082E00E94A8
S11309403D0560E083E00E943D0580E0089560E09D
S113095080E00E945E0661E081E00E945E0660E045
S113096082E00E945E0661E083E00E945E0680E011
S1130970089561E080E00E945E0660E081E00E94EC
S11309805E0661E082E00E945E0660E083E00E9411
S11309905E0680E0089560E080E00E945E0660E00C
S11309A081E00E945E0660E082E00E945E0660E0F4
S11309B083E00E945E0680E0089561E080E00E948A
S11309C05E0660E081E00E945E0660E082E00E94D4
S11309D05E0661E083E00E945E0680E0089560E0C8
S11309E080E00E945E0661E081E00E945E0661E0B4
S11309F082E00E945E0660E083E00E945E0680E082
S1130A00089561E08BE00E945E068AE18A95F1F721
S1130A1000C060E08BE00E945E0680E00E94B00AA5
S1130A2008950E94600708950F931F93CF93DF9357
S1130A3000D0CDB7DEB78C010E940105CE0101962E
S1130A400E94710729813A81AFE9B6E40E944D0DF5
S1130A50929582958F7089279F708927F8019183D9
S1130A6080830F900F90DF91CF911F910F91089584
S1130A700E94F9010E941502FDCF982F9695969534
S1130A8096958770613009F459C020F0623009F4FA
S1130A90A9C0FCC09130C9F028F0923049F19330DC
S1130AA0D1F1F6C04AB321E030E0B90102C0660FCB
S1130AB0771F8A95E2F7CB01942F982B9ABB9BB3AF
S1130AC0809589238BBB80E0089547B321E030E013
S1130AD0B90102C0660F771F8A95E2F7CB01942F04
S1130AE0982B97BB98B38095892388BB80E00895A1
S1130AF044B321E030E0B90102C0660F771F8A9544
S1130B00E2F7CB01942F982B94BB95B3809589235E
S1130B1085BB80E0089541B321E030E0B90102C013
S1130B20660F771F8A95E2F7CB01942F982B91BB20
S1130B3092B38095892382BB80E008959130C9F0F7
S1130B4028F0923049F19330D1F1A4C04AB321E0A6
S1130B5030E0B90102C0660F771F8A95E2F7CB0136
S1130B608095942F98239ABB9BB389238BBB80E0F9
S1130B70089547B321E030E0B90102C0660F771F42
S1130B808A95E2F7CB018095942F982397BB98B36D
S1130B90892388BB80E0089544B321E030E0B901A3
S1130BA002C0660F771F8A95E2F7CB018095942FD8
S1130BB0982394BB95B3892385BB80E0089541B302
S1130BC021E030E0B90102C0660F771F8A95E2F791
S1130BD0CB018095942F982391BB92B3892382BB38
S1130BE080E008959130C9F028F0923049F19330B3
S1130BF0D1F152C04AB321E030E0B90102C0660F1E
S1130C00771F8A95E2F7CB01962F909594239ABB90
S1130C109BB3892B8BBB80E0089547B321E030E080
S1130C20B90102C0660F771F8A95E2F7CB01962FB0
S1130C309095942397BB98B3892B88BB80E0089543
S1130C4044B321E030E0B90102C0660F771F8A95F2
S1130C50E2F7CB01962F9095942394BB95B3892BFF
S1130C6085BB80E0089541B321E030E0B90102C0C2
S1130C70660F771F8A95E2F7CB01962F9095942300
S1130C8091BB92B3892B82BB80E0089581E00895E3
S1130C9081E0089581E0089581E00895CF93C0E054
S1130CA009C0EC2FF0E0E950FF4F60818C2F0E94C7
S1130CB03D05CF5FC032A8F3CF910895982F969544
S1130CC0969596958770662309F443C0613009F0C0
S1130CD084C09130A1F028F09230F9F0933059F1AA
S1130CE07EC04BB321E030E0B90102C0660F771F2C
S1130CF08A95E2F7CB01842B8BBB80E0089548B33F
S1130D0021E030E0B90102C0660F771F8A95E2F74F
S1130D10CB01842B88BB80E0089545B321E030E00B
S1130D20B90102C0660F771F8A95E2F7CB01842BC5
S1130D3085BB80E0089542B321E030E0B90102C0F0
S1130D40660F771F8A95E2F7CB01842B82BB80E084
S1130D5008959130A9F028F0923009F1933071F19F
S1130D6040C04BB321E030E0B90102C0660F771FE9
S1130D708A95E2F7CB01809584238BBB80E00895AC
S1130D8048B321E030E0B90102C0660F771F8A95AD
S1130D90E2F7CB018095842388BB80E0089545B3B6
S1130DA021E030E0B90102C0660F771F8A95E2F7AF
S1130DB0CB018095842385BB80E0089542B321E074
S1130DC030E0B90102C0660F771F8A95E2F7CB01C4
S1130DD08095842382BB80E0089583E0089581E0B8
S1130DE0089581E00895982F969596959695877025
S1130DF09130A1F028F09230F9F0933059F138C0D5
S1130E0029B330E0A90102C0559547958A95E2F7C8
S1130E10CA018170FB01808380E0089526B330E02D
S1130E20A90102C0559547958A95E2F7CA018170D8
S1130E30FB01808380E0089523B330E0A90102C060
S1130E40559547958A95E2F7CA018170FB01808325
S1130E5080E0089520B330E0A90102C0559547957C
S1130E608A95E2F7CA018170FB01808380E00895CE
S1130E7081E008958091180190911901892B79F4EA
S1130E808CE191E00E94AA0A62E082E00E94BE071F
S1130E9081E090E090931901809318010895809166
S1130EA0180190911901019751F48AE191E00E948F
S1130EB0AA0A82E090E090931901809318010895A2
S1130EC062E080E00E94DB0982E00E94AC0763E0FC
S1130ED082E00E94BE076AE377E082E00E941E0877
S1130EE008950F931F93CF93DF938C0163E082E007
S1130EF00E94BE0780E00E94B00A1092190110926D
S1130F00180105C0219682E08A95F1F700C080910E
S1130F10180190911901029720F4C83DE9E5DE0714
S1130F2088F38091180190911901029779F48091C6
S1130F301A0190911B0120911C0130911D01821B0B
S1130F40930BF8019183808381E001C080E0DF91FD
S1130F50CF911F910F910895813041F018F08230A4
S1130F6049F008958BB780648BBF08958BB7806870
S1130F708BBF08958BB780628BBF0895813049F190
S1130F8020F0823009F449C00895613069F028F0F6
S1130F90623089F06330B1F0089585B78E7F85BFE4
S1130FA085B78D7F85BF089585B7816085BF85B777
S1130FB08D7F85BF089585B78E7F85BF85B7826095
S1130FC085BF089585B7816085BF85B7826085BF79
S1130FD00895613069F028F0623089F06330B1F02F
S1130FE0089585B78B7F85BF85B7877F85BF0895B3
S1130FF085B7846085BF85B7877F85BF089585B72A
S11310008B7F85BF85B7886085BF089585B7846069
S113101085BF85B7886085BF0895623019F0633055
S113102029F008C084B78F7B84BF089584B7806497
S113103084BF089584B78F7B84BF0895813049F0BD
S113104018F0823059F008957093230160932201BF
S113105008957093210160932001089570931F01F6
S113106060931E0108951F920F920FB60F921124E0
S11310702F933F934F935F936F937F938F939F939C
S1131080AF93BF93EF93FF93E0912201F09123017B
S1131090309709F00995FF91EF91BF91AF919F911E
S11310A08F917F916F915F914F913F912F910F900D
S11310B00FBE0F901F9018951F920F920FB60F92AC
S11310C011242F933F934F935F936F937F938F9349
S11310D09F93AF93BF93EF93FF93E0912001F0911F
S11310E02101309709F00995FF91EF91BF91AF91DC
S11310F09F918F917F916F915F914F913F912F912C
S11311000F900FBE0F901F9018951F920F920FB65D
S11311100F9211242F933F934F935F936F937F9379
S11311208F939F93AF93BF93EF93FF93E0911E012F
S1131130F0911F01309709F00995FF91EF91BF914C
S1131140AF919F918F917F916F915F914F913F915B
S11311502F910F900FBE0F901F9018950F931F9310
S113116086E082BF8091240190912501A0912601FF
S1131170B09127010196A11DB11D80932401909384
S11311802501A0932601B093270100912801109115
S1131190290120912A0130912B01B901A8014F5F47
S11311A05F4F6F4F7F4F84179507A607B70729F442
S11311B061E088E00E945E0621C040912C015091BC
S11311C02D0160912E0170912F01400F511F621F5C
S11311D0731F4E5F5F4F6F4F7F4F84179507A607AE
S11311E0B70761F460E088E00E945E061092240173
S11311F01092250110922601109227011F910F9140
S1131200089560E088E00E943D0580E00E9479092D
S11312100E94D7098EEA98E00E94A90908958F9246
S11312209F92AF92BF92CF92DF92EF92FF92CF93B1
S1131230C82FCB01BA010E94330C9B01AC0160E0C2
S113124070E080E89FE30E94920B20E034E244E7E0
S113125059E40E94C10C4B015C016C2F70E080E0EA
S113126090E00E94350CA50194010E94C10C20E07D
S113127030E048EC52E40E94920B6B017C019B012C
S1131280AC01C501B4010E94250B4B015C0120E0B7
S113129030E04AE753E4C701B6010E94920B0E9472
S11312A0040C60932C0170932D0180932E01909374
S11312B02F0120E030E04AE753E4C501B4010E9465
S11312C0920B0E94040C609328017093290180936F
S11312D02A0190932B0161E088E00E945E06CF9181
S11312E0FF90EF90DF90CF90BF90AF909F908F9042
S11312F00895813069F028F0823089F08330B1F0AC
S1131300089583B78F7B83BF83B7877F83BF089597
S113131083B7806483BF83B7877F83BF089583B710
S11313208F7B83BF83B7886083BF089583B780644E
S113133083BF83B7886083BF0895883040F493B730
S1131340987F93BF93B7892B83BF84E0089580E08F
S1131350089590933E0180933D0108951F920F924A
S11313600FB60F9211242F933F934F935F936F9374
S11313707F938F939F93AF93BF93EF93FF93E091EA
S11313803D01F0913E01309709F00995FF91EF91ED
S1131390BF91AF919F918F917F916F915F914F9189
S11313A03F912F910F900FBE0F901F90189589B702
S11313B0816089BF0895823029F128F4882341F09F
S11313C0813099F045C0833051F18430A9F140C097
S11313D08FB58E7F8FBD8FB58D7F8FBD8EB5877F87
S11313E08EBD8EB58F7E8EBD33C08FB58E7F8FBD83
S11313F08FB58D7F8FBD8EB588608EBD8EB58061B3
S11314008EBD26C08FB58E7F8FBD8FB58D7F8FBD6E
S11314108EB588608EBD8EB58F7E8EBD19C08FB59A
S11314208E7F8FBD8FB582608FBD8EB588608EBD77
S11314308EB580618EBD0CC08FB581608FBD8FB5B8
S113144082608FBD8EB588608EBD8EB580618EBD85
S11314508EB5887F8EBD8EB5682B6EBD08951F92A4
S11314600F920FB60F9211242F933F934F935F93D4
S11314706F937F938F939F93AF93BF93EF93FF9358
S1131480E0913B01F0913C01309709F00995FF91FF
S1131490EF91BF91AF919F918F917F916F915F91E8
S11314A04F913F912F910F900FBE0F901F90189561
S11314B01F920F920FB60F9211242F933F934F93C5
S11314C05F936F937F938F939F93AF93BF93EF93A8
S11314D0FF93E0913901F0913A01309709F00995B1
S11314E0FF91EF91BF91AF919F918F917F916F91F8
S11314F05F914F913F912F910F900FBE0F901F90CE
S113150018951F920F920FB60F9211242F933F93A9
S11315104F935F936F937F938F939F93AF93BF93F7
S1131520EF93FF93E0913701F0913801309709F080
S11315300995FF91EF91BF91AF919F918F917F9109
S11315406F915F914F913F912F910F900FBE0F902C
S11315501F9018952CB53DB5FC0131832083089567
S113156090E09DBD8CBD0895813069F028F08230F3
S113157089F08330B1F0089585B58F7B85BD85B53D
S1131580877F85BD089585B5806485BD85B5877FD2
S113159085BD089585B58F7B85BD85B5886085BD7E
S11315A0089585B5806485BD85B5886085BD089539
S11315B084BD84E00895883040F495B5987F95BD46
S11315C095B5892B85BD84E0089580E0089589B799
S11315D0806489BF08950E94E70A80E00E94B40AEB
S11315E080E00E94D80A81E00E94DB0A089590936B
S11315F036018093350108951F920F920FB60F9212
S113160011242F933F934F935F936F937F938F9303
S11316109F93AF93BF93EF93FF93E0913501F091C4
S11316203601309709F00995FF91EF91BF91AF9181
S11316309F918F917F916F915F914F913F912F91E6
S11316400F900FBE0F901F9018955058BB27AA27D4
S11316500E943D0B0C94870C0E94790C38F00E9478
S1131660800C20F039F49F3F19F426F40C94760C86
S11316700EF4E095E7FB0C94700CE92F0E94980C93
S113168058F3BA17620773078407950720F079F4B3
S1131690A6F50C94BA0C0EF4E0950B2EBA2FA02DDF
S11316A00B01B90190010C01CA01A0011124FF270B
S11316B0591B99F0593F50F4503E68F11A16F04006
S11316C0A22F232F342F4427585FF3CF4695379505
S11316D02795A795F0405395C9F77EF41F16BA0BCA
S11316E0620B730B840BBAF09150A1F0FF0FBB1F78
S11316F0661F771F881FC2F70EC0BA0F621F731FC1
S1131700841F48F4879577956795B795F7959E3F1D
S113171008F0B0CF9395880F08F09927EE0F9795AE
S1131720879508950E94A60B0C94870C0E94800C48
S113173058F00E94790C40F029F45F3F29F00C9492
S1131740700C51110C94BB0C0C94760C0E94980CE8
S113175068F39923B1F3552391F3951B550BBB27DC
S1131760AA2762177307840738F09F5F5F4F220F21
S1131770331F441FAA1FA9F335D00E2E3AF0E0E818
S113178032D091505040E695001CCAF72BD0FE2F62
S113179029D0660F771F881FBB1F261737074807F6
S11317A0AB07B0E809F0BB0B802DBF01FF279358AE
S11317B05F4F3AF09E3F510578F00C94700C0C94F6
S11317C0BB0C5F3FE4F3983ED4F386957795679519
S11317D0B795F7959F5FC9F7880F911D96958795E3
S11317E097F90895E1E0660F771F881FBB1F621702
S11317F073078407BA0720F0621B730B840BBA0BC0
S1131800EE1F88F7E09508950E94A00C88F09F577A
S113181098F0B92F9927B751B0F0E1F0660F771F10
S1131820881F991F1AF0BA95C9F714C0B13091F006
S11318300E94BA0CB1E008950C94BA0C672F782F6B
S11318408827B85F39F0B93FCCF3869577956795CB
S1131850B395D9F73EF490958095709561957F4F37
S11318608F4F9F4F0895E89409C097FB3EF49095DD
S11318708095709561957F4F8F4F9F4F9923A9F065
S1131880F92F96E9BB279395F695879577956795F4
S1131890B795F111F8CFFAF4BB0F11F460FF1BC038
S11318A06F5F7F4F8F4F9F4F16C0882311F096E9CB
S11318B011C0772321F09EE8872F762F05C0662379
S11318C071F096E8862F70E060E02AF09A95660F32
S11318D0771F881FDAF7880F9695879597F90895EB
S11318E097F99F6780E870E060E008959FEF80ECCF
S11318F0089500240A941616170618060906089572
S113190000240A9412161306140605060895092ED7
S11319100394000C11F4882352F0BB0F40F4BF2B46
S113192011F460FF04C06F5F7F4F8F4F9F4F089586
S113193057FD9058440F551F59F05F3F71F047957C
S1131940880F97FB991F61F09F3F79F08795089561
S1131950121613061406551FF2CF4695F1DF08C080
S1131960161617061806991FF1CF8695710561059D
S113197008940895E894BB2766277727CB0197F945
S113198008950E94D40C0C94870C0E94790C38F0B2
S11319900E94800C20F0952311F00C94700C0C9490
S11319A0760C11240C94BB0C0E94980C70F3959F38
S11319B0C1F3950F50E0551F629FF001729FBB2742
S11319C0F00DB11D639FAA27F00DB11DAA1F649FDE
S11319D06627B00DA11D661F829F2227B00DA11D91
S11319E0621F739FB00DA11D621F839FA00D611D17
S11319F0221F749F3327A00D611D231F849F600D38
S1131A00211D822F762F6A2F11249F5750409AF060
S1131A10F1F088234AF0EE0FFF1FBB1F661F771FEC
S1131A20881F91505040A9F79E3F510580F00C94B7
S1131A30700C0C94BB0C5F3FE4F3983ED4F3869592
S1131A4077956795B795F795E7959F5FC1F7FE2B57
S1131A50880F911D9695879597F90895052E97FB04
S1131A601EF400940E94450D57FD07D00E945C0DA2
S1131A7007FC03D04EF40C94450D509540953095D9
S1131A8021953F4F4F4F5F4F0895909580957095E6
S1131A9061957F4F8F4F9F4F0895A29FB001B39FD1
S1131AA0C001A39F700D811D1124911DB29F700D63
S1131AB0811D1124911D0895A1E21A2EAA1BBB1B9E
S1131AC0FD010DC0AA1FBB1FEE1FFF1FA217B30706
S1131AD0E407F50720F0A21BB30BE40BF50B661F1C
S1131AE0771F881F991F1A9469F7609570958095E0
S1131AF090959B01AC01BD01CF010895F894FFCFEF
S1131B00010404050618191A0153706565643A3313
S1131B103025204469723A094600446973742E3AA8
S1131B200020436D0053706565643A3530252044C8
S1131B3069723A09460053706565643A333025206A
S1131B404469723A09520053706565643A3330252A
S1131B50204469723A09420053706565643A303032
S1131B6025204469723A095300536574204465661C
S1131B7020526F740052696768740053657420447E
S1131B8065662E20526F742E004C656674003132E7
S1131B9033343536373839000000000000000000C7
S1131BA0000100000000000000000000000000022E
S10B1BB0020200000001020022
S9030000FC
