:100000000C9431000C9470060C9499060C94C20662
:100010000C944E000C947B090C94BE080C944E007A
:100020000C9495080C946C080C944E000C94EB07FF
:100030000C944E000C944E000C944E000C944E0008
:100040000C944E000C944E000C944E000C944E00F8
:100050000C944E001E0929093F0934094A09550923
:10006000600911241FBECFE5D8E0DEBFCDBF10E090
:10007000A0E6B0E0E6E6F8E102C005900D92A43EED
:10008000B107D9F721E0A4EEB0E001C01D92AE3077
:10009000B207E1F70E942E040C94310C0C9400007E
:1000A0000E94DB0244E650E060E070E08EE10E94D6
:1000B0004C0782E00E94DA070E94750360E080E04E
:1000C0000E94CD0283E690E00E94BA0260E081E0E7
:1000D0000E94CD0284E790E00E94BA02609108017C
:1000E0007091090180E090E00E94E5028BE790E0CA
:1000F0000E94BA0208950E94DB0244E650E060E0EC
:1001000070E082E30E944C0782E00E94DA070E94BE
:10011000750360E080E00E94CD028FE790E00E94CE
:10012000BA0260E081E00E94CD0284E790E00E9484
:10013000BA02609108017091090180E090E00E948C
:10014000E5028BE790E00E94BA0208950E94DB026C
:1001500044E650E060E070E08EE10E944C0782E0EF
:100160000E94DA0760E080E00E94CD0280E990E022
:100170000E94BA0260E081E00E94CD0284E790E034
:100180000E94BA02609108017091090180E090E03C
:100190000E94E5028BE790E00E94BA028091610024
:1001A00080FD03C00E94AB0302C00E94BD032FEF7D
:1001B0008DE399E4215080409040E1F700C00000B9
:1001C000089530C00E94EF039093090180930801C5
:1001D0000E94DB0244E650E060E070E08EE10E94A5
:1001E0004C0782E00E94DA070E94870360E080E00B
:1001F0000E94CD0281EA90E00E94BA0260E081E0B4
:100200000E94CD0284E790E00E94BA02609108014A
:100210007091090180E090E00E94E5028BE790E098
:100220000E94BA028091080190910901459750F20D
:1002300008950E94DB0244E650E060E070E080E058
:100240000E944C0782E00E94DA070E94990360E056
:1002500080E00E94CD0282EB90E00E94BA0260E052
:1002600081E00E94CD0284E790E00E94BA02609192
:1002700008017091090180E090E00E94E5028BE79F
:1002800090E00E94BA0208950E9446030E949802DC
:1002900078940E943E070E9463030E9498020E9485
:1002A000BE0162E08EE10E9433040E9444050E9478
:1002B0006D0908955EC00E94EF0390930901809339
:1002C0000801809108019091090187349105B0F0EF
:1002D0008091FF00811112C00E94500081E0809344
:1002E000620080EA96E8A1E0B0E08093FB00909382
:1002F000FC00A093FD00B093FE003BC08091FF0086
:10030000813051F480910801909109018734910561
:1003100018F00E947B002DC0809108019091090186
:100320008734910558F480910801909109014F9705
:1003300028F01092FF000E9450001BC0809108011D
:10034000909109014F9758F480910801909109010B
:10035000459728F00E9419010E94A6000AC08091CA
:10036000080190910901459720F40E9419010E940B
:10037000E1008091600081119ECF089561E088E1E5
:100380000E94540561E089E10E94540561E08AE120
:100390000E94540561E08BE10E94540561E08CE10C
:1003A0000E94540561E08DE10E94540580E00895AB
:1003B000CF93C82F60E081E10E9454056C2F661F27
:1003C0006627661F87E10E945405C6FB662760F911
:1003D00086E10E945405C5FB662760F985E10E940D
:1003E0005405C4FB662760F984E10E94540561E06E
:1003F00083E10E9454058FE99FE00197F1F700C067
:10040000000060E083E10E9454058FE99FE00197BE
:10041000F1F700C00000C3FB662760F987E10E9486
:100420005405C2FB662760F986E10E945405C1FBB2
:10043000662760F985E10E9454056C2F617084E1A4
:100440000E94540561E083E10E9454058FE99FE01A
:100450000197F1F700C0000060E083E10E945405BD
:100460008FE99FE00197F1F700C00000CF91089558
:10047000CF93C82F61E081E10E9454056C2F661F65
:100480006627661F87E10E945405C6FB662760F950
:1004900086E10E945405C5FB662760F985E10E944C
:1004A0005405C4FB662760F984E10E94540561E0AD
:1004B00083E10E9454058FE99FE00197F1F700C0A6
:1004C000000060E083E10E9454058FE99FE00197FE
:1004D000F1F700C00000C3FB662760F987E10E94C6
:1004E0005405C2FB662760F986E10E945405C1FBF2
:1004F000662760F985E10E9454056C2F617084E1E4
:100500000E94540561E083E10E9454058FE99FE059
:100510000197F1F700C0000060E083E10E945405FC
:100520008FE99FE00197F1F700C00000CF91089597
:100530002FEF80E792E0215080409040E1F700C02B
:10054000000082E00E94D80188E20E94D8018CE07D
:100550000E94D80181E00E94D8018FE99FE00197B5
:10056000F1F700C0000086E00E94D80108950E94C3
:10057000380208950F931F93CF938C01C0E003C0FE
:100580000E94B702CF5FF801EC0FF11D808181114D
:10059000F7CFCF911F910F910895811105C0862F3C
:1005A00080680E94D8010895813021F480EC860F84
:1005B0000E94D801089581E00E94D8018FE99FE050
:1005C0000197F1F700C000000895CF92DF92EF92FB
:1005D000FF921F93CF93DF93CDB7DEB72A970FB665
:1005E000F894DEBF0FBECDBF6B017C0161157105B4
:1005F0008105910521F480E30E94B70239C0992357
:100600005CF4F094E094D094C094C11CD11CE11C23
:10061000F11C8DE20E94B70210E015C0C701B601BF
:100620002AE030E040E050E00E94FD0BE1E0F0E025
:10063000EC0FFD1FE10FF11D605D60831F5FC22E97
:10064000D32EE42EF52EC114D104E104F10431F7C8
:100650000DC0E12FF0E0319781E090E08C0F9D1FFD
:10066000E80FF91F80810E94B70211501111F1CFDC
:100670002A960FB6F894DEBF0FBECDBFDF91CF91A3
:100680001F91FF90EF90DF90CF90089560E081E19F
:100690000E94330460E083E10E94330460E082E161
:1006A0000E94330460E084E10E94330460E085E14D
:1006B0000E94330460E086E10E94330460E087E139
:1006C0000E943304089560E080E00E94330460E0FB
:1006D00081E00E94330460E082E00E94330460E025
:1006E00083E00E94330480E0089560E080E00E948F
:1006F000540561E081E00E94540560E082E00E94C0
:10070000540561E083E00E94540580E0089561E0B3
:1007100080E00E94540560E081E00E94540561E0A1
:1007200082E00E94540560E083E00E94540580E06E
:10073000089560E080E00E94540560E081E00E943E
:10074000540560E082E00E94540560E083E00E946E
:10075000540580E0089561E080E00E94540560E067
:1007600081E00E94540560E082E00E94540561E04F
:1007700083E00E94540580E0089560E080E00E94DC
:10078000540561E081E00E94540561E082E00E942E
:10079000540560E083E00E94540580E00895809154
:1007A000E40081110EC08CB59DB590930D0180932E
:1007B0000C0162E082E00E94FB0581E08093E4008E
:1007C00008958091E400813049F48CB59DB59093F3
:1007D0000B0180930A0182E08093E400089562E0B7
:1007E00080E00E94180882E00E94E9051DBC1CBC44
:1007F0006FEC73E082E00E945B0663E082E00E949F
:10080000FB051DBC1CBC1092E40063E082E00E946A
:10081000FB0561E08BE00E9454058AE18A95F1F7BF
:1008200000C060E08BE00E9454058091E4008230BB
:10083000E0F320910A0130910B0180910C0190911D
:100840000D01281B390BAFE9B6E40E94220C9295EA
:1008500082958F7089279F70892708950E9444018F
:100860000E945A01FDCF982F969596959695877080
:10087000613009F459C020F0623009F4A9C0FCC00D
:100880009130C9F028F0923049F19330D1F1F6C09F
:100890004AB321E030E0B90102C0660F771F8A95A4
:1008A000E2F7CB01942F982B9ABB9BB380958923B9
:1008B0008BBB80E0089547B321E030E0B90102C06E
:1008C000660F771F8A95E2F7CB01942F982B97BB81
:1008D00098B38095892388BB80E0089544B321E0D4
:1008E00030E0B90102C0660F771F8A95E2F7CB01AD
:1008F000942F982B94BB95B38095892385BB80E07A
:10090000089541B321E030E0B90102C0660F771FBE
:100910008A95E2F7CB01942F982B91BB92B38095E7
:10092000892382BB80E008959130C9F028F092308D
:1009300049F19330D1F1A4C04AB321E030E0B901CC
:1009400002C0660F771F8A95E2F7CB018095942F3E
:1009500098239ABB9BB389238BBB80E0089547B350
:1009600021E030E0B90102C0660F771F8A95E2F7F7
:10097000CB018095942F982397BB98B3892388BB8C
:1009800080E0089544B321E030E0B90102C0660F71
:10099000771F8A95E2F7CB018095942F982394BB1B
:1009A00095B3892385BB80E0089541B321E030E011
:1009B000B90102C0660F771F8A95E2F7CB018095D7
:1009C000942F982391BB92B3892382BB80E0089532
:1009D0009130C9F028F0923049F19330D1F152C0F2
:1009E0004AB321E030E0B90102C0660F771F8A9553
:1009F000E2F7CB01962F909594239ABB9BB3892B5A
:100A00008BBB80E0089547B321E030E0B90102C01C
:100A1000660F771F8A95E2F7CB01962F9095942366
:100A200097BB98B3892B88BB80E0089544B321E03D
:100A300030E0B90102C0660F771F8A95E2F7CB015B
:100A4000962F9095942394BB95B3892B85BB80E01A
:100A5000089541B321E030E0B90102C0660F771F6D
:100A60008A95E2F7CB01962F9095942391BB92B390
:100A7000892B82BB80E0089581E0089581E008958C
:100A800081E0089581E00895CF93C0E009C0EC2F84
:100A9000F0E0ED53FF4F60818C2F0E943304CF5F55
:100AA000C032A8F3CF910895982F96959695969574
:100AB0008770662309F443C0613009F084C0913027
:100AC000A1F028F09230F9F0933059F17EC04BB389
:100AD00021E030E0B90102C0660F771F8A95E2F786
:100AE000CB01842B8BBB80E0089548B321E030E03C
:100AF000B90102C0660F771F8A95E2F7CB01842BFC
:100B000088BB80E0089545B321E030E0B90102C020
:100B1000660F771F8A95E2F7CB01842B85BB80E0B7
:100B2000089542B321E030E0B90102C0660F771F9B
:100B30008A95E2F7CB01842B82BB80E00895913047
:100B4000A9F028F0923009F1933071F140C04BB315
:100B500021E030E0B90102C0660F771F8A95E2F705
:100B6000CB01809584238BBB80E0089548B321E0BE
:100B700030E0B90102C0660F771F8A95E2F7CB011A
:100B80008095842388BB80E0089545B321E030E060
:100B9000B90102C0660F771F8A95E2F7CB018095F5
:100BA000842385BB80E0089542B321E030E0B901A1
:100BB00002C0660F771F8A95E2F7CB0180958423E8
:100BC00082BB80E0089583E0089581E0089581E08C
:100BD0000895813041F018F0823049F008958BB7C4
:100BE00080648BBF08958BB780688BBF08958BB7E7
:100BF00080628BBF0895813049F120F0823009F482
:100C000049C00895613069F028F0623089F063309E
:100C1000B1F0089585B78E7F85BF85B78D7F85BF7D
:100C2000089585B7816085BF85B78D7F85BF08959D
:100C300085B78E7F85BF85B7826085BF089585B7EC
:100C4000816085BF85B7826085BF0895613069F096
:100C500028F0623089F06330B1F0089585B78B7F5A
:100C600085BF85B7877F85BF089585B7846085BFB9
:100C700085B7877F85BF089585B78B7F85BF85B78B
:100C8000886085BF089585B7846085BF85B7886013
:100C900085BF0895623019F0633029F008C084B729
:100CA0008F7B84BF089584B7806484BF089584B720
:100CB0008F7B84BF0895813049F018F0823059F05D
:100CC00008957093EA006093E90008957093E80036
:100CD0006093E70008957093E6006093E50008953F
:100CE0001F920F920FB60F9211242F933F934F93A1
:100CF0005F936F937F938F939F93AF93BF93EF9384
:100D0000FF93E091E900F091EA00309709F009952E
:100D1000FF91EF91BF91AF919F918F917F916F91D3
:100D20005F914F913F912F910F900FBE0F901F90A9
:100D300018951F920F920FB60F9211242F933F9385
:100D40004F935F936F937F938F939F93AF93BF93D3
:100D5000EF93FF93E091E700F091E800309709F0FE
:100D60000995FF91EF91BF91AF919F918F917F91E5
:100D70006F915F914F913F912F910F900FBE0F9008
:100D80001F9018951F920F920FB60F9211242F9358
:100D90003F934F935F936F937F938F939F93AF9303
:100DA000BF93EF93FF93E091E500F091E600309759
:100DB00009F00995FF91EF91BF91AF919F918F91AC
:100DC0007F916F915F914F913F912F910F900FBE47
:100DD0000F901F9018950F931F9386E082BF80910C
:100DE000EB009091EC00A091ED00B091EE00019627
:100DF000A11DB11D8093EB009093EC00A093ED003A
:100E0000B093EE000091EF001091F0002091F100FE
:100E10003091F200B901A8014F5F5F4F6F4F7F4FD4
:100E200084179507A607B70729F461E088E00E94B8
:100E3000540521C04091F3005091F4006091F500F9
:100E40007091F600400F511F621F731F4E5F5F4F7E
:100E50006F4F7F4F84179507A607B70761F460E0CF
:100E600088E00E9454051092EB001092EC00109262
:100E7000ED001092EE001F910F91089560E088E060
:100E80000E94330480E00E94B6070E9414088BEE93
:100E900096E00E94E60708958F929F92AF92BF92CC
:100EA000CF92DF92EF92FF92CF93C82FCB01BA017E
:100EB0000E94E00A9B01AC0160E070E080E89FE3E3
:100EC0000E943F0A20E034E244E759E40E946E0B9E
:100ED0004B015C016C2F70E080E090E00E94E20A20
:100EE000A50194010E946E0B20E030E048EC52E432
:100EF0000E943F0A6B017C019B01AC01C501B4015A
:100F00000E94D2094B015C0120E030E04AE753E443
:100F1000C701B6010E943F0A0E94B10A6093F30024
:100F20007093F4008093F5009093F60020E030E099
:100F30004AE753E4C501B4010E943F0A0E94B10A86
:100F40006093EF007093F0008093F1009093F200B3
:100F500061E088E00E945405CF91FF90EF90DF9010
:100F6000CF90BF90AF909F908F900895813069F09F
:100F700028F0823089F08330B1F0089583B78F7BF9
:100F800083BF83B7877F83BF089583B7806483BFA0
:100F900083B7877F83BF089583B78F7B83BF83B772
:100FA000886083BF089583B7806483BF83B78860F8
:100FB00083BF0895883040F493B7987F93BF93B769
:100FC000892B83BF84E0089580E008959093070102
:100FD0008093060108951F920F920FB60F9211246D
:100FE0002F933F934F935F936F937F938F939F9331
:100FF000AF93BF93EF93FF93E0910601F091070148
:10100000309709F00995FF91EF91BF91AF919F91B2
:101010008F917F916F915F914F913F912F910F90A1
:101020000FBE0F901F90189589B7816089BF0895F2
:10103000823029F128F4882341F0813099F045C0AD
:10104000833051F18430A9F140C08FB58E7F8FBDC0
:101050008FB58D7F8FBD8EB5877F8EBD8EB58F7E10
:101060008EBD33C08FB58E7F8FBD8FB58D7F8FBD09
:101070008EB588608EBD8EB580618EBD26C08FB561
:101080008E7F8FBD8FB58D7F8FBD8EB588608EBDF5
:101090008EB58F7E8EBD19C08FB58E7F8FBD8FB5FB
:1010A00082608FBD8EB588608EBD8EB580618EBD2D
:1010B0000CC08FB581608FBD8FB582608FBD8EB53E
:1010C00088608EBD8EB580618EBD8EB5887F8EBDE9
:1010D0008EB5682B6EBD08951F920F920FB60F92BA
:1010E00011242F933F934F935F936F937F938F932D
:1010F0009F93AF93BF93EF93FF93E0910401F0911F
:101100000501309709F00995FF91EF91BF91AF91DB
:101110009F918F917F916F915F914F913F912F910F
:101120000F900FBE0F901F9018951F920F920FB641
:101130000F9211242F933F934F935F936F937F935D
:101140008F939F93AF93BF93EF93FF93E09102012F
:10115000F0910301309709F00995FF91EF91BF914C
:10116000AF919F918F917F916F915F914F913F913F
:101170002F910F900FBE0F901F9018951F920F92F6
:101180000FB60F9211242F933F934F935F936F935A
:101190007F938F939F93AF93BF93EF93FF93E091D0
:1011A0000001F0910101309709F00995FF91EF914D
:1011B000BF91AF919F918F917F916F915F914F916F
:1011C0003F912F910F900FBE0F901F901895813077
:1011D000F1F028F0823099F0833049F020C085B5D5
:1011E0008F7B85BD85B5877F85BD84E0089585B5F6
:1011F000806485BD85B5877F85BD84E0089585B50C
:101200008F7B85BD85B5886085BD84E0089585B5F3
:10121000806485BD85B5886085BD84E0089581E0E2
:10122000089584BD84E0089590E08730910508F02A
:1012300052C0FC01E65DFF4F0C941C0C85B581602B
:1012400085BD85B58D7F85BD85B58B7F85BD84E0EA
:10125000089585B5826085BD85B58E7F85BD85B5D0
:101260008B7F85BD84E0089585B5816085BD85B59A
:10127000826085BD85B58B7F85BD84E0089585B589
:10128000846085BD85B58D7F85BD85B58E7F85BD27
:1012900084E0089585B5816085BD85B58D7F85BD68
:1012A00085B5846085BD84E0089585B5846085BD7D
:1012B00085B58E7F85BD85B5826085BD84E0089546
:1012C00085B5816085BD85B5826085BD85B5846045
:1012D00085BD84E0089580E00895789489B780649E
:1012E00089BF80E00E94E70880E00E94110980E049
:1012F0000E94140908951F920F920FB60F921124A5
:101300004F935F936F937F938F939F93AF93BF930D
:10131000809162008130C9F58091F7009091F800CA
:10132000A091F900B091FA004091FB005091FC00AF
:101330006091FD007091FE0084179507A607B7071E
:1013400064F40196A11DB11D8093F7009093F800FD
:10135000A093F900B093FA0018C084179507A60768
:10136000B70799F4452B462B472B79F01092F700DD
:101370001092F8001092F9001092FA008091FF008C
:10138000811103C081E08093FF00BF91AF919F91D5
:101390008F917F916F915F914F910F900FBE0F9042
:1013A0001F9018955058BB27AA270E94EA090C9451
:1013B000340B0E94260B38F00E942D0B20F039F4DC
:1013C0009F3F19F426F40C94230B0EF4E095E7FBF1
:1013D0000C941D0BE92F0E94450B58F3BA176207B6
:1013E00073078407950720F079F4A6F50C94670B32
:1013F0000EF4E0950B2EBA2FA02D0B01B901900130
:101400000C01CA01A0011124FF27591B99F0593F73
:1014100050F4503E68F11A16F040A22F232F342FBB
:101420004427585FF3CF469537952795A795F04009
:101430005395C9F77EF41F16BA0B620B730B840B1E
:10144000BAF09150A1F0FF0FBB1F661F771F881FD6
:10145000C2F70EC0BA0F621F731F841F48F487952E
:1014600077956795B795F7959E3F08F0B0CF939520
:10147000880F08F09927EE0F9795879508950E9499
:10148000530A0C94340B0E942D0B58F00E94260B2B
:1014900040F029F45F3F29F00C941D0B51110C947E
:1014A000680B0C94230B0E94450B68F39923B1F34E
:1014B000552391F3951B550BBB27AA27621773077A
:1014C000840738F09F5F5F4F220F331F441FAA1F0E
:1014D000A9F335D00E2E3AF0E0E832D091505040CA
:1014E000E695001CCAF72BD0FE2F29D0660F771F78
:1014F000881FBB1F261737074807AB07B0E809F05E
:10150000BB0B802DBF01FF2793585F4F3AF09E3FE2
:10151000510578F00C941D0B0C94680B5F3FE4F3BD
:10152000983ED4F3869577956795B795F7959F5F25
:10153000C9F7880F911D9695879597F90895E1E071
:10154000660F771F881FBB1F621773078407BA07D0
:1015500020F0621B730B840BBA0BEE1F88F7E0952B
:1015600008950E944D0B88F09F5798F0B92F992746
:10157000B751B0F0E1F0660F771F881F991F1AF07E
:10158000BA95C9F714C0B13091F00E94670BB1E071
:1015900008950C94670B672F782F8827B85F39F070
:1015A000B93FCCF3869577956795B395D9F73EF417
:1015B00090958095709561957F4F8F4F9F4F0895BF
:1015C000E89409C097FB3EF49095809570956195DD
:1015D0007F4F8F4F9F4F9923A9F0F92F96E9BB2793
:1015E0009395F695879577956795B795F111F8CF0F
:1015F000FAF4BB0F11F460FF1BC06F5F7F4F8F4F7A
:101600009F4F16C0882311F096E911C0772321F06F
:101610009EE8872F762F05C0662371F096E8862F07
:1016200070E060E02AF09A95660F771F881FDAF75E
:10163000880F9695879597F9089597F99F6780E8A1
:1016400070E060E008959FEF80EC089500240A9414
:101650001616170618060906089500240A9412168D
:101660001306140605060895092E0394000C11F4C0
:10167000882352F0BB0F40F4BF2B11F460FF04C06D
:101680006F5F7F4F8F4F9F4F089557FD9058440FC6
:10169000551F59F05F3F71F04795880F97FB991FD1
:1016A00061F09F3F79F0879508951216130614068E
:1016B000551FF2CF4695F1DF08C01616170618061B
:1016C000991FF1CF86957105610508940895E894F6
:1016D000BB2766277727CB0197F908950E94810BD6
:1016E0000C94340B0E94260B38F00E942D0B20F036
:1016F000952311F00C941D0B0C94230B11240C94C6
:10170000680B0E94450B70F3959FC1F3950F50E055
:10171000551F629FF001729FBB27F00DB11D639FA3
:10172000AA27F00DB11DAA1F649F6627B00DA11D49
:10173000661F829F2227B00DA11D621F739FB00DEF
:10174000A11D621F839FA00D611D221F749F33275F
:10175000A00D611D231F849F600D211D822F762FF8
:101760006A2F11249F5750409AF0F1F088234AF0D5
:10177000EE0FFF1FBB1F661F771F881F9150504041
:10178000A9F79E3F510580F00C941D0B0C94680B3B
:101790005F3FE4F3983ED4F3869577956795B795C8
:1017A000F795E7959F5FC1F7FE2B880F911D9695E2
:1017B000879597F90895A1E21A2EAA1BBB1BFD017C
:1017C0000DC0AA1FBB1FEE1FFF1FA217B307E40720
:1017D000F50720F0A21BB30BE40BF50B661F771F78
:1017E000881F991F1A9469F7609570958095909558
:1017F0009B01AC01BD01CF010895052E97FB1EF49E
:1018000000940E94140C57FD07D00E94DB0B07FCCC
:1018100003D04EF40C94140C5095409530952195BE
:101820003F4F4F4F5F4F089590958095709561950C
:101830007F4F8F4F9F4F0895EE0FFF1F0590F4913C
:10184000E02D0994A29FB001B39FC001A39F700D2A
:10185000811D1124911DB29F700D811D1124911DB8
:061860000895F894FFCF8B
:1018660001040153706565643A333025204469727A
:101876003A094600446973742E3A0020436D0053BA
:10188600706565643A353025204469723A09460028
:1018960053706565643A333025204469723A0952BB
:1018A6000053706565643A333025204469723A09FD
:1018B600420053706565643A303025204469723AB7
:1018C60009530000000000000000000000010000B5
:1018D60000000000000000000000000000020200FE
:0418E60000000200FC
:00000001FF
