S01E00004F62737461636C652D61766F6964616E63652D6361722E737265639F
S11300000C942A000C9459080C9482080C94AB08A4
S11300100C9447000C94220B0C94A70A0C944700F0
S11300200C947E0A0C94550A0C9447000C94D40941
S11300300C9447000C9447000C9447000C94470020
S11300400C9447000C9447000C9447000C94470010
S11300500C94470011241FBECFE5D8E0DEBFCDBF0E
S113006011E0A0E6B0E0ECE4FBE102C005900D92E3
S1130070A831B107D9F721E0A8E1B1E001C01D9290
S1130080A734B207E1F70E945E050C94A40D0C940A
S11300900000809168008130C9F5809143019091FE
S11300A04401A0914501B091460140913201509123
S11300B03301609134017091350184179507A607C7
S11300C0B70764F40196A11DB11D80934301909379
S11300D04401A0934501B093460108958417950700
S11300E0A607B70799F4452B462B472B79F01092B6
S11300F043011092440110924501109246018091EF
S11301003601811103C081E08093360108950E9475
S1130110330444E650E060E070E08EE10E9435096B
S113012082E00E94C3090E94CD0460E080E00E9446
S1130130250489E690E00E94120460E081E00E94B8
S113014025048AE790E00E941204609141017091B5
S1130150420180E090E00E943D0481E890E00E942A
S1130160120408950E94330444E650E060E070E015
S113017082E30E94350982E00E94C3090E94CD04F3
S113018060E080E00E94250485E890E00E9412046B
S113019060E081E00E9425048AE790E00E94120456
S11301A0609141017091420180E090E00E943D0421
S11301B081E890E00E94120408950E94330444E60A
S11301C050E060E070E08EE10E94350982E00E9418
S11301D0C30960E080E00E94250486E990E00E9463
S11301E0120460E081E00E9425048AE790E00E9406
S11301F01204609141017091420180E090E00E94FC
S11302003D0481E890E00E9412048091610080FD29
S113021003C00E94030502C00E9415052FEF8DE361
S113022099E4215080409040E1F700C00000089517
S11302302EC081E491E00E943A050E94330444E612
S113024050E060E070E08EE10E94350982E00E9497
S1130250C3090E94DF0460E080E00E94250487EA6D
S113026090E00E94120460E081E00E9425048AE785
S113027090E00E941204609141017091420180E07B
S113028090E00E943D0481E890E00E941204809175
S1130290410190914201459760F208950E94330410
S11302A044E650E060E070E080E00E94350982E0BE
S11302B00E94C3090E94F10460E080E00E942504CA
S11302C088EB90E00E94120460E081E00E94250423
S11302D08AE790E00E94120460914101709142010A
S11302E080E090E00E943D0481E890E00E941204C6
S11302F02FEF89E698E1215080409040E1F700C05B
S113030000000895CF93DF9300D01F92CDB7DEB7DE
S113031019821A821B82CE0101960E94E002898111
S11303208133C9F789EC90E00E94120460E081E017
S11303300E94250485ED90E00E94120480E49DE073
S1130340A3E0B0E08093320190933301A093340191
S1130350B093350181E0809368004EC0BE016D5FAB
S11303607F4F8EE10E94A7028B81813069F48A81DC
S11303708F5F8A8306C0BE016D5F7F4F8EE10E944E
S1130380A7028B818130B9F38A8180FF03C08A81FF
S1130390811118C080911901811114C00E94330485
S11303A08BED90E00E94120460E081E00E9425043D
S11303B085ED90E00E94120481E08093190110926F
S11303C018011AC080911801811116C08A8180FF1A
S11303D013C00E9433048BED90E00E94120460E08D
S11303E081E00E94250489EE90E00E94120481E0DD
S11303F0809318011092190180913601882309F421
S1130400ADCF2FEF83ED90E3215080409040E1F792
S113041000C0000081E080936000109236011092C9
S1130420320110923301109234011092350110926E
S113043068000F900F900F90DF91CF9108950E9464
S11304409E040E94F00378940E9427090E94BB0432
S11304500E94F0030E94C60262E08EE10E946305DE
S11304600E9474060E9437050E94110B89E490E0F3
S11304700E941D0B08950E94820164C081E491E0F2
S11304800E943A058091410190914201873491057F
S1130490B0F080913601811112C00E94870081E082
S11304A08093680080EA96E8A1E0B0E0809332018E
S11304B090933301A0933401B093350143C08091EC
S11304C03601813051F48091410190914201873489
S11304D0910518F00E94B20035C0809141019091BD
S11304E042018734910598F4809141019091420131
S11304F04F9768F010923601109232011092330136
S113050010923401109235010E9487001BC0809123
S11305104101909142014F9758F48091410190918B
S11305204201459728F00E944E010E94DD000AC056
S11305308091410190914201459720F40E944E011F
S11305400E94180180916000811198CF08950F9343
S11305501F93CF93DF931F92CDB7DEB78B01198220
S1130560BE016F5F7F4F0E941907811105C0898109
S1130570F801808381E004C08981F801808380E0F0
S11305800F90DF91CF911F910F91089561E088E161
S11305900E94840661E089E10E94840661E08AE1A8
S11305A00E94840661E084E00E94840661E085E0A4
S11305B00E94840661E086E00E94840680E008953B
S11305C0CF92DF92EF92FF920F931F93CF93DF931B
S11305D08C01D0E039C0CD2ED12CF601EE59FF4F5D
S11305E060E080810E948406C0E024C0EC2EF12CDF
S11305F0F701EB59FF4FB80180810E941907F801F8
S11306008081811116C0C601880F991F8C0D9D1D14
S113061082519F4FFC01EE0DFF1D8081F801808304
S1130620F601EE59FF4F61E080810E94840680E06C
S11306300EC0CF5FC330D0F2F601EE59FF4F61E038
S113064080810E948406DF5FD33028F281E0DF914D
S1130650CF911F910F91FF90EF90DF90CF9008956D
S1130660CF93C82F60E081E10E9484066C2F661F3F
S11306706627661F87E10E948406C6FB662760F929
S113068086E10E948406C5FB662760F985E10E9425
S11306908406C4FB662760F984E10E94840661E055
S11306A083E10E9484068FE99FE00197F1F700C07F
S11306B0000060E083E10E9484068FE99FE00197D7
S11306C0F1F700C00000C3FB662760F987E10E94D0
S11306D08406C2FB662760F986E10E948406C1FB9A
S11306E0662760F985E10E9484066C2F617084E1BD
S11306F00E94840661E083E10E9484068FE99FE002
S11307000197F1F700C0000060E083E10E948406D5
S11307108FE99FE00197F1F700C00000CF910895A1
S1130720CF93C82F61E081E10E9484066C2F661F7D
S11307306627661F87E10E948406C6FB662760F968
S113074086E10E948406C5FB662760F985E10E9464
S11307508406C4FB662760F984E10E94840661E094
S113076083E10E9484068FE99FE00197F1F700C0BE
S1130770000060E083E10E9484068FE99FE0019716
S1130780F1F700C00000C3FB662760F987E10E940F
S11307908406C2FB662760F986E10E948406C1FBD9
S11307A0662760F985E10E9484066C2F617084E1FC
S11307B00E94840661E083E10E9484068FE99FE041
S11307C00197F1F700C0000060E083E10E94840615
S11307D08FE99FE00197F1F700C00000CF910895E1
S11307E02FEF80E792E0215080409040E1F700C075
S11307F0000082E00E94300388E20E9430038CE013
S11308000E94300381E00E9430038FE99FE001974A
S1130810F1F700C0000086E00E94300308950E94B2
S1130820900308950F931F93CF938C01C0E003C0EE
S11308300E940F04CF5FF801EC0FF11D808181113C
S1130840F7CFCF911F910F910895811105C0862F85
S113085080680E9430030895813021F480EC860F73
S11308600E943003089581E00E9430038FE99FE0E5
S11308700197F1F700C000000895CF92DF92EF9244
S1130880FF921F93CF93DF93CDB7DEB72A970FB6AE
S1130890F894DEBF0FBECDBF6B017C0161157105FD
S11308A08105910521F480E30E940F0439C0992346
S11308B05CF4F094E094D094C094C11CD11CE11C6D
S11308C0F11C8DE20E940F0410E015C0C701B601AF
S11308D02AE030E040E050E00E94540DE1E0F0E016
S11308E0EC0FFD1FE10FF11D605D60831F5FC22EE1
S11308F0D32EE42EF52EC114D104E104F10431F712
S11309000DC0E12FF0E0319781E090E08C0F9D1F46
S1130910E80FF91F80810E940F0411501111F1CFCB
S11309202A960FB6F894DEBF0FBECDBFDF91CF91EC
S11309301F91FF90EF90DF90CF90089560E081E1E8
S11309400E94630560E083E10E94630560E082E148
S11309500E94630560E084E10E94630560E085E134
S11309600E94630560E086E10E94630560E087E120
S11309700E946305089560E080E00E94630560E0E2
S113098081E00E94630560E082E00E94630560E00C
S113099083E00E94630580E0089560E080E00E94A7
S11309A0840661E081E00E94840660E082E00E94A7
S11309B0840661E083E00E94840680E0089561E09B
S11309C080E00E94840660E081E00E94840661E089
S11309D082E00E94840660E083E00E94840680E056
S11309E0089560E080E00E94840660E081E00E9457
S11309F0840660E082E00E94840660E083E00E9456
S1130A00840680E0089561E080E00E94840660E04E
S1130A1081E00E94840660E082E00E94840661E036
S1130A2083E00E94840680E0089560E080E00E94F4
S1130A30840661E081E00E94840661E082E00E9415
S1130A40840660E083E00E94840680E0089561E00B
S1130A508BE00E9484068AE18A95F1F700C060E089
S1130A608BE00E94840680E00E94D60A08950E94CA
S1130A70860708950F931F93CF93DF9300D0CDB7CC
S1130A80DEB78C010E942705CE0101960E949707CC
S1130A9029813A81AFE9B6E40E94730D929582955B
S1130AA08F7089279F708927F801918380830F9025
S1130AB00F90DF91CF911F910F9108950E941F0213
S1130AC00E943B02FDCF982F969596959695877038
S1130AD0613009F459C020F0623009F4A9C0FCC0A7
S1130AE09130C9F028F0923049F19330D1F1F6C039
S1130AF04AB321E030E0B90102C0660F771F8A953E
S1130B00E2F7CB01942F982B9ABB9BB38095892352
S1130B108BBB80E0089547B321E030E0B90102C007
S1130B20660F771F8A95E2F7CB01942F982B97BB1A
S1130B3098B38095892388BB80E0089544B321E06D
S1130B4030E0B90102C0660F771F8A95E2F7CB0146
S1130B50942F982B94BB95B38095892385BB80E013
S1130B60089541B321E030E0B90102C0660F771F58
S1130B708A95E2F7CB01942F982B91BB92B3809581
S1130B80892382BB80E008959130C9F028F0923027
S1130B9049F19330D1F1A4C04AB321E030E0B90166
S1130BA002C0660F771F8A95E2F7CB018095942FD8
S1130BB098239ABB9BB389238BBB80E0089547B3EA
S1130BC021E030E0B90102C0660F771F8A95E2F791
S1130BD0CB018095942F982397BB98B3892388BB26
S1130BE080E0089544B321E030E0B90102C0660F0B
S1130BF0771F8A95E2F7CB018095942F982394BBB5
S1130C0095B3892385BB80E0089541B321E030E0AA
S1130C10B90102C0660F771F8A95E2F7CB01809570
S1130C20942F982391BB92B3892382BB80E00895CB
S1130C309130C9F028F0923049F19330D1F152C08B
S1130C404AB321E030E0B90102C0660F771F8A95EC
S1130C50E2F7CB01962F909594239ABB9BB3892BF3
S1130C608BBB80E0089547B321E030E0B90102C0B6
S1130C70660F771F8A95E2F7CB01962F9095942300
S1130C8097BB98B3892B88BB80E0089544B321E0D7
S1130C9030E0B90102C0660F771F8A95E2F7CB01F5
S1130CA0962F9095942394BB95B3892B85BB80E0B4
S1130CB0089541B321E030E0B90102C0660F771F07
S1130CC08A95E2F7CB01962F9095942391BB92B32A
S1130CD0892B82BB80E0089581E0089581E0089526
S1130CE081E0089581E00895CF93C0E009C0EC2F1E
S1130CF0F0E0E950FF4F60818C2F0E946305CF5FC5
S1130D00C032A8F3CF910895982F9695969596950D
S1130D108770662309F443C0613009F084C09130C0
S1130D20A1F028F09230F9F0933059F17EC04BB322
S1130D3021E030E0B90102C0660F771F8A95E2F71F
S1130D40CB01842B8BBB80E0089548B321E030E0D5
S1130D50B90102C0660F771F8A95E2F7CB01842B95
S1130D6088BB80E0089545B321E030E0B90102C0BA
S1130D70660F771F8A95E2F7CB01842B85BB80E051
S1130D80089542B321E030E0B90102C0660F771F35
S1130D908A95E2F7CB01842B82BB80E008959130E1
S1130DA0A9F028F0923009F1933071F140C04BB3AF
S1130DB021E030E0B90102C0660F771F8A95E2F79F
S1130DC0CB01809584238BBB80E0089548B321E058
S1130DD030E0B90102C0660F771F8A95E2F7CB01B4
S1130DE08095842388BB80E0089545B321E030E0FA
S1130DF0B90102C0660F771F8A95E2F7CB0180958F
S1130E00842385BB80E0089542B321E030E0B9013A
S1130E1002C0660F771F8A95E2F7CB018095842381
S1130E2082BB80E0089583E0089581E0089581E025
S1130E300895982F96959695969587709130A1F080
S1130E4028F09230F9F0933059F138C029B330E0EA
S1130E50A90102C0559547958A95E2F7CA018170A8
S1130E60FB01808380E0089526B330E0A90102C02D
S1130E70559547958A95E2F7CA018170FB018083F5
S1130E8080E0089523B330E0A90102C05595479549
S1130E908A95E2F7CA018170FB01808380E008959E
S1130EA020B330E0A90102C0559547958A95E2F731
S1130EB0CA018170FB01808380E0089581E0089578
S1130EC080911A0190911B01892B79F48EE191E0B4
S1130ED00E94D00A62E082E00E94E40781E090E090
S1130EE090931B0180931A01089580911A019091A7
S1130EF01B01019751F48CE191E00E94D00A82E039
S1130F0090E090931B0180931A01089562E080E0C1
S1130F100E94010A82E00E94D20763E082E00E94FC
S1130F20E40760E677E082E00E94440808950F93A6
S1130F301F93CF93DF938C0163E082E00E94E40768
S1130F4080E00E94D60A10921B0110921A0105C07B
S1130F50219682E08A95F1F700C080911A01909160
S1130F601B01029720F4C83DE9E5DE0788F3809170
S1130F701A0190911B01029779F480911C019091C0
S1130F801D0120911E0130911F01821B930BF8015A
S1130F909183808381E001C080E0DF91CF911F9134
S1130FA00F910895813041F018F0823049F008958E
S1130FB08BB780648BBF08958BB780688BBF08950F
S1130FC08BB780628BBF0895813049F120F0823065
S1130FD009F449C00895613069F028F0623089F05D
S1130FE06330B1F0089585B78E7F85BF85B78D7F57
S1130FF085BF089585B7816085BF85B78D7F85BF1F
S1131000089585B78E7F85BF85B7826085BF0895B3
S113101085B7816085BF85B7826085BF08956130DB
S113102069F028F0623089F06330B1F0089585B733
S11310308B7F85BF85B7877F85BF089585B784601B
S113104085BF85B7877F85BF089585B78B7F85BFAB
S113105085B7886085BF089585B7846085BF85B7E7
S1131060886085BF0895623019F0633029F008C0A4
S113107084B78F7B84BF089584B7806484BF089548
S113108084B78F7B84BF0895813049F018F0823093
S113109059F0089570932501609324010895709385
S11310A0230160932201089570932101609320012C
S11310B008951F920F920FB60F9211242F933F930E
S11310C04F935F936F937F938F939F93AF93BF934C
S11310D0EF93FF93E0912401F0912501309709F0FB
S11310E00995FF91EF91BF91AF919F918F917F915E
S11310F06F915F914F913F912F910F900FBE0F9081
S11311001F9018951F920F920FB60F9211242F93D0
S11311103F934F935F936F937F938F939F93AF937B
S1131120BF93EF93FF93E0912201F0912301309755
S113113009F00995FF91EF91BF91AF919F918F9124
S11311407F916F915F914F913F912F910F900FBEBF
S11311500F901F9018951F920F920FB60F921124A3
S11311602F933F934F935F936F937F938F939F93AB
S1131170AF93BF93EF93FF93E0912001F09121018E
S1131180309709F00995FF91EF91BF91AF919F912D
S11311908F917F916F915F914F913F912F910F901C
S11311A00FBE0F901F9018950F931F9386E082BF78
S11311B08091260190912701A0912801B0912901E5
S11311C00196A11DB11D8093260190932701A09340
S11311D02801B093290100912A0110912B0120913B
S11311E02C0130912D01B901A8014F5F5F4F6F4F62
S11311F07F4F84179507A607B70729F461E088E0B5
S11312000E94840621C040912E0150912F016091CB
S1131210300170913101400F511F621F731F4E5FE7
S11312205F4F6F4F7F4F84179507A607B70761F489
S113123060E088E00E948406109226011092270143
S113124010922801109229011F910F91089560E0D6
S113125088E00E94630580E00E949F090E94FD09C6
S113126084ED98E00E94CF0908958F929F92AF92E7
S1131270BF92CF92DF92EF92FF92CF93C82FCB0110
S1131280BA010E94590C9B01AC0160E070E080E857
S11312909FE30E94B80B20E034E244E759E40E9443
S11312A0E70C4B015C016C2F70E080E090E00E9441
S11312B05B0CA50194010E94E70C20E030E048ECAF
S11312C052E40E94B80B6B017C019B01AC01C50187
S11312D0B4010E944B0B4B015C0120E030E04AE773
S11312E053E4C701B6010E94B80B0E942A0C609314
S11312F02E0170932F01809330019093310120E0EF
S113130030E04AE753E4C501B4010E94B80B0E94DF
S11313102A0C60932A0170932B0180932C019093E3
S11313202D0161E088E00E948406CF91FF90EF9048
S1131330DF90CF90BF90AF909F908F9008958130B1
S113134069F028F0823089F08330B1F0089583B7D2
S11313508F7B83BF83B7877F83BF089583B7806400
S113136083BF83B7877F83BF089583B78F7B83BF92
S113137083B7886083BF089583B7806483BF83B7CE
S1131380886083BF0895883040F493B7987F93BFF3
S113139093B7892B83BF84E0089580E008959093E8
S11313A0400180933F0108951F920F920FB60F9250
S11313B011242F933F934F935F936F937F938F9356
S11313C09F93AF93BF93EF93FF93E0913F01F0910D
S11313D04001309709F00995FF91EF91BF91AF91CA
S11313E09F918F917F916F915F914F913F912F9139
S11313F00F900FBE0F901F90189589B7816089BF19
S11314000895823029F128F4882341F0813099F03D
S113141045C0833051F18430A9F140C08FB58E7F2F
S11314208FBD8FB58D7F8FBD8EB5877F8EBD8EB5F9
S11314308F7E8EBD33C08FB58E7F8FBD8FB58D7F70
S11314408FBD8EB588608EBD8EB580618EBD26C081
S11314508FB58E7F8FBD8FB58D7F8FBD8EB5886024
S11314608EBD8EB58F7E8EBD19C08FB58E7F8FBD1C
S11314708FB582608FBD8EB588608EBD8EB580615C
S11314808EBD0CC08FB581608FBD8FB582608FBD5E
S11314908EB588608EBD8EB580618EBD8EB5887F19
S11314A08EBD8EB5682B6EBD08951F920F920FB638
S11314B00F9211242F933F934F935F936F937F93D6
S11314C08F939F93AF93BF93EF93FF93E0913D016D
S11314D0F0913E01309709F00995FF91EF91BF918A
S11314E0AF919F918F917F916F915F914F913F91B8
S11314F02F910F900FBE0F901F9018951F920F926F
S11315000FB60F9211242F933F934F935F936F93D2
S11315107F938F939F93AF93BF93EF93FF93E09148
S11315203B01F0913C01309709F00995FF91EF914F
S1131530BF91AF919F918F917F916F915F914F91E7
S11315403F912F910F900FBE0F901F9018951F92EF
S11315500F920FB60F9211242F933F934F935F93E3
S11315606F937F938F939F93AF93BF93EF93FF9367
S1131570E0913901F0913A01309709F00995FF9112
S1131580EF91BF91AF919F918F917F916F915F91F7
S11315904F913F912F910F900FBE0F901F90189570
S11315A02CB53DB5FC0131832083089590E09DBDA9
S11315B08CBD0895813069F028F0823089F0833041
S11315C0B1F0089585B58F7B85BD85B5877F85BDD1
S11315D0089585B5806485BD85B5877F85BD0895EB
S11315E085B58F7B85BD85B5886085BD089585B536
S11315F0806485BD85B5886085BD089584BD84E01B
S11316000895883040F495B5987F95BD95B5892B9C
S113161085BD84E0089580E0089589B7806489BF1A
S113162008950E940D0B80E00E94DA0A80E00E9477
S1131630FE0A81E00E94010B089590933801809383
S1131640370108951F920F920FB60F9211242F9312
S11316503F934F935F936F937F938F939F93AF9336
S1131660BF93EF93FF93E0913701F09138013097E6
S113167009F00995FF91EF91BF91AF919F918F91DF
S11316807F916F915F914F913F912F910F900FBE7A
S11316900F901F9018955058BB27AA270E94630BE0
S11316A00C94AD0C0E949F0C38F00E94A60C20F004
S11316B039F49F3F19F426F40C949C0C0EF4E09535
S11316C0E7FB0C94960CE92F0E94BE0C58F3BA1752
S11316D0620773078407950720F079F4A6F50C9444
S11316E0E00C0EF4E0950B2EBA2FA02D0B01B901DE
S11316F090010C01CA01A0011124FF27591B99F084
S1131700593F50F4503E68F11A16F040A22F232F8F
S1131710342F4427585FF3CF469537952795A795DF
S1131720F0405395C9F77EF41F16BA0B620B730B86
S1131730840BBAF09150A1F0FF0FBB1F661F771FF7
S1131740881FC2F70EC0BA0F621F731F841F48F4AC
S1131750879577956795B795F7959E3F08F0B0CF35
S11317609395880F08F09927EE0F9795879508951C
S11317700E94CC0B0C94AD0C0E94A60C58F00E9455
S11317809F0C40F029F45F3F29F00C94960C511102
S11317900C94E10C0C949C0C0E94BE0C68F39923ED
S11317A0B1F3552391F3951B550BBB27AA27621759
S11317B07307840738F09F5F5F4F220F331F441F66
S11317C0AA1FA9F335D00E2E3AF0E0E832D091509A
S11317D05040E695001CCAF72BD0FE2F29D0660F87
S11317E0771F881FBB1F261737074807AB07B0E8CA
S11317F009F0BB0B802DBF01FF2793585F4F3AF0D0
S11318009E3F510578F00C94960C0C94E10C5F3FCC
S1131810E4F3983ED4F3869577956795B795F79555
S11318209F5FC9F7880F911D9695879597F908953D
S1131830E1E0660F771F881FBB1F621773078407D9
S1131840BA0720F0621B730B840BBA0BEE1F88F7E8
S1131850E09508950E94C60C88F09F5798F0B92F20
S11318609927B751B0F0E1F0660F771F881F991FD1
S11318701AF0BA95C9F714C0B13091F00E94E00C87
S1131880B1E008950C94E00C672F782F8827B85F97
S113189039F0B93FCCF3869577956795B395D9F729
S11318A03EF490958095709561957F4F8F4F9F4F33
S11318B00895E89409C097FB3EF49095809570953F
S11318C061957F4F8F4F9F4F9923A9F0F92F96E988
S11318D0BB279395F695879577956795B795F111FD
S11318E0F8CFFAF4BB0F11F460FF1BC06F5F7F4F9A
S11318F08F4F9F4F16C0882311F096E911C07723AC
S113190021F09EE8872F762F05C0662371F096E8B4
S1131910862F70E060E02AF09A95660F771F881F83
S1131920DAF7880F9695879597F9089597F99F6741
S113193080E870E060E008959FEF80EC0895002453
S11319400A941616170618060906089500240A9420
S113195012161306140605060895092E0394000CA6
S113196011F4882352F0BB0F40F4BF2B11F460FF35
S113197004C06F5F7F4F8F4F9F4F089557FD90585E
S1131980440F551F59F05F3F71F04795880F97FB3F
S1131990991F61F09F3F79F08795089512161306F9
S11319A01406551FF2CF4695F1DF08C01616170628
S11319B01806991FF1CF869571056105089408955D
S11319C0E894BB2766277727CB0197F908950E94EF
S11319D0FA0C0C94AD0C0E949F0C38F00E94A60CDB
S11319E020F0952311F00C94960C0C949C0C11246B
S11319F00C94E10C0E94BE0C70F3959FC1F3950FFB
S1131A0050E0551F629FF001729FBB27F00DB11D7E
S1131A10639FAA27F00DB11DAA1F649F6627B00D0E
S1131A20A11D661F829F2227B00DA11D621F739FF7
S1131A30B00DA11D621F839FA00D611D221F749F05
S1131A403327A00D611D231F849F600D211D822F4C
S1131A50762F6A2F11249F5750409AF0F1F0882373
S1131A604AF0EE0FFF1FBB1F661F771F881F9150A0
S1131A705040A9F79E3F510580F00C94960C0C94AD
S1131A80E10C5F3FE4F3983ED4F386957795679530
S1131A90B795F795E7959F5FC1F7FE2B880F911DCA
S1131AA09695879597F90895052E97FB1EF4009453
S1131AB00E946B0D57FD07D00E94820D07FC03D0D6
S1131AC04EF40C946B0D50954095309521953F4FF5
S1131AD04F4F5F4F089590958095709561957F4F16
S1131AE08F4F9F4F0895A29FB001B39FC001A39F42
S1131AF0700D811D1124911DB29F700D811D112443
S1131B00911D0895A1E21A2EAA1BBB1BFD010DC055
S1131B10AA1FBB1FEE1FFF1FA217B307E407F50799
S1131B2020F0A21BB30BE40BF50B661F771F881F75
S1131B30991F1A9469F760957095809590959B010B
S10F1B40AC01BD01CF010895F894FFCF63
S1131B4C010404050618191A0153706565643A33C7
S1131B5C3025204469723A094600446973742E3A5C
S1131B6C0020436D0053706565643A35302520447C
S1131B7C69723A09460053706565643A333025201E
S1131B8C4469723A09520053706565643A333025DE
S1131B9C204469723A09420053706565643A3030E6
S1131BAC25204469723A09530053657420446566D0
S1131BBC20526F7400526967687400536574204432
S1131BCC65662E20526F742E004C6566740031329B
S1131BDC333435363738390000000000000000007B
S1131BEC00010000000000000000000000000002E2
S10B1BFC0202000000010200D6
S9030000FC
